{
  "contractName": "MarketPool_ItemRelease_Sale",
  "abi": [
    {
      "anonymous": false,
      "inputs": [
        {
          "indexed": true,
          "internalType": "uint256",
          "name": "marketId",
          "type": "uint256"
        },
        {
          "indexed": true,
          "internalType": "uint256",
          "name": "itemTypeId",
          "type": "uint256"
        },
        {
          "indexed": true,
          "internalType": "uint256",
          "name": "itemId",
          "type": "uint256"
        }
      ],
      "name": "ItemCreated",
      "type": "event"
    },
    {
      "anonymous": false,
      "inputs": [
        {
          "indexed": true,
          "internalType": "uint256",
          "name": "marketId",
          "type": "uint256"
        },
        {
          "indexed": false,
          "internalType": "uint256",
          "name": "itemId",
          "type": "uint256"
        },
        {
          "indexed": true,
          "internalType": "address",
          "name": "previousOwner",
          "type": "address"
        },
        {
          "indexed": true,
          "internalType": "address",
          "name": "newOwner",
          "type": "address"
        }
      ],
      "name": "ItemOwnershipTransferred",
      "type": "event"
    },
    {
      "anonymous": false,
      "inputs": [
        {
          "indexed": true,
          "internalType": "uint256",
          "name": "marketId",
          "type": "uint256"
        },
        {
          "indexed": true,
          "internalType": "uint256",
          "name": "itemTypeId",
          "type": "uint256"
        }
      ],
      "name": "ItemTypeCreated",
      "type": "event"
    },
    {
      "anonymous": false,
      "inputs": [
        {
          "indexed": true,
          "internalType": "uint256",
          "name": "marketId",
          "type": "uint256"
        }
      ],
      "name": "MarketCreated",
      "type": "event"
    },
    {
      "anonymous": false,
      "inputs": [
        {
          "indexed": true,
          "internalType": "uint256",
          "name": "marketId",
          "type": "uint256"
        },
        {
          "indexed": true,
          "internalType": "address",
          "name": "previousOwner",
          "type": "address"
        },
        {
          "indexed": true,
          "internalType": "address",
          "name": "newOwner",
          "type": "address"
        }
      ],
      "name": "MarketOwnershipTransferred",
      "type": "event"
    },
    {
      "anonymous": false,
      "inputs": [
        {
          "indexed": true,
          "internalType": "address",
          "name": "previousOwner",
          "type": "address"
        },
        {
          "indexed": true,
          "internalType": "address",
          "name": "newOwner",
          "type": "address"
        }
      ],
      "name": "OwnershipTransferred",
      "type": "event"
    },
    {
      "anonymous": false,
      "inputs": [
        {
          "indexed": true,
          "internalType": "uint256",
          "name": "marketId",
          "type": "uint256"
        },
        {
          "indexed": true,
          "internalType": "uint256",
          "name": "saleReleaseInnerId",
          "type": "uint256"
        },
        {
          "indexed": false,
          "internalType": "uint256[]",
          "name": "itemIdArray",
          "type": "uint256[]"
        }
      ],
      "name": "SaleReleaseBought",
      "type": "event"
    },
    {
      "anonymous": false,
      "inputs": [
        {
          "indexed": true,
          "internalType": "uint256",
          "name": "marketId",
          "type": "uint256"
        },
        {
          "indexed": true,
          "internalType": "uint256",
          "name": "saleReleaseInnerId",
          "type": "uint256"
        }
      ],
      "name": "SaleReleaseCreated",
      "type": "event"
    },
    {
      "anonymous": false,
      "inputs": [
        {
          "indexed": true,
          "internalType": "uint256",
          "name": "marketId",
          "type": "uint256"
        },
        {
          "indexed": true,
          "internalType": "uint256",
          "name": "saleReleaseInnerId",
          "type": "uint256"
        }
      ],
      "name": "SaleReleaseRemoved",
      "type": "event"
    },
    {
      "anonymous": false,
      "inputs": [
        {
          "indexed": true,
          "internalType": "uint256",
          "name": "marketId",
          "type": "uint256"
        },
        {
          "indexed": true,
          "internalType": "uint256",
          "name": "saleReleaseInnerId",
          "type": "uint256"
        }
      ],
      "name": "SaleReleaseUpdated",
      "type": "event"
    },
    {
      "stateMutability": "payable",
      "type": "fallback",
      "payable": true
    },
    {
      "inputs": [
        {
          "internalType": "uint256",
          "name": "marketId",
          "type": "uint256"
        },
        {
          "internalType": "address",
          "name": "itemsOwner",
          "type": "address"
        }
      ],
      "name": "balanceOfItems",
      "outputs": [
        {
          "internalType": "uint256",
          "name": "",
          "type": "uint256"
        }
      ],
      "stateMutability": "view",
      "type": "function",
      "constant": true
    },
    {
      "inputs": [
        {
          "internalType": "uint256",
          "name": "marketId",
          "type": "uint256"
        },
        {
          "internalType": "uint256",
          "name": "typeId",
          "type": "uint256"
        }
      ],
      "name": "createItem",
      "outputs": [
        {
          "internalType": "uint256",
          "name": "",
          "type": "uint256"
        }
      ],
      "stateMutability": "nonpayable",
      "type": "function"
    },
    {
      "inputs": [
        {
          "internalType": "uint256",
          "name": "marketId",
          "type": "uint256"
        },
        {
          "internalType": "string",
          "name": "name",
          "type": "string"
        },
        {
          "internalType": "uint256",
          "name": "totalSupply",
          "type": "uint256"
        },
        {
          "internalType": "bool",
          "name": "allowSale",
          "type": "bool"
        },
        {
          "internalType": "bool",
          "name": "allowAuction",
          "type": "bool"
        },
        {
          "internalType": "bool",
          "name": "allowRent",
          "type": "bool"
        },
        {
          "internalType": "bool",
          "name": "allowLootbox",
          "type": "bool"
        }
      ],
      "name": "createItemType",
      "outputs": [
        {
          "internalType": "uint256",
          "name": "",
          "type": "uint256"
        }
      ],
      "stateMutability": "nonpayable",
      "type": "function"
    },
    {
      "inputs": [
        {
          "internalType": "string",
          "name": "name",
          "type": "string"
        }
      ],
      "name": "createMarket",
      "outputs": [
        {
          "internalType": "uint256",
          "name": "",
          "type": "uint256"
        }
      ],
      "stateMutability": "nonpayable",
      "type": "function"
    },
    {
      "inputs": [
        {
          "internalType": "uint256",
          "name": "marketId",
          "type": "uint256"
        },
        {
          "internalType": "uint256",
          "name": "itemId",
          "type": "uint256"
        }
      ],
      "name": "getItemData",
      "outputs": [
        {
          "internalType": "uint256",
          "name": "itemTypeId",
          "type": "uint256"
        }
      ],
      "stateMutability": "view",
      "type": "function",
      "constant": true
    },
    {
      "inputs": [
        {
          "internalType": "uint256",
          "name": "marketId",
          "type": "uint256"
        },
        {
          "internalType": "uint256",
          "name": "itemId",
          "type": "uint256"
        }
      ],
      "name": "getItemOwner",
      "outputs": [
        {
          "internalType": "address",
          "name": "",
          "type": "address"
        }
      ],
      "stateMutability": "view",
      "type": "function",
      "constant": true
    },
    {
      "inputs": [
        {
          "internalType": "uint256",
          "name": "marketId",
          "type": "uint256"
        },
        {
          "internalType": "uint256",
          "name": "typeId",
          "type": "uint256"
        }
      ],
      "name": "getItemTypeData",
      "outputs": [
        {
          "internalType": "string",
          "name": "name",
          "type": "string"
        },
        {
          "internalType": "uint256",
          "name": "remainingSupply",
          "type": "uint256"
        },
        {
          "internalType": "uint256",
          "name": "totalSupply",
          "type": "uint256"
        },
        {
          "internalType": "bool",
          "name": "isFinal",
          "type": "bool"
        },
        {
          "internalType": "bool",
          "name": "allowSale",
          "type": "bool"
        },
        {
          "internalType": "bool",
          "name": "allowAuction",
          "type": "bool"
        },
        {
          "internalType": "bool",
          "name": "allowRent",
          "type": "bool"
        },
        {
          "internalType": "bool",
          "name": "allowLootbox",
          "type": "bool"
        }
      ],
      "stateMutability": "view",
      "type": "function",
      "constant": true
    },
    {
      "inputs": [
        {
          "internalType": "uint256",
          "name": "marketId",
          "type": "uint256"
        }
      ],
      "name": "getMarketData",
      "outputs": [
        {
          "internalType": "string",
          "name": "name",
          "type": "string"
        }
      ],
      "stateMutability": "view",
      "type": "function",
      "constant": true
    },
    {
      "inputs": [
        {
          "internalType": "uint256",
          "name": "marketId",
          "type": "uint256"
        }
      ],
      "name": "getMarketOwner",
      "outputs": [
        {
          "internalType": "address",
          "name": "",
          "type": "address"
        }
      ],
      "stateMutability": "view",
      "type": "function",
      "constant": true
    },
    {
      "inputs": [
        {
          "internalType": "uint256",
          "name": "marketId",
          "type": "uint256"
        },
        {
          "internalType": "uint256",
          "name": "itemId",
          "type": "uint256"
        }
      ],
      "name": "isItemOwner",
      "outputs": [
        {
          "internalType": "bool",
          "name": "",
          "type": "bool"
        }
      ],
      "stateMutability": "view",
      "type": "function",
      "constant": true
    },
    {
      "inputs": [
        {
          "internalType": "uint256",
          "name": "marketId",
          "type": "uint256"
        }
      ],
      "name": "isMarketOwner",
      "outputs": [
        {
          "internalType": "bool",
          "name": "",
          "type": "bool"
        }
      ],
      "stateMutability": "view",
      "type": "function",
      "constant": true
    },
    {
      "inputs": [],
      "name": "isOwner",
      "outputs": [
        {
          "internalType": "bool",
          "name": "",
          "type": "bool"
        }
      ],
      "stateMutability": "view",
      "type": "function",
      "constant": true
    },
    {
      "inputs": [
        {
          "internalType": "uint256",
          "name": "marketId",
          "type": "uint256"
        },
        {
          "internalType": "uint256",
          "name": "itemId",
          "type": "uint256"
        }
      ],
      "name": "itemExist",
      "outputs": [
        {
          "internalType": "bool",
          "name": "",
          "type": "bool"
        }
      ],
      "stateMutability": "view",
      "type": "function",
      "constant": true
    },
    {
      "inputs": [
        {
          "internalType": "uint256",
          "name": "marketId",
          "type": "uint256"
        },
        {
          "internalType": "uint256",
          "name": "typeId",
          "type": "uint256"
        }
      ],
      "name": "itemTypeExist",
      "outputs": [
        {
          "internalType": "bool",
          "name": "",
          "type": "bool"
        }
      ],
      "stateMutability": "view",
      "type": "function",
      "constant": true
    },
    {
      "inputs": [
        {
          "internalType": "uint256",
          "name": "marketId",
          "type": "uint256"
        }
      ],
      "name": "marketExist",
      "outputs": [
        {
          "internalType": "bool",
          "name": "",
          "type": "bool"
        }
      ],
      "stateMutability": "view",
      "type": "function",
      "constant": true
    },
    {
      "inputs": [
        {
          "internalType": "uint256",
          "name": "",
          "type": "uint256"
        },
        {
          "internalType": "uint256",
          "name": "",
          "type": "uint256"
        }
      ],
      "name": "marketToItemToOwner",
      "outputs": [
        {
          "internalType": "address",
          "name": "",
          "type": "address"
        }
      ],
      "stateMutability": "view",
      "type": "function",
      "constant": true
    },
    {
      "inputs": [
        {
          "internalType": "uint256",
          "name": "",
          "type": "uint256"
        },
        {
          "internalType": "uint256",
          "name": "",
          "type": "uint256"
        }
      ],
      "name": "marketToItemTypes",
      "outputs": [
        {
          "internalType": "string",
          "name": "name",
          "type": "string"
        },
        {
          "internalType": "uint256",
          "name": "remainingSupply",
          "type": "uint256"
        },
        {
          "internalType": "uint256",
          "name": "totalSupply",
          "type": "uint256"
        },
        {
          "internalType": "bool",
          "name": "isFinal",
          "type": "bool"
        },
        {
          "internalType": "bool",
          "name": "allowSale",
          "type": "bool"
        },
        {
          "internalType": "bool",
          "name": "allowAuction",
          "type": "bool"
        },
        {
          "internalType": "bool",
          "name": "allowRent",
          "type": "bool"
        },
        {
          "internalType": "bool",
          "name": "allowLootbox",
          "type": "bool"
        }
      ],
      "stateMutability": "view",
      "type": "function",
      "constant": true
    },
    {
      "inputs": [
        {
          "internalType": "uint256",
          "name": "",
          "type": "uint256"
        },
        {
          "internalType": "uint256",
          "name": "",
          "type": "uint256"
        }
      ],
      "name": "marketToItems",
      "outputs": [
        {
          "internalType": "uint256",
          "name": "typeId",
          "type": "uint256"
        }
      ],
      "stateMutability": "view",
      "type": "function",
      "constant": true
    },
    {
      "inputs": [
        {
          "internalType": "uint256",
          "name": "",
          "type": "uint256"
        },
        {
          "internalType": "address",
          "name": "",
          "type": "address"
        }
      ],
      "name": "marketToUsersToItemsCount",
      "outputs": [
        {
          "internalType": "uint256",
          "name": "_value",
          "type": "uint256"
        }
      ],
      "stateMutability": "view",
      "type": "function",
      "constant": true
    },
    {
      "inputs": [
        {
          "internalType": "uint256",
          "name": "",
          "type": "uint256"
        }
      ],
      "name": "markets",
      "outputs": [
        {
          "internalType": "string",
          "name": "name",
          "type": "string"
        }
      ],
      "stateMutability": "view",
      "type": "function",
      "constant": true
    },
    {
      "inputs": [],
      "name": "owner",
      "outputs": [
        {
          "internalType": "address",
          "name": "",
          "type": "address"
        }
      ],
      "stateMutability": "view",
      "type": "function",
      "constant": true
    },
    {
      "inputs": [
        {
          "internalType": "uint256",
          "name": "marketId",
          "type": "uint256"
        }
      ],
      "name": "renounceMarketOwnership",
      "outputs": [],
      "stateMutability": "nonpayable",
      "type": "function"
    },
    {
      "inputs": [],
      "name": "renounceOwnership",
      "outputs": [],
      "stateMutability": "nonpayable",
      "type": "function"
    },
    {
      "inputs": [
        {
          "internalType": "uint256",
          "name": "marketId",
          "type": "uint256"
        },
        {
          "internalType": "uint256",
          "name": "itemId",
          "type": "uint256"
        },
        {
          "internalType": "address",
          "name": "to",
          "type": "address"
        }
      ],
      "name": "transferItemOwnership",
      "outputs": [],
      "stateMutability": "nonpayable",
      "type": "function"
    },
    {
      "inputs": [
        {
          "internalType": "uint256",
          "name": "marketId",
          "type": "uint256"
        },
        {
          "internalType": "address",
          "name": "newOwner",
          "type": "address"
        }
      ],
      "name": "transferMarketOwnership",
      "outputs": [],
      "stateMutability": "nonpayable",
      "type": "function"
    },
    {
      "inputs": [
        {
          "internalType": "address",
          "name": "newOwner",
          "type": "address"
        }
      ],
      "name": "transferOwnership",
      "outputs": [],
      "stateMutability": "nonpayable",
      "type": "function"
    },
    {
      "inputs": [],
      "name": "withdraw",
      "outputs": [],
      "stateMutability": "nonpayable",
      "type": "function"
    },
    {
      "stateMutability": "payable",
      "type": "receive",
      "payable": true
    },
    {
      "inputs": [
        {
          "internalType": "uint256",
          "name": "marketId",
          "type": "uint256"
        },
        {
          "internalType": "uint256[]",
          "name": "itemTypeIdArray",
          "type": "uint256[]"
        },
        {
          "internalType": "uint256",
          "name": "totalSupply",
          "type": "uint256"
        },
        {
          "internalType": "uint256",
          "name": "priceInWei",
          "type": "uint256"
        },
        {
          "internalType": "bool",
          "name": "enable",
          "type": "bool"
        }
      ],
      "name": "createSaleRelease",
      "outputs": [],
      "stateMutability": "nonpayable",
      "type": "function"
    },
    {
      "inputs": [
        {
          "internalType": "uint256",
          "name": "marketId",
          "type": "uint256"
        },
        {
          "internalType": "uint256",
          "name": "saleReleaseInnerId",
          "type": "uint256"
        }
      ],
      "name": "removeSaleRelease",
      "outputs": [],
      "stateMutability": "nonpayable",
      "type": "function"
    },
    {
      "inputs": [
        {
          "internalType": "uint256",
          "name": "marketId",
          "type": "uint256"
        },
        {
          "internalType": "uint256",
          "name": "saleReleaseInnerId",
          "type": "uint256"
        },
        {
          "internalType": "uint256",
          "name": "totalSupply",
          "type": "uint256"
        },
        {
          "internalType": "uint256",
          "name": "priceInWei",
          "type": "uint256"
        },
        {
          "internalType": "bool",
          "name": "enable",
          "type": "bool"
        }
      ],
      "name": "updateSaleRelease",
      "outputs": [],
      "stateMutability": "nonpayable",
      "type": "function"
    },
    {
      "inputs": [
        {
          "internalType": "uint256",
          "name": "marketId",
          "type": "uint256"
        },
        {
          "internalType": "uint256",
          "name": "saleReleaseInnerId",
          "type": "uint256"
        },
        {
          "internalType": "address",
          "name": "itemOwner",
          "type": "address"
        }
      ],
      "name": "buySaleRelease",
      "outputs": [],
      "stateMutability": "payable",
      "type": "function",
      "payable": true
    },
    {
      "inputs": [
        {
          "internalType": "uint256",
          "name": "marketIdToFound",
          "type": "uint256"
        },
        {
          "internalType": "uint256",
          "name": "saleReleaseInnerId",
          "type": "uint256"
        }
      ],
      "name": "getSaleRelease",
      "outputs": [
        {
          "internalType": "uint256",
          "name": "marketId",
          "type": "uint256"
        },
        {
          "internalType": "uint256",
          "name": "priceInWei",
          "type": "uint256"
        },
        {
          "internalType": "uint256",
          "name": "remainingSupply",
          "type": "uint256"
        },
        {
          "internalType": "uint256",
          "name": "totalSupply",
          "type": "uint256"
        },
        {
          "internalType": "bool",
          "name": "isFinal",
          "type": "bool"
        },
        {
          "internalType": "bool",
          "name": "enable",
          "type": "bool"
        },
        {
          "internalType": "uint256[]",
          "name": "itemTypeIdArray",
          "type": "uint256[]"
        }
      ],
      "stateMutability": "view",
      "type": "function",
      "constant": true
    },
    {
      "inputs": [
        {
          "internalType": "uint256",
          "name": "marketId",
          "type": "uint256"
        },
        {
          "internalType": "uint256",
          "name": "itemTypeId",
          "type": "uint256"
        }
      ],
      "name": "getSaleReleaseArrayForItemType",
      "outputs": [
        {
          "internalType": "uint256[]",
          "name": "",
          "type": "uint256[]"
        }
      ],
      "stateMutability": "view",
      "type": "function",
      "constant": true
    },
    {
      "inputs": [
        {
          "internalType": "uint256",
          "name": "marketId",
          "type": "uint256"
        },
        {
          "internalType": "uint256",
          "name": "saleReleaseInnerId",
          "type": "uint256"
        }
      ],
      "name": "saleReleaseExists",
      "outputs": [
        {
          "internalType": "bool",
          "name": "",
          "type": "bool"
        }
      ],
      "stateMutability": "view",
      "type": "function",
      "constant": true
    }
  ],
  "bytecode": "0x6080604052600062000016620000ba60201b60201c565b9050806000806101000a81548173ffffffffffffffffffffffffffffffffffffffff021916908373ffffffffffffffffffffffffffffffffffffffff1602179055508073ffffffffffffffffffffffffffffffffffffffff16600073ffffffffffffffffffffffffffffffffffffffff167f8be0079c531659141344cd1fd0a4f28419497f9722a3daafe3b4186f6b6457e060405160405180910390a350620000c2565b600033905090565b615c3780620000d26000396000f3fe6080604052600436106101fd5760003560e01c80638a4021bd1161010d578063b1283e77116100a0578063cf30f56f1161006f578063cf30f56f14610f52578063f2fde38b14611030578063f373f04814611081578063fc3ff780146110da578063fcc08cd41461114957610204565b8063b1283e7714610d3f578063b4c0c5de14610df3578063bb6b53bf14610e4b578063bfacba3d14610e9e57610204565b80638f32d59b116100dc5780638f32d59b14610b57578063a84fc48514610b86578063ad661efe14610be3578063adae08dd14610ce657610204565b80638a4021bd146109cf5780638bce7c3014610a285780638be5270214610aad5780638da5cb5b14610b0057610204565b80633d3690291161019057806354888f551161015f57806354888f55146107b557806363a24411146108915780636e7c170514610900578063715018a61461095d5780637cfc18181461097457610204565b80633d369029146105c45780633f1fd7741461063f5780634bafae4f1461070b5780634e16ff681461075057610204565b8063320c4f98116101cc578063320c4f98146103ab578063380cb76e146104455780633b64a7b7146105485780633ccfd60b146105ad57610204565b806307309846146102065780630b3ed5a714610241578063160909621461029e57806324416b17146102fb57610204565b3661020457005b005b34801561021257600080fd5b5061023f6004803603602081101561022957600080fd5b81019080803590602001909291905050506111ce565b005b34801561024d57600080fd5b506102846004803603604081101561026457600080fd5b810190808035906020019092919080359060200190929190505050611404565b604051808215151515815260200191505060405180910390f35b3480156102aa57600080fd5b506102e1600480360360408110156102c157600080fd5b8101908080359060200190929190803590602001909291905050506114b4565b604051808215151515815260200191505060405180910390f35b34801561030757600080fd5b506103a9600480360360a081101561031e57600080fd5b81019080803590602001909291908035906020019064010000000081111561034557600080fd5b82018360208201111561035757600080fd5b8035906020019184602083028401116401000000008311171561037957600080fd5b909192939192939080359060200190929190803590602001909291908035151590602001909291905050506114e8565b005b3480156103b757600080fd5b506103ee600480360360408110156103ce57600080fd5b810190808035906020019092919080359060200190929190505050611989565b6040518080602001828103825283818151815260200191508051906020019060200280838360005b83811015610431578082015181840152602081019050610416565b505050509050019250505060405180910390f35b34801561045157600080fd5b506104886004803603604081101561046857600080fd5b810190808035906020019092919080359060200190929190505050611cf0565b6040518080602001898152602001888152602001871515151581526020018615151515815260200185151515158152602001841515151581526020018315151515815260200182810382528a818151815260200191508051906020019080838360005b838110156105065780820151818401526020810190506104eb565b50505050905090810190601f1680156105335780820380516001836020036101000a031916815260200191505b50995050505050505050505060405180910390f35b34801561055457600080fd5b506105ab6004803603606081101561056b57600080fd5b810190808035906020019092919080359060200190929190803573ffffffffffffffffffffffffffffffffffffffff169060200190929190505050611f28565b005b3480156105b957600080fd5b506105c2612109565b005b3480156105d057600080fd5b506105fd600480360360208110156105e757600080fd5b81019080803590602001909291905050506121d9565b604051808273ffffffffffffffffffffffffffffffffffffffff1673ffffffffffffffffffffffffffffffffffffffff16815260200191505060405180910390f35b34801561064b57600080fd5b506106826004803603604081101561066257600080fd5b810190808035906020019092919080359060200190929190505050612274565b60405180888152602001878152602001868152602001858152602001841515151581526020018315151515815260200180602001828103825283818151815260200191508051906020019060200280838360005b838110156106f15780820151818401526020810190506106d6565b505050509050019850505050505050505060405180910390f35b34801561071757600080fd5b5061074e6004803603604081101561072e57600080fd5b81019080803590602001909291908035906020019092919050505061251e565b005b34801561075c57600080fd5b506107b3600480360360a081101561077357600080fd5b81019080803590602001909291908035906020019092919080359060200190929190803590602001909291908035151590602001909291905050506129a8565b005b3480156107c157600080fd5b5061087b600480360360208110156107d857600080fd5b81019080803590602001906401000000008111156107f557600080fd5b82018360208201111561080757600080fd5b8035906020019184600183028401116401000000008311171561082957600080fd5b91908080601f016020809104026020016040519081016040528093929190818152602001838380828437600081840152601f19601f820116905080830192505050505050509192919290505050612c13565b6040518082815260200191505060405180910390f35b34801561089d57600080fd5b506108ea600480360360408110156108b457600080fd5b8101908080359060200190929190803573ffffffffffffffffffffffffffffffffffffffff169060200190929190505050612d0e565b6040518082815260200191505060405180910390f35b34801561090c57600080fd5b506109436004803603604081101561092357600080fd5b810190808035906020019092919080359060200190929190505050612d39565b604051808215151515815260200191505060405180910390f35b34801561096957600080fd5b50610972612d6d565b005b34801561098057600080fd5b506109cd6004803603604081101561099757600080fd5b8101908080359060200190929190803573ffffffffffffffffffffffffffffffffffffffff169060200190929190505050612ea6565b005b3480156109db57600080fd5b50610a12600480360360408110156109f257600080fd5b810190808035906020019092919080359060200190929190505050613180565b6040518082815260200191505060405180910390f35b348015610a3457600080fd5b50610a6b60048036036040811015610a4b57600080fd5b8101908080359060200190929190803590602001909291905050506131b4565b604051808273ffffffffffffffffffffffffffffffffffffffff1673ffffffffffffffffffffffffffffffffffffffff16815260200191505060405180910390f35b348015610ab957600080fd5b50610ae660048036036020811015610ad057600080fd5b81019080803590602001909291905050506131f6565b604051808215151515815260200191505060405180910390f35b348015610b0c57600080fd5b50610b15613207565b604051808273ffffffffffffffffffffffffffffffffffffffff1673ffffffffffffffffffffffffffffffffffffffff16815260200191505060405180910390f35b348015610b6357600080fd5b50610b6c613230565b604051808215151515815260200191505060405180910390f35b348015610b9257600080fd5b50610bc960048036036040811015610ba957600080fd5b81019080803590602001909291908035906020019092919050505061328e565b604051808215151515815260200191505060405180910390f35b348015610bef57600080fd5b50610c2660048036036040811015610c0657600080fd5b81019080803590602001909291908035906020019092919050505061336a565b6040518080602001898152602001888152602001871515151581526020018615151515815260200185151515158152602001841515151581526020018315151515815260200182810382528a818151815260200191508051906020019080838360005b83811015610ca4578082015181840152602081019050610c89565b50505050905090810190601f168015610cd15780820380516001836020036101000a031916815260200191505b50995050505050505050505060405180910390f35b348015610cf257600080fd5b50610d2960048036036040811015610d0957600080fd5b8101908080359060200190929190803590602001909291905050506134a5565b6040518082815260200191505060405180910390f35b348015610d4b57600080fd5b50610d7860048036036020811015610d6257600080fd5b810190808035906020019092919050505061366e565b6040518080602001828103825283818151815260200191508051906020019080838360005b83811015610db8578082015181840152602081019050610d9d565b50505050905090810190601f168015610de55780820380516001836020036101000a031916815260200191505b509250505060405180910390f35b610e4960048036036060811015610e0957600080fd5b810190808035906020019092919080359060200190929190803573ffffffffffffffffffffffffffffffffffffffff16906020019092919050505061372d565b005b348015610e5757600080fd5b50610e8460048036036020811015610e6e57600080fd5b8101908080359060200190929190505050613b9a565b604051808215151515815260200191505060405180910390f35b348015610eaa57600080fd5b50610ed760048036036020811015610ec157600080fd5b8101908080359060200190929190505050613c63565b6040518080602001828103825283818151815260200191508051906020019080838360005b83811015610f17578082015181840152602081019050610efc565b50505050905090810190601f168015610f445780820380516001836020036101000a031916815260200191505b509250505060405180910390f35b348015610f5e57600080fd5b5061101a600480360360e0811015610f7557600080fd5b810190808035906020019092919080359060200190640100000000811115610f9c57600080fd5b820183602082011115610fae57600080fd5b80359060200191846001830284011164010000000083111715610fd057600080fd5b909192939192939080359060200190929190803515159060200190929190803515159060200190929190803515159060200190929190803515159060200190929190505050613d83565b6040518082815260200191505060405180910390f35b34801561103c57600080fd5b5061107f6004803603602081101561105357600080fd5b81019080803573ffffffffffffffffffffffffffffffffffffffff1690602001909291905050506140dc565b005b34801561108d57600080fd5b506110c4600480360360408110156110a457600080fd5b810190808035906020019092919080359060200190929190505050614162565b6040518082815260200191505060405180910390f35b3480156110e657600080fd5b50611133600480360360408110156110fd57600080fd5b8101908080359060200190929190803573ffffffffffffffffffffffffffffffffffffffff16906020019092919050505061421c565b6040518082815260200191505060405180910390f35b34801561115557600080fd5b5061118c6004803603604081101561116c57600080fd5b810190808035906020019092919080359060200190929190505050614361565b604051808273ffffffffffffffffffffffffffffffffffffffff1673ffffffffffffffffffffffffffffffffffffffff16815260200191505060405180910390f35b806111d8816131f6565b61124a576040517f08c379a00000000000000000000000000000000000000000000000000000000081526004018080602001828103825260158152602001807f4d61726b657420646f6573206e6f74206578697374000000000000000000000081525060200191505060405180910390fd5b3373ffffffffffffffffffffffffffffffffffffffff166002600083815260200190815260200160002060009054906101000a900473ffffffffffffffffffffffffffffffffffffffff1673ffffffffffffffffffffffffffffffffffffffff161461131e576040517f08c379a00000000000000000000000000000000000000000000000000000000081526004018080602001828103825260178152602001807f43616c6c6572206973206e6f7420746865206f776e657200000000000000000081525060200191505060405180910390fd5b600073ffffffffffffffffffffffffffffffffffffffff166002600084815260200190815260200160002060009054906101000a900473ffffffffffffffffffffffffffffffffffffffff1673ffffffffffffffffffffffffffffffffffffffff16837f2db5f9b069d085fba50688059d869a45ac805a9f56fe633ca94e0c306f25f30560405160405180910390a460006002600084815260200190815260200160002060006101000a81548173ffffffffffffffffffffffffffffffffffffffff021916908373ffffffffffffffffffffffffffffffffffffffff1602179055505050565b60006008600084815260200190815260200160002073__SaleReleaseDataList___________________630474423a9091846040518363ffffffff1660e01b8152600401808381526020018281526020019250505060206040518083038186803b15801561147157600080fd5b505af4158015611485573d6000803e3d6000fd5b505050506040513d602081101561149b57600080fd5b8101908080519060200190929190505050905092915050565b60006114bf836131f6565b80156114e05750816003600085815260200190815260200160002080549050115b905092915050565b856114f2816131f6565b611564576040517f08c379a00000000000000000000000000000000000000000000000000000000081526004018080602001828103825260158152602001807f4d61726b657420646f6573206e6f74206578697374000000000000000000000081525060200191505060405180910390fd5b3373ffffffffffffffffffffffffffffffffffffffff166002600083815260200190815260200160002060009054906101000a900473ffffffffffffffffffffffffffffffffffffffff1673ffffffffffffffffffffffffffffffffffffffff1614611638576040517f08c379a00000000000000000000000000000000000000000000000000000000081526004018080602001828103825260178152602001807f43616c6c6572206973206e6f7420746865206f776e657200000000000000000081525060200191505060405180910390fd5b60008686905011611694576040517f08c379a000000000000000000000000000000000000000000000000000000000815260040180806020018281038252602d815260200180615b49602d913960400191505060405180910390fd5b60008090505b86869050811015611721576116c1888888848181106116b557fe5b905060200201356114b4565b611716576040517f08c379a0000000000000000000000000000000000000000000000000000000008152600401808060200182810382526024815260200180615a926024913960400191505060405180910390fd5b80600101905061169a565b506000808511905060006118006040518061010001604052808b8152602001878152602001888152602001888152602001841515815260200186151581526020018a8a80806020026020016040519081016040528093929190818152602001838360200280828437600081840152601f19601f8201169050808301925050505050505081526020018a8a90506040519080825280602002602001820160405280156117db5781602001602082028036833780820191505090505b50815250600860008c815260200190815260200160002061440f90919063ffffffff16565b905080915050600080600860008c815260200190815260200160002073__SaleReleaseDataList___________________63eb504c879091856040518363ffffffff1660e01b8152600401808381526020018281526020019250505060006040518083038186803b15801561187457600080fd5b505af4158015611888573d6000803e3d6000fd5b505050506040513d6000823e3d601f19601f8201168201806040525060208110156118b257600080fd5b8101908080519060200190929190505050905060008090505b8a8a905081101561194d5761191e84600760008f815260200190815260200160002060008e8e868181106118fb57fe5b9050602002013581526020019081526020016000206144cb90919063ffffffff16565b9050809350508282600601828154811061193457fe5b90600052602060002001819055508060010190506118cb565b50828b7f10dc4d4676f6c21b9013aadb922c721c1e8443eced07fccbf1dc97cbca7ff72e60405160405180910390a35050505050505050505050565b6060828261199782826114b4565b6119ec576040517f08c379a000000000000000000000000000000000000000000000000000000000815260040180806020018281038252602a815260200180615ab6602a913960400191505060405180910390fd5b6000600760008781526020019081526020016000206000868152602001908152602001600020905060008173__ListUint256___________________________632214c5a790916040518263ffffffff1660e01b81526004018082815260200191505060206040518083038186803b158015611a6757600080fd5b505af4158015611a7b573d6000803e3d6000fd5b505050506040513d6020811015611a9157600080fd5b81019080805190602001909291905050509050606081604051908082528060200260200182016040528015611ad55781602001602082028036833780820191505090505b50905060008373__ListUint256___________________________6316708469909160006040518363ffffffff1660e01b8152600401808381526020018281526020019250505060206040518083038186803b158015611b3457600080fd5b505af4158015611b48573d6000803e3d6000fd5b505050506040513d6020811015611b5e57600080fd5b8101908080519060200190929190505050905060008090505b825181108015611b88575060008214155b15611ce05760008573__ListUint256___________________________637b323b839091856040518363ffffffff1660e01b8152600401808381526020018281526020019250505060206040518083038186803b158015611be857600080fd5b505af4158015611bfc573d6000803e3d6000fd5b505050506040513d6020811015611c1257600080fd5b8101908080519060200190929190505050905080848381518110611c3257fe5b6020026020010181815250508573__ListUint256___________________________63167084699091856040518363ffffffff1660e01b8152600401808381526020018281526020019250505060206040518083038186803b158015611c9757600080fd5b505af4158015611cab573d6000803e3d6000fd5b505050506040513d6020811015611cc157600080fd5b8101908080519060200190929190505050925050806001019050611b77565b5081965050505050505092915050565b606060008060008060008060008989611d0982826114b4565b611d5e576040517f08c379a000000000000000000000000000000000000000000000000000000000815260040180806020018281038252602a815260200180615ab6602a913960400191505060405180910390fd5b611d66615820565b600360008e81526020019081526020016000208c81548110611d8457fe5b906000526020600020906004020160405180610100016040529081600082018054600181600116156101000203166002900480601f016020809104026020016040519081016040528092919081815260200182805460018160011615610100020316600290048015611e375780601f10611e0c57610100808354040283529160200191611e37565b820191906000526020600020905b815481529060010190602001808311611e1a57829003601f168201915b5050505050815260200160018201548152602001600282015481526020016003820160009054906101000a900460ff161515151581526020016003820160019054906101000a900460ff161515151581526020016003820160029054906101000a900460ff161515151581526020016003820160039054906101000a900460ff161515151581526020016003820160049054906101000a900460ff1615151515815250509050806000015181602001518260400151836060015184608001518560a001518660c001518760e001518797509a509a509a509a509a509a509a509a505050509295985092959890939650565b8282611f348282612d39565b611f89576040517f08c379a0000000000000000000000000000000000000000000000000000000008152600401808060200182810382526025815260200180615ba96025913960400191505060405180910390fd5b3373ffffffffffffffffffffffffffffffffffffffff1660066000848152602001908152602001600020600083815260200190815260200160002060009054906101000a900473ffffffffffffffffffffffffffffffffffffffff1673ffffffffffffffffffffffffffffffffffffffff1614612051576040517f08c379a0000000000000000000000000000000000000000000000000000000008152600401808060200182810382526021815260200180615a2f6021913960400191505060405180910390fd5b82600073ffffffffffffffffffffffffffffffffffffffff168173ffffffffffffffffffffffffffffffffffffffff1614156120f5576040517f08c379a00000000000000000000000000000000000000000000000000000000081526004018080602001828103825260208152602001807f436865636b4164647265737320697320746865207a65726f206164647265737381525060200191505060405180910390fd5b61210186863387614587565b505050505050565b612111613230565b612183576040517f08c379a00000000000000000000000000000000000000000000000000000000081526004018080602001828103825260208152602001807f4f776e61626c653a2063616c6c6572206973206e6f7420746865206f776e657281525060200191505060405180910390fd5b600061218d613207565b90508073ffffffffffffffffffffffffffffffffffffffff166108fc479081150290604051600060405180830381858888f193505050501580156121d5573d6000803e3d6000fd5b5050565b60006121e4826131f6565b612239576040517f08c379a0000000000000000000000000000000000000000000000000000000008152600401808060200182810382526021815260200180615a506021913960400191505060405180910390fd5b6002600083815260200190815260200160002060009054906101000a900473ffffffffffffffffffffffffffffffffffffffff169050919050565b6000806000806000806060888861228b8282611404565b6122fd576040517f08c379a000000000000000000000000000000000000000000000000000000000815260040180806020018281038252601b8152602001807f53616c6552656c6561736520646f6573206e6f7420657869737473000000000081525060200191505060405180910390fd5b61230561586f565b600860008d815260200190815260200160002073__SaleReleaseDataList___________________63eb504c8790918d6040518363ffffffff1660e01b8152600401808381526020018281526020019250505060006040518083038186803b15801561237057600080fd5b505af4158015612384573d6000803e3d6000fd5b505050506040513d6000823e3d601f19601f8201168201806040525060208110156123ae57600080fd5b810190808051906020019092919050505060405180610100016040529081600082015481526020016001820154815260200160028201548152602001600382015481526020016004820160009054906101000a900460ff161515151581526020016004820160019054906101000a900460ff161515151581526020016005820180548060200260200160405190810160405280929190818152602001828054801561247857602002820191906000526020600020905b815481526020019060010190808311612464575b50505050508152602001600682018054806020026020016040519081016040528092919081815260200182805480156124d057602002820191906000526020600020905b8154815260200190600101908083116124bc575b5050505050815250509050806000015181602001518260400151836060015184608001518560a001518660c00151809050995099509950995099509950995050505092959891949750929550565b81612528816131f6565b61259a576040517f08c379a00000000000000000000000000000000000000000000000000000000081526004018080602001828103825260158152602001807f4d61726b657420646f6573206e6f74206578697374000000000000000000000081525060200191505060405180910390fd5b3373ffffffffffffffffffffffffffffffffffffffff166002600083815260200190815260200160002060009054906101000a900473ffffffffffffffffffffffffffffffffffffffff1673ffffffffffffffffffffffffffffffffffffffff161461266e576040517f08c379a00000000000000000000000000000000000000000000000000000000081526004018080602001828103825260178152602001807f43616c6c6572206973206e6f7420746865206f776e657200000000000000000081525060200191505060405180910390fd5b828261267a8282611404565b6126ec576040517f08c379a000000000000000000000000000000000000000000000000000000000815260040180806020018281038252601b8152602001807f53616c6552656c6561736520646f6573206e6f7420657869737473000000000081525060200191505060405180910390fd5b6126f461586f565b6008600087815260200190815260200160002073__SaleReleaseDataList___________________63eb504c879091876040518363ffffffff1660e01b8152600401808381526020018281526020019250505060006040518083038186803b15801561275f57600080fd5b505af4158015612773573d6000803e3d6000fd5b505050506040513d6000823e3d601f19601f82011682018060405250602081101561279d57600080fd5b810190808051906020019092919050505060405180610100016040529081600082015481526020016001820154815260200160028201548152602001600382015481526020016004820160009054906101000a900460ff161515151581526020016004820160019054906101000a900460ff161515151581526020016005820180548060200260200160405190810160405280929190818152602001828054801561286757602002820191906000526020600020905b815481526020019060010190808311612853575b50505050508152602001600682018054806020026020016040519081016040528092919081815260200182805480156128bf57602002820191906000526020600020905b8154815260200190600101908083116128ab575b505050505081525050905060008090505b8160c001515181101561294c576129418260e0015182815181106128f057fe5b6020026020010151600760008a815260200190815260200160002060008560c00151858151811061291d57fe5b6020026020010151815260200190815260200160002061495790919063ffffffff16565b8060010190506128d0565b506129728560086000898152602001908152602001600020614ad290919063ffffffff16565b84867f2f762ee004b9ff8b61a844362a6d15a0ffa899daa02d97928b211ec2df9c4b7d60405160405180910390a3505050505050565b846129b2816131f6565b612a24576040517f08c379a00000000000000000000000000000000000000000000000000000000081526004018080602001828103825260158152602001807f4d61726b657420646f6573206e6f74206578697374000000000000000000000081525060200191505060405180910390fd5b3373ffffffffffffffffffffffffffffffffffffffff166002600083815260200190815260200160002060009054906101000a900473ffffffffffffffffffffffffffffffffffffffff1673ffffffffffffffffffffffffffffffffffffffff1614612af8576040517f08c379a00000000000000000000000000000000000000000000000000000000081526004018080602001828103825260178152602001807f43616c6c6572206973206e6f7420746865206f776e657200000000000000000081525060200191505060405180910390fd5b8585612b048282611404565b612b76576040517f08c379a000000000000000000000000000000000000000000000000000000000815260040180806020018281038252601b8152602001807f53616c6552656c6561736520646f6573206e6f7420657869737473000000000081525060200191505060405180910390fd5b6000612b828989614c4d565b9050858160010181905550868160020181905550868160030181905550600087118160040160006101000a81548160ff021916908315150217905550848160040160016101000a81548160ff02191690831515021790555087897fa1cb4c20d9583e1afc1bd5adb628dc27a5fafbdbafb83723a7e5a6eebb18650060405160405180910390a3505050505050505050565b60006001604051806020016040528084815250908060018154018082558091505060019003906000526020600020016000909190919091506000820151816000019080519060200190612c679291906158b8565b5050506000612c8460018080549050614d1190919063ffffffff16565b9050336002600083815260200190815260200160002060006101000a81548173ffffffffffffffffffffffffffffffffffffffff021916908373ffffffffffffffffffffffffffffffffffffffff160217905550807f25b2eff8f9cbb97c6c73adf7d94f4f8956260becc65ab075709db7561914a2b160405160405180910390a280915050919050565b6005602052816000526040600020602052806000526040600020600091509150508060000154905081565b6000612d44836131f6565b8015612d655750816004600085815260200190815260200160002080549050115b905092915050565b612d75613230565b612de7576040517f08c379a00000000000000000000000000000000000000000000000000000000081526004018080602001828103825260208152602001807f4f776e61626c653a2063616c6c6572206973206e6f7420746865206f776e657281525060200191505060405180910390fd5b600073ffffffffffffffffffffffffffffffffffffffff166000809054906101000a900473ffffffffffffffffffffffffffffffffffffffff1673ffffffffffffffffffffffffffffffffffffffff167f8be0079c531659141344cd1fd0a4f28419497f9722a3daafe3b4186f6b6457e060405160405180910390a360008060006101000a81548173ffffffffffffffffffffffffffffffffffffffff021916908373ffffffffffffffffffffffffffffffffffffffff160217905550565b81612eb0816131f6565b612f22576040517f08c379a00000000000000000000000000000000000000000000000000000000081526004018080602001828103825260158152602001807f4d61726b657420646f6573206e6f74206578697374000000000000000000000081525060200191505060405180910390fd5b3373ffffffffffffffffffffffffffffffffffffffff166002600083815260200190815260200160002060009054906101000a900473ffffffffffffffffffffffffffffffffffffffff1673ffffffffffffffffffffffffffffffffffffffff1614612ff6576040517f08c379a00000000000000000000000000000000000000000000000000000000081526004018080602001828103825260178152602001807f43616c6c6572206973206e6f7420746865206f776e657200000000000000000081525060200191505060405180910390fd5b81600073ffffffffffffffffffffffffffffffffffffffff168173ffffffffffffffffffffffffffffffffffffffff16141561309a576040517f08c379a00000000000000000000000000000000000000000000000000000000081526004018080602001828103825260208152602001807f436865636b4164647265737320697320746865207a65726f206164647265737381525060200191505060405180910390fd5b8273ffffffffffffffffffffffffffffffffffffffff166002600086815260200190815260200160002060009054906101000a900473ffffffffffffffffffffffffffffffffffffffff1673ffffffffffffffffffffffffffffffffffffffff16857f2db5f9b069d085fba50688059d869a45ac805a9f56fe633ca94e0c306f25f30560405160405180910390a4826002600086815260200190815260200160002060006101000a81548173ffffffffffffffffffffffffffffffffffffffff021916908373ffffffffffffffffffffffffffffffffffffffff16021790555050505050565b6004602052816000526040600020818154811061319957fe5b90600052602060002001600091509150508060000154905081565b60066020528160005260406000206020528060005260406000206000915091509054906101000a900473ffffffffffffffffffffffffffffffffffffffff1681565b600081600180549050119050919050565b60008060009054906101000a900473ffffffffffffffffffffffffffffffffffffffff16905090565b60008060009054906101000a900473ffffffffffffffffffffffffffffffffffffffff1673ffffffffffffffffffffffffffffffffffffffff16613272614d5b565b73ffffffffffffffffffffffffffffffffffffffff1614905090565b600061329a8383612d39565b6132ef576040517f08c379a0000000000000000000000000000000000000000000000000000000008152600401808060200182810382526025815260200180615ba96025913960400191505060405180910390fd5b3373ffffffffffffffffffffffffffffffffffffffff1660066000858152602001908152602001600020600084815260200190815260200160002060009054906101000a900473ffffffffffffffffffffffffffffffffffffffff1673ffffffffffffffffffffffffffffffffffffffff1614905092915050565b6003602052816000526040600020818154811061338357fe5b906000526020600020906004020160009150915050806000018054600181600116156101000203166002900480601f0160208091040260200160405190810160405280929190818152602001828054600181600116156101000203166002900480156134305780601f1061340557610100808354040283529160200191613430565b820191906000526020600020905b81548152906001019060200180831161341357829003601f168201915b5050505050908060010154908060020154908060030160009054906101000a900460ff16908060030160019054906101000a900460ff16908060030160029054906101000a900460ff16908060030160039054906101000a900460ff16908060030160049054906101000a900460ff16905088565b6000826134b1816131f6565b613523576040517f08c379a00000000000000000000000000000000000000000000000000000000081526004018080602001828103825260158152602001807f4d61726b657420646f6573206e6f74206578697374000000000000000000000081525060200191505060405180910390fd5b3373ffffffffffffffffffffffffffffffffffffffff166002600083815260200190815260200160002060009054906101000a900473ffffffffffffffffffffffffffffffffffffffff1673ffffffffffffffffffffffffffffffffffffffff16146135f7576040517f08c379a00000000000000000000000000000000000000000000000000000000081526004018080602001828103825260178152602001807f43616c6c6572206973206e6f7420746865206f776e657200000000000000000081525060200191505060405180910390fd5b838361360382826114b4565b613658576040517f08c379a000000000000000000000000000000000000000000000000000000000815260040180806020018281038252602a815260200180615ab6602a913960400191505060405180910390fd5b613663868633614d63565b935050505092915050565b6001818154811061367b57fe5b90600052602060002001600091509050806000018054600181600116156101000203166002900480601f0160208091040260200160405190810160405280929190818152602001828054600181600116156101000203166002900480156137235780601f106136f857610100808354040283529160200191613723565b820191906000526020600020905b81548152906001019060200180831161370657829003601f168201915b5050505050905081565b82826137398282611404565b6137ab576040517f08c379a000000000000000000000000000000000000000000000000000000000815260040180806020018281038252601b8152602001807f53616c6552656c6561736520646f6573206e6f7420657869737473000000000081525060200191505060405180910390fd5b6137b361586f565b6137bd8686614c4d565b60405180610100016040529081600082015481526020016001820154815260200160028201548152602001600382015481526020016004820160009054906101000a900460ff161515151581526020016004820160019054906101000a900460ff161515151581526020016005820180548060200260200160405190810160405280929190818152602001828054801561387657602002820191906000526020600020905b815481526020019060010190808311613862575b50505050508152602001600682018054806020026020016040519081016040528092919081815260200182805480156138ce57602002820191906000526020600020905b8154815260200190600101908083116138ba575b50505050508152505090508060a00151613933576040517f08c379a0000000000000000000000000000000000000000000000000000000008152600401808060200182810382526021815260200180615a716021913960400191505060405180910390fd5b80602001513410156139ad576040517f08c379a00000000000000000000000000000000000000000000000000000000081526004018080602001828103825260208152602001807f4e6f7420656e6f7567682065746820666f72206275792074686973206974656d81525060200191505060405180910390fd5b6139b681614f72565b613a0b576040517f08c379a0000000000000000000000000000000000000000000000000000000008152600401808060200182810382526024815260200180615a0b6024913960400191505060405180910390fd5b60608160c0015151604051908082528060200260200182016040528015613a415781602001602082028036833780820191505090505b5090506002600088815260200190815260200160002060009054906101000a900473ffffffffffffffffffffffffffffffffffffffff1673ffffffffffffffffffffffffffffffffffffffff166108fc349081150290604051600060405180830381858888f19350505050158015613abd573d6000803e3d6000fd5b5060008090505b8260c0015151811015613b1657613af3888460c001518381518110613ae557fe5b602002602001015188614d63565b828281518110613aff57fe5b602002602001018181525050806001019050613ac4565b5085877fb94313673678acfdc1de0b90f605638c1068cce8f53a15a0702abf6cf709ca37836040518080602001828103825283818151815260200191508051906020019060200280838360005b83811015613b7e578082015181840152602081019050613b63565b505050509050019250505060405180910390a350505050505050565b6000613ba5826131f6565b613bfa576040517f08c379a0000000000000000000000000000000000000000000000000000000008152600401808060200182810382526021815260200180615a506021913960400191505060405180910390fd5b3373ffffffffffffffffffffffffffffffffffffffff166002600084815260200190815260200160002060009054906101000a900473ffffffffffffffffffffffffffffffffffffffff1673ffffffffffffffffffffffffffffffffffffffff16149050919050565b6060613c6e826131f6565b613cc3576040517f08c379a0000000000000000000000000000000000000000000000000000000008152600401808060200182810382526021815260200180615a506021913960400191505060405180910390fd5b600060018381548110613cd257fe5b906000526020600020019050806000018054600181600116156101000203166002900480601f016020809104026020016040519081016040528092919081815260200182805460018160011615610100020316600290048015613d765780601f10613d4b57610100808354040283529160200191613d76565b820191906000526020600020905b815481529060010190602001808311613d5957829003601f168201915b5050505050915050919050565b600088613d8f816131f6565b613e01576040517f08c379a00000000000000000000000000000000000000000000000000000000081526004018080602001828103825260158152602001807f4d61726b657420646f6573206e6f74206578697374000000000000000000000081525060200191505060405180910390fd5b3373ffffffffffffffffffffffffffffffffffffffff166002600083815260200190815260200160002060009054906101000a900473ffffffffffffffffffffffffffffffffffffffff1673ffffffffffffffffffffffffffffffffffffffff1614613ed5576040517f08c379a00000000000000000000000000000000000000000000000000000000081526004018080602001828103825260178152602001807f43616c6c6572206973206e6f7420746865206f776e657200000000000000000081525060200191505060405180910390fd5b600360008b81526020019081526020016000206040518061010001604052808b8b8080601f016020809104026020016040519081016040528093929190818152602001838380828437600081840152601f19601f82011690508083019250505050505050815260200189815260200189815260200160008a111515815260200188151581526020018715158152602001861515815260200185151581525090806001815401808255809150506001900390600052602060002090600402016000909190919091506000820151816000019080519060200190613fb89291906158b8565b50602082015181600101556040820151816002015560608201518160030160006101000a81548160ff02191690831515021790555060808201518160030160016101000a81548160ff02191690831515021790555060a08201518160030160026101000a81548160ff02191690831515021790555060c08201518160030160036101000a81548160ff02191690831515021790555060e08201518160030160046101000a81548160ff0219169083151502179055505050600061409b6001600360008e815260200190815260200160002080549050614d1190919063ffffffff16565b9050808b7f7934e0f5d948c4a79a3febe9190e48f7c9017e7655c1f47105f8478ef984102a60405160405180910390a3809250505098975050505050505050565b6140e4613230565b614156576040517f08c379a00000000000000000000000000000000000000000000000000000000081526004018080602001828103825260208152602001807f4f776e61626c653a2063616c6c6572206973206e6f7420746865206f776e657281525060200191505060405180910390fd5b61415f81614fae565b50565b600082826141708282612d39565b6141c5576040517f08c379a0000000000000000000000000000000000000000000000000000000008152600401808060200182810382526025815260200180615ba96025913960400191505060405180910390fd5b6141cd615938565b6004600087815260200190815260200160002085815481106141eb57fe5b9060005260206000200160405180602001604052908160008201548152505090508060000151935050505092915050565b60008073ffffffffffffffffffffffffffffffffffffffff168273ffffffffffffffffffffffffffffffffffffffff1614156142a3576040517f08c379a0000000000000000000000000000000000000000000000000000000008152600401808060200182810382526042815260200180615ae06042913960600191505060405180910390fd5b6142ac836131f6565b614301576040517f08c379a00000000000000000000000000000000000000000000000000000000081526004018080602001828103825260278152602001806159be6027913960400191505060405180910390fd5b6143596005600085815260200190815260200160002060008473ffffffffffffffffffffffffffffffffffffffff1673ffffffffffffffffffffffffffffffffffffffff1681526020019081526020016000206150f2565b905092915050565b600061436d8383612d39565b6143c2576040517f08c379a000000000000000000000000000000000000000000000000000000000815260040180806020018281038252602a815260200180615ab6602a913960400191505060405180910390fd5b60066000848152602001908152602001600020600083815260200190815260200160002060009054906101000a900473ffffffffffffffffffffffffffffffffffffffff16905092915050565b600080600061441e8585615100565b90506144298561533b565b61443b57808560000181905550614497565b808560060160008760010154815260200190815260200160002060070160006001151515158152602001908152602001600020819055506144968560060160008381526020019081526020016000208660010154600061534b565b5b60006144a5866004016150f2565b90508186600101819055506144bc8660040161538d565b80829350935050509250929050565b60008060006144da85856153a3565b90506144e585615498565b6144f757808560000181905550614553565b80856006016000876001015481526020019081526020016000206001016000600115151515815260200190815260200160002081905550614552856006016000838152602001908152602001600020866001015460006154a8565b5b6000614561866004016150f2565b90508186600101819055506145788660040161538d565b80829350935050509250929050565b80600073ffffffffffffffffffffffffffffffffffffffff168173ffffffffffffffffffffffffffffffffffffffff16141561462b576040517f08c379a00000000000000000000000000000000000000000000000000000000081526004018080602001828103825260208152602001807f436865636b4164647265737320697320746865207a65726f206164647265737381525060200191505060405180910390fd5b8173ffffffffffffffffffffffffffffffffffffffff168373ffffffffffffffffffffffffffffffffffffffff1614156146b0576040517f08c379a0000000000000000000000000000000000000000000000000000000008152600401808060200182810382526033815260200180615b766033913960400191505060405180910390fd5b6146ba8585612d39565b61470f576040517f08c379a0000000000000000000000000000000000000000000000000000000008152600401808060200182810382526025815260200180615ba96025913960400191505060405180910390fd5b8273ffffffffffffffffffffffffffffffffffffffff1660066000878152602001908152602001600020600086815260200190815260200160002060009054906101000a900473ffffffffffffffffffffffffffffffffffffffff1673ffffffffffffffffffffffffffffffffffffffff16146147d7576040517f08c379a0000000000000000000000000000000000000000000000000000000008152600401808060200182810382526021815260200180615a2f6021913960400191505060405180910390fd5b61482f6005600087815260200190815260200160002060008573ffffffffffffffffffffffffffffffffffffffff1673ffffffffffffffffffffffffffffffffffffffff1681526020019081526020016000206154ea565b6148876005600087815260200190815260200160002060008473ffffffffffffffffffffffffffffffffffffffff1673ffffffffffffffffffffffffffffffffffffffff16815260200190815260200160002061538d565b8160066000878152602001908152602001600020600086815260200190815260200160002060006101000a81548173ffffffffffffffffffffffffffffffffffffffff021916908373ffffffffffffffffffffffffffffffffffffffff1602179055508173ffffffffffffffffffffffffffffffffffffffff168373ffffffffffffffffffffffffffffffffffffffff16867f297028ce8af626c92b0bd8baa9fb2ab9a78677c4a12fac9d68113eb9d27208c7876040518082815260200191505060405180910390a45050505050565b600082600601600083815260200190815260200160002060010160006001151515158152602001908152602001600020549050600083600601600084815260200190815260200160002060010160008015151515815260200190815260200160002054905060016149ca856004016150f2565b038314156149dc578084600101819055505b60008314156149f357818460000181905550614a62565b81846006016000838152602001908152602001600020600101600060011515151581526020019081526020016000208190555060008214614a615780846006016000848152602001908152602001600020600101600080151515158152602001908152602001600020819055505b5b828460050160008660020154815260200190815260200160002081905550614a986001856002015461550d90919063ffffffff16565b8460020181905550614ac08460060160008581526020019081526020016000206000806154a8565b614acc846004016154ea565b50505050565b60008260060160008381526020019081526020016000206007016000600115151515815260200190815260200160002054905060008360060160008481526020019081526020016000206007016000801515151581526020019081526020016000205490506001614b45856004016150f2565b03831415614b57578084600101819055505b6000831415614b6e57818460000181905550614bdd565b81846006016000838152602001908152602001600020600701600060011515151581526020019081526020016000208190555060008214614bdc5780846006016000848152602001908152602001600020600701600080151515158152602001908152602001600020819055505b5b828460050160008660020154815260200190815260200160002081905550614c136001856002015461550d90919063ffffffff16565b8460020181905550614c3b84600601600085815260200190815260200160002060008061534b565b614c47846004016154ea565b50505050565b60006008600084815260200190815260200160002073__SaleReleaseDataList___________________63eb504c879091846040518363ffffffff1660e01b8152600401808381526020018281526020019250505060006040518083038186803b158015614cba57600080fd5b505af4158015614cce573d6000803e3d6000fd5b505050506040513d6000823e3d601f19601f820116820180604052506020811015614cf857600080fd5b8101908080519060200190929190505050905092915050565b6000614d5383836040518060400160405280601e81526020017f536166654d6174683a207375627472616374696f6e206f766572666c6f770000815250615595565b905092915050565b600033905090565b600080600360008681526020019081526020016000208481548110614d8457fe5b90600052602060002090600402019050614d9d81615655565b614df2576040517f08c379a0000000000000000000000000000000000000000000000000000000008152600401808060200182810382526034815260200180615bce6034913960400191505060405180910390fd5b60046000868152602001908152602001600020604051806020016040528086815250908060018154018082558091505060019003906000526020600020016000909190919091506000820151816000015550506000614e7160016004600089815260200190815260200160002080549050614d1190919063ffffffff16565b9050614ecb6005600088815260200190815260200160002060008673ffffffffffffffffffffffffffffffffffffffff1673ffffffffffffffffffffffffffffffffffffffff16815260200190815260200160002061538d565b8360066000888152602001908152602001600020600083815260200190815260200160002060006101000a81548173ffffffffffffffffffffffffffffffffffffffff021916908373ffffffffffffffffffffffffffffffffffffffff160217905550614f3782615680565b8085877fe4c069d6d656e522b253bfc665628b0926e17c426d278d9025aa33d46a53802060405160405180910390a480925050509392505050565b60008160a001518015614f96575081608001511580614f95575060008260400151115b5b8015614fa7575060008260c0015151115b9050919050565b600073ffffffffffffffffffffffffffffffffffffffff168173ffffffffffffffffffffffffffffffffffffffff161415615034576040517f08c379a00000000000000000000000000000000000000000000000000000000081526004018080602001828103825260268152602001806159e56026913960400191505060405180910390fd5b8073ffffffffffffffffffffffffffffffffffffffff166000809054906101000a900473ffffffffffffffffffffffffffffffffffffffff1673ffffffffffffffffffffffffffffffffffffffff167f8be0079c531659141344cd1fd0a4f28419497f9722a3daafe3b4186f6b6457e060405160405180910390a3806000806101000a81548173ffffffffffffffffffffffffffffffffffffffff021916908373ffffffffffffffffffffffffffffffffffffffff16021790555050565b600081600001549050919050565b600061510b836156c2565b6000809050600084600201541115615235578360050160006001866002015403815260200190815260200160002054905061515460018560020154614d1190919063ffffffff16565b84600201819055506040518060200160405280848152508460060160008381526020019081526020016000206000820151816000016000820151816000015560208201518160010155604082015181600201556060820151816003015560808201518160040160006101000a81548160ff02191690831515021790555060a08201518160040160016101000a81548160ff02191690831515021790555060c082015181600501908051906020019061520d92919061594b565b5060e082015181600601908051906020019061522a92919061594b565b505050905050615331565b836003015490506152546001856003015461550d90919063ffffffff16565b84600301819055506040518060200160405280848152508460060160008381526020019081526020016000206000820151816000016000820151816000015560208201518160010155604082015181600201556060820151816003015560808201518160040160006101000a81548160ff02191690831515021790555060a08201518160040160016101000a81548160ff02191690831515021790555060c082015181600501908051906020019061530d92919061594b565b5060e082015181600601908051906020019061532a92919061594b565b5050509050505b8091505092915050565b6000808260000154119050919050565b80836007016000600115151515815260200190815260200160002081905550818360070160008015151515815260200190815260200160002081905550505050565b6001816000016000828254019250508190555050565b60006153ae83615771565b600080905060008460020154111561543557836005016000600186600201540381526020019081526020016000205490506153f760018560020154614d1190919063ffffffff16565b84600201819055506040518060200160405280848152508460060160008381526020019081526020016000206000820151816000015590505061548e565b836003015490506154546001856003015461550d90919063ffffffff16565b8460030181905550604051806020016040528084815250846006016000838152602001908152602001600020600082015181600001559050505b8091505092915050565b6000808260000154119050919050565b80836001016000600115151515815260200190815260200160002081905550818360010160008015151515815260200190815260200160002081905550505050565b61550260018260000154614d1190919063ffffffff16565b816000018190555050565b60008082840190508381101561558b576040517f08c379a000000000000000000000000000000000000000000000000000000000815260040180806020018281038252601b8152602001807f536166654d6174683a206164646974696f6e206f766572666c6f77000000000081525060200191505060405180910390fd5b8091505092915050565b6000838311158290615642576040517f08c379a00000000000000000000000000000000000000000000000000000000081526004018080602001828103825283818151815260200191508051906020019080838360005b838110156156075780820151818401526020810190506155ec565b50505050905090810190601f1680156156345780820380516001836020036101000a031916815260200191505b509250505060405180910390fd5b5060008385039050809150509392505050565b60008160030160009054906101000a900460ff161580615679575060008260010154115b9050919050565b8060030160009054906101000a900460ff1680156156a2575060008160010154115b156156bf576156b681600101546001614d11565b81600101819055505b50565b60008160030154141561576e57600081600001541480156156e7575060008160020154145b80156156f7575060008160010154145b801561570e5750600061570c826004016150f2565b145b615763576040517f08c379a0000000000000000000000000000000000000000000000000000000008152600401808060200182810382526027815260200180615b226027913960400191505060405180910390fd5b600181600301819055505b50565b60008160030154141561581d5760008160000154148015615796575060008160020154145b80156157a6575060008160010154145b80156157bd575060006157bb826004016150f2565b145b615812576040517f08c379a0000000000000000000000000000000000000000000000000000000008152600401808060200182810382526027815260200180615b226027913960400191505060405180910390fd5b600181600301819055505b50565b6040518061010001604052806060815260200160008152602001600081526020016000151581526020016000151581526020016000151581526020016000151581526020016000151581525090565b6040518061010001604052806000815260200160008152602001600081526020016000815260200160001515815260200160001515815260200160608152602001606081525090565b828054600181600116156101000203166002900490600052602060002090601f016020900481019282601f106158f957805160ff1916838001178555615927565b82800160010185558215615927579182015b8281111561592657825182559160200191906001019061590b565b5b5090506159349190615998565b5090565b6040518060200160405280600081525090565b828054828255906000526020600020908101928215615987579160200282015b8281111561598657825182559160200191906001019061596b565b5b5090506159949190615998565b5090565b6159ba91905b808211156159b657600081600090555060010161599e565b5090565b9056fe4d61726b6574506f6f6c5f4974656d733a204d61726b657420646f6573206e6f742065786973744f776e61626c653a206e6577206f776e657220697320746865207a65726f206164647265737352656c656173652074686973206974656d207479706520697320696d706f737369626c654d61726b6574506f6f6c5f4974656d733a204974206973206e6f74206f776e65724d61726b6574506f6f6c3a204d61726b657420646f6573206e6f7420657869737443757272656e742073616c65207265616c656173652069732064697361626c65644f6e65206f6620746865206974656d207479706520646f6573206e6f74206578697374734d61726b6574506f6f6c5f4974656d733a204974656d205479706520646f6573206e6f742065786973744d61726b6574506f6f6c5f4974656d733a20417474656d707420746f20636865636b207468652062616c616e636520617420746865207a65726f2061646472657373496e7465726e616c206572726f722077697468204c69737420496d706c656d656e746174696f6e43616e6e6f74206372656174652053616c652052656c6561736520776974686f7574206974656d2074797065734d61726b6574506f6f6c5f4974656d733a202766726f6d27206164647265737320657175616c2027746f2720616464726573734d61726b6574506f6f6c5f4974656d733a204974656d20646f6573206e6f742065786973744d61726b6574506f6f6c5f4974656d733a2063616e6e6f742063726561746520616e206974656d206f6620746869732074797065a2646970667358221220a319e5d203d0159998a6ef4fcaea22ecc71ea4d40ab7ddc995431405d79b81d664736f6c63430006030033",
  "source": "pragma solidity >=0.6.0;\r\n\r\nimport \"../library/Release/Sale/SaleReleasePosition.sol\";\r\nimport \"../library/Release/Sale/SaleReleaseDataList.sol\";\r\nimport \"../library/ListUint256.sol\";\r\nimport \"./MarketPool_Items.sol\";\r\n\r\ncontract MarketPool_ItemRelease_Sale is MarketPool_Items {\r\n    using SafeMath for uint256;\r\n    using SaleReleasePosition for SaleReleasePosition.Data;\r\n    using SaleReleaseDataList for SaleReleaseDataList.List;\r\n    using ListUint256 for ListUint256.List;\r\n\r\n    event SaleReleaseCreated(uint256 indexed marketId, uint256 indexed saleReleaseInnerId);\r\n    event SaleReleaseRemoved(uint256 indexed marketId, uint256 indexed saleReleaseInnerId);\r\n    event SaleReleaseUpdated(uint256 indexed marketId, uint256 indexed saleReleaseInnerId);\r\n    event SaleReleaseBought(uint256 indexed marketId, uint256 indexed saleReleaseInnerId, uint256[] itemIdArray);\r\n\r\n\r\n\r\n    // ID   ID       SaleItemList.List    \r\n    mapping(uint256 => mapping(uint256 => ListUint256.List)) private marketToItemTypeToInnerIndexesList;\r\n\r\n    // ID      \r\n    mapping(uint256 => SaleReleaseDataList.List) private marketToSaleReleaseDataList;\r\n\r\n\r\n\r\n    /**\r\n     * @notice Create new Sale Data for Release Items\r\n     */\r\n    function createSaleRelease(\r\n        uint256 marketId,\r\n        uint256[] calldata itemTypeIdArray,\r\n        uint256 totalSupply,\r\n        uint256 priceInWei,\r\n        bool enable)\r\n        external\r\n        onlyMarketOwner(marketId)\r\n    {\r\n        require(itemTypeIdArray.length > 0, \"Cannot create Sale Release without item types\");\r\n        for(uint i = 0; i < itemTypeIdArray.length; ++i){\r\n            require(itemTypeExist(marketId, itemTypeIdArray[i]), \"One of the item type does not exists\");\r\n        }\r\n\r\n\r\n        bool isFinal = totalSupply > 0;\r\n        uint256 innerId;\r\n        (,innerId) = marketToSaleReleaseDataList[marketId].add(SaleReleasePosition.Data(\r\n            marketId,\r\n            priceInWei,\r\n            totalSupply,\r\n            totalSupply,\r\n            isFinal,\r\n            enable,\r\n            itemTypeIdArray,\r\n            new uint256[](itemTypeIdArray.length)\r\n        ));\r\n\r\n        uint256 tmpInnerId;\r\n        SaleReleasePosition.Data storage saleRelease = marketToSaleReleaseDataList[marketId].getByInnerIndex(innerId);\r\n        for(uint i = 0; i < itemTypeIdArray.length; ++i){\r\n            (,tmpInnerId) = marketToItemTypeToInnerIndexesList[marketId][itemTypeIdArray[i]].add(innerId);\r\n            saleRelease.itemTypeIdToInnerIndex[i] = tmpInnerId;\r\n        }\r\n        emit SaleReleaseCreated(marketId, innerId);\r\n    }\r\n\r\n    function removeSaleRelease(uint256 marketId, uint256 saleReleaseInnerId)\r\n        external\r\n        onlyMarketOwner(marketId)\r\n        onlySaleReleaseExists(marketId, saleReleaseInnerId)\r\n    {\r\n        SaleReleasePosition.Data memory data = marketToSaleReleaseDataList[marketId].getByInnerIndex(saleReleaseInnerId);\r\n\r\n        for(uint i = 0; i < data.itemTypeIdArray.length; ++i) {\r\n            marketToItemTypeToInnerIndexesList[marketId][data.itemTypeIdArray[i]].removeByInnerlId(data.itemTypeIdToInnerIndex[i]);\r\n        }\r\n\r\n        marketToSaleReleaseDataList[marketId].removeByInnerlId(saleReleaseInnerId);\r\n        emit SaleReleaseRemoved(marketId, saleReleaseInnerId);\r\n    }\r\n\r\n    function updateSaleRelease(\r\n        uint256 marketId,\r\n        uint256 saleReleaseInnerId,\r\n        uint256 totalSupply,\r\n        uint256 priceInWei,\r\n        bool enable)\r\n        external\r\n        onlyMarketOwner(marketId)\r\n        onlySaleReleaseExists(marketId, saleReleaseInnerId)\r\n    {\r\n        SaleReleasePosition.Data storage data = _getSaleReleaseRef(marketId, saleReleaseInnerId);\r\n        data.priceInWei = priceInWei;\r\n        data.remainingSupply = totalSupply;\r\n        data.totalSupply = totalSupply;\r\n        data.isFinal = totalSupply > 0;\r\n        data.enable = enable;\r\n        emit SaleReleaseUpdated(marketId, saleReleaseInnerId);\r\n    }\r\n\r\n\r\n    function buySaleRelease(uint256 marketId, uint256 saleReleaseInnerId, address itemOwner)\r\n        external\r\n        payable\r\n        onlySaleReleaseExists(marketId, saleReleaseInnerId)\r\n    {\r\n        SaleReleasePosition.Data memory data = _getSaleReleaseRef(marketId, saleReleaseInnerId);\r\n        require(data.enable, \"Current sale realease is disabled\");\r\n        require(msg.value >= data.priceInWei, \"Not enough eth for buy this item\");\r\n        require(data.realeasePossible(), \"Release this item type is impossible\");\r\n\r\n        uint256[] memory itemIdArray = new uint256[](data.itemTypeIdArray.length);\r\n        payable(marketToOwner[marketId]).transfer(msg.value);\r\n        for(uint256 i = 0; i < data.itemTypeIdArray.length; ++i) {\r\n            itemIdArray[i] = _createItem(marketId, data.itemTypeIdArray[i], itemOwner);\r\n        }\r\n        \r\n        emit SaleReleaseBought(marketId, saleReleaseInnerId, itemIdArray);\r\n    }\r\n\r\n\r\n\r\n\r\n    /**\r\n     * @notice Return data about Sale Release for selected item type\r\n     */\r\n    function getSaleRelease(uint256 marketIdToFound, uint256 saleReleaseInnerId)\r\n        public\r\n        view\r\n        onlySaleReleaseExists(marketIdToFound, saleReleaseInnerId)\r\n        returns(\r\n            uint256 marketId,\r\n            uint256 priceInWei,\r\n            uint256 remainingSupply,\r\n            uint256 totalSupply,\r\n\r\n            bool isFinal,\r\n            bool enable,\r\n            uint256[] memory itemTypeIdArray\r\n        )\r\n    {\r\n        SaleReleasePosition.Data memory data = marketToSaleReleaseDataList[marketIdToFound].getByInnerIndex(saleReleaseInnerId);\r\n        return (\r\n            data.marketId,\r\n            data.priceInWei,\r\n            data.remainingSupply,\r\n            data.totalSupply,\r\n\r\n            data.isFinal,\r\n            data.enable,\r\n            data.itemTypeIdArray\r\n        );\r\n    }\r\n\r\n\r\n    /**\r\n     * @notice Return array of inner id's SaleReleases by itemTypeId\r\n     */\r\n    function getSaleReleaseArrayForItemType(uint256 marketId, uint256 itemTypeId)\r\n        external\r\n        view\r\n        onlyItemTypeExist(marketId, itemTypeId)\r\n        returns (uint256[] memory)\r\n    {\r\n        ListUint256.List storage list = marketToItemTypeToInnerIndexesList[marketId][itemTypeId];\r\n        uint256 length = list.getLength();\r\n        uint256[] memory resultArray = new uint256[](length);\r\n        uint256 innerIndex = list.iterate(0);\r\n        for(uint256 i = 0; i < resultArray.length && innerIndex != 0; ++i) {\r\n            uint256 item = list.getByInnerIndex(innerIndex);\r\n            resultArray[i] = item;\r\n            innerIndex = list.iterate(innerIndex);\r\n        }\r\n\r\n        return resultArray;\r\n    }\r\n\r\n    /**\r\n     * @notice Return TRUE if sale data exists\r\n     */\r\n    function saleReleaseExists(uint256 marketId, uint256 saleReleaseInnerId)\r\n        public\r\n        view\r\n        returns(bool)\r\n    {\r\n        return marketToSaleReleaseDataList[marketId].existsByInnerId(saleReleaseInnerId);\r\n    }\r\n\r\n\r\n\r\n\r\n    function _getSaleReleaseRef(uint256 marketId, uint256 saleReleaseInnerId)\r\n        internal\r\n        view\r\n        returns (SaleReleasePosition.Data storage)\r\n    {\r\n        return marketToSaleReleaseDataList[marketId].getByInnerIndex(saleReleaseInnerId);\r\n    }\r\n\r\n\r\n\r\n\r\n    modifier onlySaleReleaseExists(uint256 marketId, uint256 saleReleaseInnerId) {\r\n        require(saleReleaseExists(marketId, saleReleaseInnerId), \"SaleRelease does not exists\");\r\n        _;\r\n    }\r\n}",
  "sourcePath": "E:\\MeineArbeit\\Solidity\\MarketPool\\contracts\\MarketPool_ItemRelease_Sale.sol",
  "compiler": {
    "name": "solc",
    "version": "0.6.3+commit.8dda9521.Emscripten.clang"
  },
  "schemaVersion": "3.0.23",
  "updatedAt": "2020-03-14T14:11:23.056Z",
  "networkType": "ethereum",
  "devdoc": {
    "methods": {
      "createMarket(string)": {
        "params": {
          "name": "The name of marketplace"
        },
        "returns": {
          "_0": "id of the created market"
        }
      },
      "isOwner()": {
        "details": "Returns true if the caller is the current owner."
      },
      "owner()": {
        "details": "Returns the address of the current owner."
      },
      "renounceOwnership()": {
        "details": "Leaves the contract without owner. It will not be possible to call `onlyOwner` functions anymore. Can only be called by the current owner.     * NOTE: Renouncing ownership will leave the contract without an owner, thereby removing any functionality that is only available to the owner."
      },
      "transferOwnership(address)": {
        "details": "Transfers ownership of the contract to a new account (`newOwner`). Can only be called by the current owner."
      }
    }
  },
  "userdoc": {
    "methods": {
      "createItem(uint256,uint256)": {
        "notice": "Can call only owner. Create Item for selected Market and Type. Owner of item will be owner of market"
      },
      "createItemType(uint256,string,uint256,bool,bool,bool,bool)": {
        "notice": "Create ItemType for selected Market."
      },
      "createMarket(string)": {
        "notice": "Create new Market for sender."
      },
      "createSaleRelease(uint256,uint256[],uint256,uint256,bool)": {
        "notice": "Create new Sale Data for Release Items"
      },
      "getItemData(uint256,uint256)": {
        "notice": "Return data about item"
      },
      "getItemTypeData(uint256,uint256)": {
        "notice": "Return data about item type"
      },
      "getMarketData(uint256)": {
        "notice": "Return all data of market by its id"
      },
      "getMarketOwner(uint256)": {
        "notice": "Return addres of market owner"
      },
      "getSaleRelease(uint256,uint256)": {
        "notice": "Return data about Sale Release for selected item type"
      },
      "getSaleReleaseArrayForItemType(uint256,uint256)": {
        "notice": "Return array of inner id's SaleReleases by itemTypeId"
      },
      "isMarketOwner(uint256)": {
        "notice": "Chech if it is market owner "
      },
      "marketExist(uint256)": {
        "notice": "Check if market exist "
      },
      "renounceMarketOwnership(uint256)": {
        "notice": "Renouncing ownership will leave the contract without an market owner, thereby removing any functionality that is only available to the market owner (e.g. creating new Item Types)."
      },
      "saleReleaseExists(uint256,uint256)": {
        "notice": "Return TRUE if sale data exists"
      },
      "transferItemOwnership(uint256,uint256,address)": {
        "notice": "Can call only item owner. Change item owner to ('to')"
      },
      "transferMarketOwnership(uint256,address)": {
        "notice": "Transfers ownership of the ('marketId') to a new account (`newOwner`)."
      }
    }
  }
}