{
  "contractName": "MarketPool",
  "abi": [
    {
      "anonymous": false,
      "inputs": [
        {
          "indexed": true,
          "internalType": "uint256",
          "name": "marketId",
          "type": "uint256"
        },
        {
          "indexed": true,
          "internalType": "address",
          "name": "owner",
          "type": "address"
        }
      ],
      "name": "MarketCreated",
      "type": "event"
    },
    {
      "anonymous": false,
      "inputs": [
        {
          "indexed": true,
          "internalType": "uint256",
          "name": "marketId",
          "type": "uint256"
        },
        {
          "indexed": true,
          "internalType": "address",
          "name": "previousOwner",
          "type": "address"
        },
        {
          "indexed": true,
          "internalType": "address",
          "name": "newOwner",
          "type": "address"
        }
      ],
      "name": "MarketOwnershipTransferred",
      "type": "event"
    },
    {
      "anonymous": false,
      "inputs": [
        {
          "indexed": true,
          "internalType": "address",
          "name": "previousOwner",
          "type": "address"
        },
        {
          "indexed": true,
          "internalType": "address",
          "name": "newOwner",
          "type": "address"
        }
      ],
      "name": "OwnershipTransferred",
      "type": "event"
    },
    {
      "stateMutability": "payable",
      "type": "fallback"
    },
    {
      "inputs": [],
      "name": "isOwner",
      "outputs": [
        {
          "internalType": "bool",
          "name": "",
          "type": "bool"
        }
      ],
      "stateMutability": "view",
      "type": "function"
    },
    {
      "inputs": [
        {
          "internalType": "uint256",
          "name": "",
          "type": "uint256"
        }
      ],
      "name": "markets",
      "outputs": [
        {
          "internalType": "string",
          "name": "name",
          "type": "string"
        }
      ],
      "stateMutability": "view",
      "type": "function"
    },
    {
      "inputs": [],
      "name": "owner",
      "outputs": [
        {
          "internalType": "address",
          "name": "",
          "type": "address"
        }
      ],
      "stateMutability": "view",
      "type": "function"
    },
    {
      "inputs": [],
      "name": "renounceOwnership",
      "outputs": [],
      "stateMutability": "nonpayable",
      "type": "function"
    },
    {
      "inputs": [
        {
          "internalType": "address",
          "name": "newOwner",
          "type": "address"
        }
      ],
      "name": "transferOwnership",
      "outputs": [],
      "stateMutability": "nonpayable",
      "type": "function"
    },
    {
      "stateMutability": "payable",
      "type": "receive"
    },
    {
      "inputs": [],
      "name": "withdraw",
      "outputs": [],
      "stateMutability": "nonpayable",
      "type": "function"
    },
    {
      "inputs": [
        {
          "internalType": "string",
          "name": "name",
          "type": "string"
        }
      ],
      "name": "createMarket",
      "outputs": [
        {
          "internalType": "uint256",
          "name": "",
          "type": "uint256"
        }
      ],
      "stateMutability": "nonpayable",
      "type": "function"
    },
    {
      "inputs": [
        {
          "internalType": "uint256",
          "name": "marketId",
          "type": "uint256"
        }
      ],
      "name": "getMarketData",
      "outputs": [
        {
          "internalType": "string",
          "name": "name",
          "type": "string"
        }
      ],
      "stateMutability": "view",
      "type": "function"
    },
    {
      "inputs": [
        {
          "internalType": "uint256",
          "name": "marketId",
          "type": "uint256"
        }
      ],
      "name": "renounceMarketOwnership",
      "outputs": [],
      "stateMutability": "nonpayable",
      "type": "function"
    },
    {
      "inputs": [
        {
          "internalType": "uint256",
          "name": "marketId",
          "type": "uint256"
        },
        {
          "internalType": "address",
          "name": "newOwner",
          "type": "address"
        }
      ],
      "name": "transferMarketOwnership",
      "outputs": [],
      "stateMutability": "nonpayable",
      "type": "function"
    },
    {
      "inputs": [
        {
          "internalType": "uint256",
          "name": "marketId",
          "type": "uint256"
        }
      ],
      "name": "getMarketOwner",
      "outputs": [
        {
          "internalType": "address",
          "name": "",
          "type": "address"
        }
      ],
      "stateMutability": "view",
      "type": "function"
    },
    {
      "inputs": [
        {
          "internalType": "address",
          "name": "owner",
          "type": "address"
        }
      ],
      "name": "getMarketCounts",
      "outputs": [
        {
          "internalType": "uint256",
          "name": "",
          "type": "uint256"
        }
      ],
      "stateMutability": "view",
      "type": "function"
    },
    {
      "inputs": [
        {
          "internalType": "uint256",
          "name": "marketId",
          "type": "uint256"
        }
      ],
      "name": "isMarketOwner",
      "outputs": [
        {
          "internalType": "bool",
          "name": "",
          "type": "bool"
        }
      ],
      "stateMutability": "view",
      "type": "function"
    },
    {
      "inputs": [
        {
          "internalType": "uint256",
          "name": "marketId",
          "type": "uint256"
        }
      ],
      "name": "marketExist",
      "outputs": [
        {
          "internalType": "bool",
          "name": "",
          "type": "bool"
        }
      ],
      "stateMutability": "view",
      "type": "function"
    }
  ],
  "bytecode": "0x608060405260006100146100b760201b60201c565b9050806000806101000a81548173ffffffffffffffffffffffffffffffffffffffff021916908373ffffffffffffffffffffffffffffffffffffffff1602179055508073ffffffffffffffffffffffffffffffffffffffff16600073ffffffffffffffffffffffffffffffffffffffff167f8be0079c531659141344cd1fd0a4f28419497f9722a3daafe3b4186f6b6457e060405160405180910390a3506100bf565b600033905090565b61180c806100ce6000396000f3fe6080604052600436106100e15760003560e01c80638da5cb5b1161007f578063b1283e7711610059578063b1283e7714610443578063bb6b53bf146104f7578063bfacba3d1461054a578063f2fde38b146105fe576100e8565b80638da5cb5b146103585780638f32d59b146103af578063a4a12e74146103de576100e8565b806354888f55116100bb57806354888f55146101b7578063715018a6146102935780637cfc1818146102aa5780638be5270214610305576100e8565b806307309846146100ea5780633ccfd60b146101255780633d3690291461013c576100e8565b366100e857005b005b3480156100f657600080fd5b506101236004803603602081101561010d57600080fd5b810190808035906020019092919050505061064f565b005b34801561013157600080fd5b5061013a6108cc565b005b34801561014857600080fd5b506101756004803603602081101561015f57600080fd5b810190808035906020019092919050505061099c565b604051808273ffffffffffffffffffffffffffffffffffffffff1673ffffffffffffffffffffffffffffffffffffffff16815260200191505060405180910390f35b3480156101c357600080fd5b5061027d600480360360208110156101da57600080fd5b81019080803590602001906401000000008111156101f757600080fd5b82018360208201111561020957600080fd5b8035906020019184600183028401116401000000008311171561022b57600080fd5b91908080601f016020809104026020016040519081016040528093929190818152602001838380828437600081840152601f19601f820116905080830192505050505050509192919290505050610a39565b6040518082815260200191505060405180910390f35b34801561029f57600080fd5b506102a8610b92565b005b3480156102b657600080fd5b50610303600480360360408110156102cd57600080fd5b8101908080359060200190929190803573ffffffffffffffffffffffffffffffffffffffff169060200190929190505050610ccb565b005b34801561031157600080fd5b5061033e6004803603602081101561032857600080fd5b8101908080359060200190929190505050611033565b604051808215151515815260200191505060405180910390f35b34801561036457600080fd5b5061036d611044565b604051808273ffffffffffffffffffffffffffffffffffffffff1673ffffffffffffffffffffffffffffffffffffffff16815260200191505060405180910390f35b3480156103bb57600080fd5b506103c461106d565b604051808215151515815260200191505060405180910390f35b3480156103ea57600080fd5b5061042d6004803603602081101561040157600080fd5b81019080803573ffffffffffffffffffffffffffffffffffffffff1690602001909291905050506110cb565b6040518082815260200191505060405180910390f35b34801561044f57600080fd5b5061047c6004803603602081101561046657600080fd5b810190808035906020019092919050505061111b565b6040518080602001828103825283818151815260200191508051906020019080838360005b838110156104bc5780820151818401526020810190506104a1565b50505050905090810190601f1680156104e95780820380516001836020036101000a031916815260200191505b509250505060405180910390f35b34801561050357600080fd5b506105306004803603602081101561051a57600080fd5b81019080803590602001909291905050506111da565b604051808215151515815260200191505060405180910390f35b34801561055657600080fd5b506105836004803603602081101561056d57600080fd5b81019080803590602001909291905050506112a5565b6040518080602001828103825283818151815260200191508051906020019080838360005b838110156105c35780820151818401526020810190506105a8565b50505050905090810190601f1680156105f05780820380516001836020036101000a031916815260200191505b509250505060405180910390f35b34801561060a57600080fd5b5061064d6004803603602081101561062157600080fd5b81019080803573ffffffffffffffffffffffffffffffffffffffff1690602001909291905050506113c7565b005b8061065981611033565b6106cb576040517f08c379a00000000000000000000000000000000000000000000000000000000081526004018080602001828103825260158152602001807f4d61726b657420646f6573206e6f74206578697374000000000000000000000081525060200191505060405180910390fd5b3373ffffffffffffffffffffffffffffffffffffffff166002600083815260200190815260200160002060009054906101000a900473ffffffffffffffffffffffffffffffffffffffff1673ffffffffffffffffffffffffffffffffffffffff161461079f576040517f08c379a00000000000000000000000000000000000000000000000000000000081526004018080602001828103825260178152602001807f43616c6c6572206973206e6f7420746865206f776e657200000000000000000081525060200191505060405180910390fd5b600073ffffffffffffffffffffffffffffffffffffffff166002600084815260200190815260200160002060009054906101000a900473ffffffffffffffffffffffffffffffffffffffff1673ffffffffffffffffffffffffffffffffffffffff16837f2db5f9b069d085fba50688059d869a45ac805a9f56fe633ca94e0c306f25f30560405160405180910390a4610875600360003373ffffffffffffffffffffffffffffffffffffffff1673ffffffffffffffffffffffffffffffffffffffff16815260200190815260200160002061144d565b60006002600084815260200190815260200160002060006101000a81548173ffffffffffffffffffffffffffffffffffffffff021916908373ffffffffffffffffffffffffffffffffffffffff1602179055505050565b6108d461106d565b610946576040517f08c379a00000000000000000000000000000000000000000000000000000000081526004018080602001828103825260208152602001807f4f776e61626c653a2063616c6c6572206973206e6f7420746865206f776e657281525060200191505060405180910390fd5b6000610950611044565b90508073ffffffffffffffffffffffffffffffffffffffff166108fc479081150290604051600060405180830381858888f19350505050158015610998573d6000803e3d6000fd5b5050565b6000816109a881611033565b6109fd576040517f08c379a00000000000000000000000000000000000000000000000000000000081526004018080602001828103825260218152602001806117b66021913960400191505060405180910390fd5b6002600084815260200190815260200160002060009054906101000a900473ffffffffffffffffffffffffffffffffffffffff16915050919050565b60006001604051806020016040528084815250908060018154018082558091505060019003906000526020600020016000909190919091506000820151816000019080519060200190610a8d9291906116ea565b5050506000610aaa6001808054905061147090919063ffffffff16565b9050336002600083815260200190815260200160002060006101000a81548173ffffffffffffffffffffffffffffffffffffffff021916908373ffffffffffffffffffffffffffffffffffffffff160217905550610b45600360003373ffffffffffffffffffffffffffffffffffffffff1673ffffffffffffffffffffffffffffffffffffffff1681526020019081526020016000206114ba565b3373ffffffffffffffffffffffffffffffffffffffff16817fd301e501188d220cc44d05fa5ee3c14454746932c7d6598933e7fddc78bea7f060405160405180910390a380915050919050565b610b9a61106d565b610c0c576040517f08c379a00000000000000000000000000000000000000000000000000000000081526004018080602001828103825260208152602001807f4f776e61626c653a2063616c6c6572206973206e6f7420746865206f776e657281525060200191505060405180910390fd5b600073ffffffffffffffffffffffffffffffffffffffff166000809054906101000a900473ffffffffffffffffffffffffffffffffffffffff1673ffffffffffffffffffffffffffffffffffffffff167f8be0079c531659141344cd1fd0a4f28419497f9722a3daafe3b4186f6b6457e060405160405180910390a360008060006101000a81548173ffffffffffffffffffffffffffffffffffffffff021916908373ffffffffffffffffffffffffffffffffffffffff160217905550565b81610cd581611033565b610d47576040517f08c379a00000000000000000000000000000000000000000000000000000000081526004018080602001828103825260158152602001807f4d61726b657420646f6573206e6f74206578697374000000000000000000000081525060200191505060405180910390fd5b3373ffffffffffffffffffffffffffffffffffffffff166002600083815260200190815260200160002060009054906101000a900473ffffffffffffffffffffffffffffffffffffffff1673ffffffffffffffffffffffffffffffffffffffff1614610e1b576040517f08c379a00000000000000000000000000000000000000000000000000000000081526004018080602001828103825260178152602001807f43616c6c6572206973206e6f7420746865206f776e657200000000000000000081525060200191505060405180910390fd5b81600073ffffffffffffffffffffffffffffffffffffffff168173ffffffffffffffffffffffffffffffffffffffff161415610ebf576040517f08c379a00000000000000000000000000000000000000000000000000000000081526004018080602001828103825260208152602001807f436865636b4164647265737320697320746865207a65726f206164647265737381525060200191505060405180910390fd5b8273ffffffffffffffffffffffffffffffffffffffff166002600086815260200190815260200160002060009054906101000a900473ffffffffffffffffffffffffffffffffffffffff1673ffffffffffffffffffffffffffffffffffffffff16857f2db5f9b069d085fba50688059d869a45ac805a9f56fe633ca94e0c306f25f30560405160405180910390a4826002600086815260200190815260200160002060006101000a81548173ffffffffffffffffffffffffffffffffffffffff021916908373ffffffffffffffffffffffffffffffffffffffff160217905550610fe6600360003373ffffffffffffffffffffffffffffffffffffffff1673ffffffffffffffffffffffffffffffffffffffff16815260200190815260200160002061144d565b61102d600360008573ffffffffffffffffffffffffffffffffffffffff1673ffffffffffffffffffffffffffffffffffffffff1681526020019081526020016000206114ba565b50505050565b600081600180549050119050919050565b60008060009054906101000a900473ffffffffffffffffffffffffffffffffffffffff16905090565b60008060009054906101000a900473ffffffffffffffffffffffffffffffffffffffff1673ffffffffffffffffffffffffffffffffffffffff166110af6114d0565b73ffffffffffffffffffffffffffffffffffffffff1614905090565b6000611114600360008473ffffffffffffffffffffffffffffffffffffffff1673ffffffffffffffffffffffffffffffffffffffff1681526020019081526020016000206114d8565b9050919050565b6001818154811061112857fe5b90600052602060002001600091509050806000018054600181600116156101000203166002900480601f0160208091040260200160405190810160405280929190818152602001828054600181600116156101000203166002900480156111d05780601f106111a5576101008083540402835291602001916111d0565b820191906000526020600020905b8154815290600101906020018083116111b357829003601f168201915b5050505050905081565b6000816111e681611033565b61123b576040517f08c379a00000000000000000000000000000000000000000000000000000000081526004018080602001828103825260218152602001806117b66021913960400191505060405180910390fd5b3373ffffffffffffffffffffffffffffffffffffffff166002600085815260200190815260200160002060009054906101000a900473ffffffffffffffffffffffffffffffffffffffff1673ffffffffffffffffffffffffffffffffffffffff1614915050919050565b6060816112b181611033565b611306576040517f08c379a00000000000000000000000000000000000000000000000000000000081526004018080602001828103825260218152602001806117b66021913960400191505060405180910390fd5b60006001848154811061131557fe5b906000526020600020019050806000018054600181600116156101000203166002900480601f0160208091040260200160405190810160405280929190818152602001828054600181600116156101000203166002900480156113b95780601f1061138e576101008083540402835291602001916113b9565b820191906000526020600020905b81548152906001019060200180831161139c57829003601f168201915b505050505092505050919050565b6113cf61106d565b611441576040517f08c379a00000000000000000000000000000000000000000000000000000000081526004018080602001828103825260208152602001807f4f776e61626c653a2063616c6c6572206973206e6f7420746865206f776e657281525060200191505060405180910390fd5b61144a816114e6565b50565b6114656001826000015461147090919063ffffffff16565b816000018190555050565b60006114b283836040518060400160405280601e81526020017f536166654d6174683a207375627472616374696f6e206f766572666c6f77000081525061162a565b905092915050565b6001816000016000828254019250508190555050565b600033905090565b600081600001549050919050565b600073ffffffffffffffffffffffffffffffffffffffff168173ffffffffffffffffffffffffffffffffffffffff16141561156c576040517f08c379a00000000000000000000000000000000000000000000000000000000081526004018080602001828103825260268152602001806117906026913960400191505060405180910390fd5b8073ffffffffffffffffffffffffffffffffffffffff166000809054906101000a900473ffffffffffffffffffffffffffffffffffffffff1673ffffffffffffffffffffffffffffffffffffffff167f8be0079c531659141344cd1fd0a4f28419497f9722a3daafe3b4186f6b6457e060405160405180910390a3806000806101000a81548173ffffffffffffffffffffffffffffffffffffffff021916908373ffffffffffffffffffffffffffffffffffffffff16021790555050565b60008383111582906116d7576040517f08c379a00000000000000000000000000000000000000000000000000000000081526004018080602001828103825283818151815260200191508051906020019080838360005b8381101561169c578082015181840152602081019050611681565b50505050905090810190601f1680156116c95780820380516001836020036101000a031916815260200191505b509250505060405180910390fd5b5060008385039050809150509392505050565b828054600181600116156101000203166002900490600052602060002090601f016020900481019282601f1061172b57805160ff1916838001178555611759565b82800160010185558215611759579182015b8281111561175857825182559160200191906001019061173d565b5b509050611766919061176a565b5090565b61178c91905b80821115611788576000816000905550600101611770565b5090565b9056fe4f776e61626c653a206e6577206f776e657220697320746865207a65726f20616464726573734d61726b6574506f6f6c3a204d61726b657420646f6573206e6f74206578697374a264697066735822122074c2757672d1f54c1a0413d791341d43c0e56c8897801ff28025ce0fc06eb51d64736f6c63430006030033",
  "source": "pragma solidity >=0.6.0;\r\n\r\nimport '@openzeppelin/contracts/math/SafeMath.sol';\r\nimport '@openzeppelin/contracts/ownership/Ownable.sol';\r\nimport \"@openzeppelin/contracts/drafts/Counters.sol\";\r\n\r\n/**\r\n * @author LordOfTheBees\r\n * @notice Workplace with Market\r\n */\r\ncontract MarketPool is Ownable {\r\n    using SafeMath for uint256;\r\n    using Counters for Counters.Counter;\r\n\r\n    event MarketCreated(uint256 indexed marketId, address indexed owner);\r\n    event MarketOwnershipTransferred(uint256 indexed marketId, address indexed previousOwner, address indexed newOwner);\r\n\r\n    struct Market {\r\n        string name;\r\n    }\r\n\r\n    //Список созданных маркетов\r\n    Market[] public markets;\r\n\r\n    // ID магазина и их владельцы\r\n    mapping (uint256 => address) marketToOwner;\r\n\r\n    mapping (address => Counters.Counter) addressToMarketCount;\r\n\r\n\r\n\r\n    receive() external payable {\r\n    }\r\n    \r\n    fallback() external payable {\r\n    }\r\n\r\n    function withdraw() external onlyOwner {\r\n        address payable _owner = payable(owner());\r\n        _owner.transfer(address(this).balance);\r\n    }\r\n\r\n\r\n\r\n\r\n    /**\r\n     * @notice Create new Market for sender.\r\n     * @param name The name of marketplace\r\n     * @return id of the created market\r\n     */\r\n    function createMarket(string memory name) public returns (uint256) {\r\n        markets.push(Market(name));\r\n        uint256 id = markets.length.sub(1);\r\n        marketToOwner[id] = msg.sender;\r\n        addressToMarketCount[msg.sender].increment();\r\n        emit MarketCreated(id, msg.sender);\r\n        return id;\r\n    }\r\n\r\n    /**\r\n     * @notice Return all data of market by its id\r\n     */\r\n    function getMarketData(uint256 marketId) public view onlyMarketExists(marketId) returns (string memory name) {\r\n        Market storage marketData = markets[marketId];\r\n        return (marketData.name);\r\n    }\r\n\r\n    /**\r\n     * @notice Renouncing ownership will leave the contract without an market owner, thereby removing any functionality that is only available to the market owner (e.g. creating new Item Types).\r\n     */\r\n    function renounceMarketOwnership(uint256 marketId) public onlyMarketOwner(marketId) {\r\n        emit MarketOwnershipTransferred(marketId, marketToOwner[marketId], address(0));\r\n        addressToMarketCount[msg.sender].decrement();\r\n        marketToOwner[marketId] = address(0);\r\n    }\r\n\r\n    /**\r\n     * @notice Transfers ownership of the ('marketId') to a new account (`newOwner`).\r\n     */\r\n    function transferMarketOwnership(uint256 marketId, address newOwner) public onlyMarketOwner(marketId) notZeroAddress(newOwner) {\r\n        emit MarketOwnershipTransferred(marketId, marketToOwner[marketId], newOwner);\r\n        marketToOwner[marketId] = newOwner;\r\n        addressToMarketCount[msg.sender].decrement();\r\n        addressToMarketCount[newOwner].increment();\r\n    }\r\n    \r\n    /**\r\n     * @notice Return addres of market owner\r\n     */\r\n    function getMarketOwner(uint256 marketId) public view onlyMarketExists(marketId) returns (address) {\r\n        return marketToOwner[marketId];\r\n    }\r\n\r\n    function getMarketCounts(address owner) public view returns (uint256) {\r\n        return addressToMarketCount[owner].current();\r\n    }\r\n    \r\n    /**\r\n     * @notice Chech if it is market owner \r\n     */\r\n    function isMarketOwner(uint256 marketId) public view onlyMarketExists(marketId) returns (bool) {\r\n        return marketToOwner[marketId] == msg.sender;\r\n    }\r\n    \r\n    /**\r\n     * @notice Check if market exist \r\n     */\r\n    function marketExist(uint256 marketId) public view returns (bool) {\r\n        return markets.length > marketId;\r\n    }\r\n\r\n\r\n    modifier notZeroAddress(address checkAddress) {\r\n        require(checkAddress != address(0), \"CheckAddress is the zero address\");\r\n        _;\r\n    }\r\n\r\n    modifier onlyMarketExists(uint256 marketId) {\r\n        require(marketExist(marketId), \"MarketPool: Market does not exist\");\r\n        _;\r\n    }\r\n\r\n    modifier onlyMarketOwner(uint256 marketId) {\r\n        require(marketExist(marketId), \"Market does not exist\");\r\n        require(marketToOwner[marketId] == msg.sender, \"Caller is not the owner\");\r\n        _;\r\n    }\r\n}\r\n",
  "sourcePath": "E:\\MeineArbeit\\Solidity\\market-pool\\contracts\\MarketPool.sol",
  "compiler": {
    "name": "solc",
    "version": "0.6.3+commit.8dda9521.Emscripten.clang"
  },
  "schemaVersion": "3.0.23",
  "updatedAt": "2020-04-23T07:34:11.695Z",
  "devdoc": {
    "author": "LordOfTheBees",
    "methods": {
      "createMarket(string)": {
        "params": {
          "name": "The name of marketplace"
        },
        "returns": {
          "_0": "id of the created market"
        }
      },
      "isOwner()": {
        "details": "Returns true if the caller is the current owner."
      },
      "owner()": {
        "details": "Returns the address of the current owner."
      },
      "renounceOwnership()": {
        "details": "Leaves the contract without owner. It will not be possible to call `onlyOwner` functions anymore. Can only be called by the current owner.     * NOTE: Renouncing ownership will leave the contract without an owner, thereby removing any functionality that is only available to the owner."
      },
      "transferOwnership(address)": {
        "details": "Transfers ownership of the contract to a new account (`newOwner`). Can only be called by the current owner."
      }
    }
  },
  "userdoc": {
    "methods": {
      "createMarket(string)": {
        "notice": "Create new Market for sender."
      },
      "getMarketData(uint256)": {
        "notice": "Return all data of market by its id"
      },
      "getMarketOwner(uint256)": {
        "notice": "Return addres of market owner"
      },
      "isMarketOwner(uint256)": {
        "notice": "Chech if it is market owner "
      },
      "marketExist(uint256)": {
        "notice": "Check if market exist "
      },
      "renounceMarketOwnership(uint256)": {
        "notice": "Renouncing ownership will leave the contract without an market owner, thereby removing any functionality that is only available to the market owner (e.g. creating new Item Types)."
      },
      "transferMarketOwnership(uint256,address)": {
        "notice": "Transfers ownership of the ('marketId') to a new account (`newOwner`)."
      }
    },
    "notice": "Workplace with Market"
  }
}