{
  "contractName": "MarketPool_Items",
  "abi": [
    {
      "anonymous": false,
      "inputs": [
        {
          "indexed": true,
          "internalType": "uint256",
          "name": "marketId",
          "type": "uint256"
        },
        {
          "indexed": true,
          "internalType": "uint256",
          "name": "itemTypeId",
          "type": "uint256"
        },
        {
          "indexed": true,
          "internalType": "uint256",
          "name": "itemId",
          "type": "uint256"
        }
      ],
      "name": "ItemCreated",
      "type": "event"
    },
    {
      "anonymous": false,
      "inputs": [
        {
          "indexed": true,
          "internalType": "uint256",
          "name": "marketId",
          "type": "uint256"
        },
        {
          "indexed": false,
          "internalType": "uint256",
          "name": "itemId",
          "type": "uint256"
        },
        {
          "indexed": true,
          "internalType": "address",
          "name": "previousOwner",
          "type": "address"
        },
        {
          "indexed": true,
          "internalType": "address",
          "name": "newOwner",
          "type": "address"
        }
      ],
      "name": "ItemOwnershipTransferred",
      "type": "event"
    },
    {
      "anonymous": false,
      "inputs": [
        {
          "indexed": true,
          "internalType": "uint256",
          "name": "marketId",
          "type": "uint256"
        },
        {
          "indexed": true,
          "internalType": "uint256",
          "name": "itemTypeId",
          "type": "uint256"
        }
      ],
      "name": "ItemTypeCreated",
      "type": "event"
    },
    {
      "anonymous": false,
      "inputs": [
        {
          "indexed": true,
          "internalType": "uint256",
          "name": "marketId",
          "type": "uint256"
        }
      ],
      "name": "MarketCreated",
      "type": "event"
    },
    {
      "anonymous": false,
      "inputs": [
        {
          "indexed": true,
          "internalType": "uint256",
          "name": "marketId",
          "type": "uint256"
        },
        {
          "indexed": true,
          "internalType": "address",
          "name": "previousOwner",
          "type": "address"
        },
        {
          "indexed": true,
          "internalType": "address",
          "name": "newOwner",
          "type": "address"
        }
      ],
      "name": "MarketOwnershipTransferred",
      "type": "event"
    },
    {
      "anonymous": false,
      "inputs": [
        {
          "indexed": true,
          "internalType": "address",
          "name": "previousOwner",
          "type": "address"
        },
        {
          "indexed": true,
          "internalType": "address",
          "name": "newOwner",
          "type": "address"
        }
      ],
      "name": "OwnershipTransferred",
      "type": "event"
    },
    {
      "stateMutability": "payable",
      "type": "fallback",
      "payable": true
    },
    {
      "inputs": [
        {
          "internalType": "string",
          "name": "name",
          "type": "string"
        }
      ],
      "name": "createMarket",
      "outputs": [
        {
          "internalType": "uint256",
          "name": "",
          "type": "uint256"
        }
      ],
      "stateMutability": "nonpayable",
      "type": "function"
    },
    {
      "inputs": [
        {
          "internalType": "uint256",
          "name": "marketId",
          "type": "uint256"
        }
      ],
      "name": "getMarketData",
      "outputs": [
        {
          "internalType": "string",
          "name": "name",
          "type": "string"
        }
      ],
      "stateMutability": "view",
      "type": "function",
      "constant": true
    },
    {
      "inputs": [
        {
          "internalType": "uint256",
          "name": "marketId",
          "type": "uint256"
        }
      ],
      "name": "getMarketOwner",
      "outputs": [
        {
          "internalType": "address",
          "name": "",
          "type": "address"
        }
      ],
      "stateMutability": "view",
      "type": "function",
      "constant": true
    },
    {
      "inputs": [
        {
          "internalType": "uint256",
          "name": "marketId",
          "type": "uint256"
        }
      ],
      "name": "isMarketOwner",
      "outputs": [
        {
          "internalType": "bool",
          "name": "",
          "type": "bool"
        }
      ],
      "stateMutability": "view",
      "type": "function",
      "constant": true
    },
    {
      "inputs": [],
      "name": "isOwner",
      "outputs": [
        {
          "internalType": "bool",
          "name": "",
          "type": "bool"
        }
      ],
      "stateMutability": "view",
      "type": "function",
      "constant": true
    },
    {
      "inputs": [
        {
          "internalType": "uint256",
          "name": "marketId",
          "type": "uint256"
        }
      ],
      "name": "marketExist",
      "outputs": [
        {
          "internalType": "bool",
          "name": "",
          "type": "bool"
        }
      ],
      "stateMutability": "view",
      "type": "function",
      "constant": true
    },
    {
      "inputs": [
        {
          "internalType": "uint256",
          "name": "",
          "type": "uint256"
        },
        {
          "internalType": "uint256",
          "name": "",
          "type": "uint256"
        }
      ],
      "name": "marketToItemToOwner",
      "outputs": [
        {
          "internalType": "address",
          "name": "",
          "type": "address"
        }
      ],
      "stateMutability": "view",
      "type": "function",
      "constant": true
    },
    {
      "inputs": [
        {
          "internalType": "uint256",
          "name": "",
          "type": "uint256"
        },
        {
          "internalType": "uint256",
          "name": "",
          "type": "uint256"
        }
      ],
      "name": "marketToItemTypes",
      "outputs": [
        {
          "internalType": "string",
          "name": "name",
          "type": "string"
        },
        {
          "internalType": "uint256",
          "name": "remainingSupply",
          "type": "uint256"
        },
        {
          "internalType": "uint256",
          "name": "totalSupply",
          "type": "uint256"
        },
        {
          "internalType": "bool",
          "name": "isFinal",
          "type": "bool"
        },
        {
          "internalType": "bool",
          "name": "allowSale",
          "type": "bool"
        },
        {
          "internalType": "bool",
          "name": "allowAuction",
          "type": "bool"
        },
        {
          "internalType": "bool",
          "name": "allowRent",
          "type": "bool"
        },
        {
          "internalType": "bool",
          "name": "allowLootbox",
          "type": "bool"
        }
      ],
      "stateMutability": "view",
      "type": "function",
      "constant": true
    },
    {
      "inputs": [
        {
          "internalType": "uint256",
          "name": "",
          "type": "uint256"
        },
        {
          "internalType": "uint256",
          "name": "",
          "type": "uint256"
        }
      ],
      "name": "marketToItems",
      "outputs": [
        {
          "internalType": "uint256",
          "name": "typeId",
          "type": "uint256"
        }
      ],
      "stateMutability": "view",
      "type": "function",
      "constant": true
    },
    {
      "inputs": [
        {
          "internalType": "uint256",
          "name": "",
          "type": "uint256"
        },
        {
          "internalType": "address",
          "name": "",
          "type": "address"
        }
      ],
      "name": "marketToUsersToItemsCount",
      "outputs": [
        {
          "internalType": "uint256",
          "name": "_value",
          "type": "uint256"
        }
      ],
      "stateMutability": "view",
      "type": "function",
      "constant": true
    },
    {
      "inputs": [
        {
          "internalType": "uint256",
          "name": "",
          "type": "uint256"
        }
      ],
      "name": "markets",
      "outputs": [
        {
          "internalType": "string",
          "name": "name",
          "type": "string"
        }
      ],
      "stateMutability": "view",
      "type": "function",
      "constant": true
    },
    {
      "inputs": [],
      "name": "owner",
      "outputs": [
        {
          "internalType": "address",
          "name": "",
          "type": "address"
        }
      ],
      "stateMutability": "view",
      "type": "function",
      "constant": true
    },
    {
      "inputs": [
        {
          "internalType": "uint256",
          "name": "marketId",
          "type": "uint256"
        }
      ],
      "name": "renounceMarketOwnership",
      "outputs": [],
      "stateMutability": "nonpayable",
      "type": "function"
    },
    {
      "inputs": [],
      "name": "renounceOwnership",
      "outputs": [],
      "stateMutability": "nonpayable",
      "type": "function"
    },
    {
      "inputs": [
        {
          "internalType": "uint256",
          "name": "marketId",
          "type": "uint256"
        },
        {
          "internalType": "address",
          "name": "newOwner",
          "type": "address"
        }
      ],
      "name": "transferMarketOwnership",
      "outputs": [],
      "stateMutability": "nonpayable",
      "type": "function"
    },
    {
      "inputs": [
        {
          "internalType": "address",
          "name": "newOwner",
          "type": "address"
        }
      ],
      "name": "transferOwnership",
      "outputs": [],
      "stateMutability": "nonpayable",
      "type": "function"
    },
    {
      "inputs": [],
      "name": "withdraw",
      "outputs": [],
      "stateMutability": "nonpayable",
      "type": "function"
    },
    {
      "stateMutability": "payable",
      "type": "receive",
      "payable": true
    },
    {
      "inputs": [
        {
          "internalType": "uint256",
          "name": "marketId",
          "type": "uint256"
        },
        {
          "internalType": "string",
          "name": "name",
          "type": "string"
        },
        {
          "internalType": "uint256",
          "name": "totalSupply",
          "type": "uint256"
        },
        {
          "internalType": "bool",
          "name": "allowSale",
          "type": "bool"
        },
        {
          "internalType": "bool",
          "name": "allowAuction",
          "type": "bool"
        },
        {
          "internalType": "bool",
          "name": "allowRent",
          "type": "bool"
        },
        {
          "internalType": "bool",
          "name": "allowLootbox",
          "type": "bool"
        }
      ],
      "name": "createItemType",
      "outputs": [
        {
          "internalType": "uint256",
          "name": "",
          "type": "uint256"
        }
      ],
      "stateMutability": "nonpayable",
      "type": "function"
    },
    {
      "inputs": [
        {
          "internalType": "uint256",
          "name": "marketId",
          "type": "uint256"
        },
        {
          "internalType": "uint256",
          "name": "typeId",
          "type": "uint256"
        }
      ],
      "name": "createItem",
      "outputs": [
        {
          "internalType": "uint256",
          "name": "",
          "type": "uint256"
        }
      ],
      "stateMutability": "nonpayable",
      "type": "function"
    },
    {
      "inputs": [
        {
          "internalType": "uint256",
          "name": "marketId",
          "type": "uint256"
        },
        {
          "internalType": "uint256",
          "name": "itemId",
          "type": "uint256"
        },
        {
          "internalType": "address",
          "name": "to",
          "type": "address"
        }
      ],
      "name": "transferItemOwnership",
      "outputs": [],
      "stateMutability": "nonpayable",
      "type": "function"
    },
    {
      "inputs": [
        {
          "internalType": "uint256",
          "name": "marketId",
          "type": "uint256"
        },
        {
          "internalType": "uint256",
          "name": "typeId",
          "type": "uint256"
        }
      ],
      "name": "getItemTypeData",
      "outputs": [
        {
          "internalType": "string",
          "name": "name",
          "type": "string"
        },
        {
          "internalType": "uint256",
          "name": "remainingSupply",
          "type": "uint256"
        },
        {
          "internalType": "uint256",
          "name": "totalSupply",
          "type": "uint256"
        },
        {
          "internalType": "bool",
          "name": "isFinal",
          "type": "bool"
        },
        {
          "internalType": "bool",
          "name": "allowSale",
          "type": "bool"
        },
        {
          "internalType": "bool",
          "name": "allowAuction",
          "type": "bool"
        },
        {
          "internalType": "bool",
          "name": "allowRent",
          "type": "bool"
        },
        {
          "internalType": "bool",
          "name": "allowLootbox",
          "type": "bool"
        }
      ],
      "stateMutability": "view",
      "type": "function",
      "constant": true
    },
    {
      "inputs": [
        {
          "internalType": "uint256",
          "name": "marketId",
          "type": "uint256"
        },
        {
          "internalType": "uint256",
          "name": "itemId",
          "type": "uint256"
        }
      ],
      "name": "getItemData",
      "outputs": [
        {
          "internalType": "uint256",
          "name": "itemTypeId",
          "type": "uint256"
        }
      ],
      "stateMutability": "view",
      "type": "function",
      "constant": true
    },
    {
      "inputs": [
        {
          "internalType": "uint256",
          "name": "marketId",
          "type": "uint256"
        },
        {
          "internalType": "address",
          "name": "itemsOwner",
          "type": "address"
        }
      ],
      "name": "balanceOfItems",
      "outputs": [
        {
          "internalType": "uint256",
          "name": "",
          "type": "uint256"
        }
      ],
      "stateMutability": "view",
      "type": "function",
      "constant": true
    },
    {
      "inputs": [
        {
          "internalType": "uint256",
          "name": "marketId",
          "type": "uint256"
        },
        {
          "internalType": "uint256",
          "name": "itemId",
          "type": "uint256"
        }
      ],
      "name": "getItemOwner",
      "outputs": [
        {
          "internalType": "address",
          "name": "",
          "type": "address"
        }
      ],
      "stateMutability": "view",
      "type": "function",
      "constant": true
    },
    {
      "inputs": [
        {
          "internalType": "uint256",
          "name": "marketId",
          "type": "uint256"
        },
        {
          "internalType": "uint256",
          "name": "itemId",
          "type": "uint256"
        }
      ],
      "name": "isItemOwner",
      "outputs": [
        {
          "internalType": "bool",
          "name": "",
          "type": "bool"
        }
      ],
      "stateMutability": "view",
      "type": "function",
      "constant": true
    },
    {
      "inputs": [
        {
          "internalType": "uint256",
          "name": "marketId",
          "type": "uint256"
        },
        {
          "internalType": "uint256",
          "name": "typeId",
          "type": "uint256"
        }
      ],
      "name": "itemTypeExist",
      "outputs": [
        {
          "internalType": "bool",
          "name": "",
          "type": "bool"
        }
      ],
      "stateMutability": "view",
      "type": "function",
      "constant": true
    },
    {
      "inputs": [
        {
          "internalType": "uint256",
          "name": "marketId",
          "type": "uint256"
        },
        {
          "internalType": "uint256",
          "name": "itemId",
          "type": "uint256"
        }
      ],
      "name": "itemExist",
      "outputs": [
        {
          "internalType": "bool",
          "name": "",
          "type": "bool"
        }
      ],
      "stateMutability": "view",
      "type": "function",
      "constant": true
    }
  ],
  "bytecode": "0x608060405260006100146100b760201b60201c565b9050806000806101000a81548173ffffffffffffffffffffffffffffffffffffffff021916908373ffffffffffffffffffffffffffffffffffffffff1602179055508073ffffffffffffffffffffffffffffffffffffffff16600073ffffffffffffffffffffffffffffffffffffffff167f8be0079c531659141344cd1fd0a4f28419497f9722a3daafe3b4186f6b6457e060405160405180910390a3506100bf565b600033905090565b61352680620000cf6000396000f3fe6080604052600436106101a05760003560e01c80638be52702116100ec578063bb6b53bf1161008a578063f2fde38b11610064578063f2fde38b14610c5e578063f373f04814610caf578063fc3ff78014610d08578063fcc08cd414610d77576101a7565b8063bb6b53bf14610a79578063bfacba3d14610acc578063cf30f56f14610b80576101a7565b8063a84fc485116100c6578063a84fc4851461080c578063ad661efe14610869578063adae08dd1461096c578063b1283e77146109c5576101a7565b80638be52702146107335780638da5cb5b146107865780638f32d59b146107dd576101a7565b806354888f5511610159578063715018a611610133578063715018a6146105e35780637cfc1818146105fa5780638a4021bd146106555780638bce7c30146106ae576101a7565b806354888f551461043b57806363a24411146105175780636e7c170514610586576101a7565b806307309846146101a957806316090962146101e4578063380cb76e146102415780633b64a7b7146103445780633ccfd60b146103a95780633d369029146103c0576101a7565b366101a757005b005b3480156101b557600080fd5b506101e2600480360360208110156101cc57600080fd5b8101908080359060200190929190505050610dfc565b005b3480156101f057600080fd5b506102276004803603604081101561020757600080fd5b810190808035906020019092919080359060200190929190505050611032565b604051808215151515815260200191505060405180910390f35b34801561024d57600080fd5b506102846004803603604081101561026457600080fd5b810190808035906020019092919080359060200190929190505050611066565b6040518080602001898152602001888152602001871515151581526020018615151515815260200185151515158152602001841515151581526020018315151515815260200182810382528a818151815260200191508051906020019080838360005b838110156103025780820151818401526020810190506102e7565b50505050905090810190601f16801561032f5780820380516001836020036101000a031916815260200191505b50995050505050505050505060405180910390f35b34801561035057600080fd5b506103a76004803603606081101561036757600080fd5b810190808035906020019092919080359060200190929190803573ffffffffffffffffffffffffffffffffffffffff16906020019092919050505061129e565b005b3480156103b557600080fd5b506103be61147f565b005b3480156103cc57600080fd5b506103f9600480360360208110156103e357600080fd5b810190808035906020019092919050505061154f565b604051808273ffffffffffffffffffffffffffffffffffffffff1673ffffffffffffffffffffffffffffffffffffffff16815260200191505060405180910390f35b34801561044757600080fd5b506105016004803603602081101561045e57600080fd5b810190808035906020019064010000000081111561047b57600080fd5b82018360208201111561048d57600080fd5b803590602001918460018302840111640100000000831117156104af57600080fd5b91908080601f016020809104026020016040519081016040528093929190818152602001838380828437600081840152601f19601f8201169050808301925050505050505091929192905050506115ea565b6040518082815260200191505060405180910390f35b34801561052357600080fd5b506105706004803603604081101561053a57600080fd5b8101908080359060200190929190803573ffffffffffffffffffffffffffffffffffffffff1690602001909291905050506116e5565b6040518082815260200191505060405180910390f35b34801561059257600080fd5b506105c9600480360360408110156105a957600080fd5b810190808035906020019092919080359060200190929190505050611710565b604051808215151515815260200191505060405180910390f35b3480156105ef57600080fd5b506105f8611744565b005b34801561060657600080fd5b506106536004803603604081101561061d57600080fd5b8101908080359060200190929190803573ffffffffffffffffffffffffffffffffffffffff16906020019092919050505061187d565b005b34801561066157600080fd5b506106986004803603604081101561067857600080fd5b810190808035906020019092919080359060200190929190505050611b57565b6040518082815260200191505060405180910390f35b3480156106ba57600080fd5b506106f1600480360360408110156106d157600080fd5b810190808035906020019092919080359060200190929190505050611b8b565b604051808273ffffffffffffffffffffffffffffffffffffffff1673ffffffffffffffffffffffffffffffffffffffff16815260200191505060405180910390f35b34801561073f57600080fd5b5061076c6004803603602081101561075657600080fd5b8101908080359060200190929190505050611bcd565b604051808215151515815260200191505060405180910390f35b34801561079257600080fd5b5061079b611bde565b604051808273ffffffffffffffffffffffffffffffffffffffff1673ffffffffffffffffffffffffffffffffffffffff16815260200191505060405180910390f35b3480156107e957600080fd5b506107f2611c07565b604051808215151515815260200191505060405180910390f35b34801561081857600080fd5b5061084f6004803603604081101561082f57600080fd5b810190808035906020019092919080359060200190929190505050611c65565b604051808215151515815260200191505060405180910390f35b34801561087557600080fd5b506108ac6004803603604081101561088c57600080fd5b810190808035906020019092919080359060200190929190505050611d41565b6040518080602001898152602001888152602001871515151581526020018615151515815260200185151515158152602001841515151581526020018315151515815260200182810382528a818151815260200191508051906020019080838360005b8381101561092a57808201518184015260208101905061090f565b50505050905090810190601f1680156109575780820380516001836020036101000a031916815260200191505b50995050505050505050505060405180910390f35b34801561097857600080fd5b506109af6004803603604081101561098f57600080fd5b810190808035906020019092919080359060200190929190505050611e7c565b6040518082815260200191505060405180910390f35b3480156109d157600080fd5b506109fe600480360360208110156109e857600080fd5b8101908080359060200190929190505050612045565b6040518080602001828103825283818151815260200191508051906020019080838360005b83811015610a3e578082015181840152602081019050610a23565b50505050905090810190601f168015610a6b5780820380516001836020036101000a031916815260200191505b509250505060405180910390f35b348015610a8557600080fd5b50610ab260048036036020811015610a9c57600080fd5b8101908080359060200190929190505050612104565b604051808215151515815260200191505060405180910390f35b348015610ad857600080fd5b50610b0560048036036020811015610aef57600080fd5b81019080803590602001909291905050506121cd565b6040518080602001828103825283818151815260200191508051906020019080838360005b83811015610b45578082015181840152602081019050610b2a565b50505050905090810190601f168015610b725780820380516001836020036101000a031916815260200191505b509250505060405180910390f35b348015610b8c57600080fd5b50610c48600480360360e0811015610ba357600080fd5b810190808035906020019092919080359060200190640100000000811115610bca57600080fd5b820183602082011115610bdc57600080fd5b80359060200191846001830284011164010000000083111715610bfe57600080fd5b9091929391929390803590602001909291908035151590602001909291908035151590602001909291908035151590602001909291908035151590602001909291905050506122ed565b6040518082815260200191505060405180910390f35b348015610c6a57600080fd5b50610cad60048036036020811015610c8157600080fd5b81019080803573ffffffffffffffffffffffffffffffffffffffff169060200190929190505050612646565b005b348015610cbb57600080fd5b50610cf260048036036040811015610cd257600080fd5b8101908080359060200190929190803590602001909291905050506126cc565b6040518082815260200191505060405180910390f35b348015610d1457600080fd5b50610d6160048036036040811015610d2b57600080fd5b8101908080359060200190929190803573ffffffffffffffffffffffffffffffffffffffff169060200190929190505050612786565b6040518082815260200191505060405180910390f35b348015610d8357600080fd5b50610dba60048036036040811015610d9a57600080fd5b8101908080359060200190929190803590602001909291905050506128cb565b604051808273ffffffffffffffffffffffffffffffffffffffff1673ffffffffffffffffffffffffffffffffffffffff16815260200191505060405180910390f35b80610e0681611bcd565b610e78576040517f08c379a00000000000000000000000000000000000000000000000000000000081526004018080602001828103825260158152602001807f4d61726b657420646f6573206e6f74206578697374000000000000000000000081525060200191505060405180910390fd5b3373ffffffffffffffffffffffffffffffffffffffff166002600083815260200190815260200160002060009054906101000a900473ffffffffffffffffffffffffffffffffffffffff1673ffffffffffffffffffffffffffffffffffffffff1614610f4c576040517f08c379a00000000000000000000000000000000000000000000000000000000081526004018080602001828103825260178152602001807f43616c6c6572206973206e6f7420746865206f776e657200000000000000000081525060200191505060405180910390fd5b600073ffffffffffffffffffffffffffffffffffffffff166002600084815260200190815260200160002060009054906101000a900473ffffffffffffffffffffffffffffffffffffffff1673ffffffffffffffffffffffffffffffffffffffff16837f2db5f9b069d085fba50688059d869a45ac805a9f56fe633ca94e0c306f25f30560405160405180910390a460006002600084815260200190815260200160002060006101000a81548173ffffffffffffffffffffffffffffffffffffffff021916908373ffffffffffffffffffffffffffffffffffffffff1602179055505050565b600061103d83611bcd565b801561105e5750816003600085815260200190815260200160002080549050115b905092915050565b60606000806000806000806000898961107f8282611032565b6110d4576040517f08c379a000000000000000000000000000000000000000000000000000000000815260040180806020018281038252602a8152602001806133f9602a913960400191505060405180910390fd5b6110dc613262565b600360008e81526020019081526020016000208c815481106110fa57fe5b906000526020600020906004020160405180610100016040529081600082018054600181600116156101000203166002900480601f0160208091040260200160405190810160405280929190818152602001828054600181600116156101000203166002900480156111ad5780601f10611182576101008083540402835291602001916111ad565b820191906000526020600020905b81548152906001019060200180831161119057829003601f168201915b5050505050815260200160018201548152602001600282015481526020016003820160009054906101000a900460ff161515151581526020016003820160019054906101000a900460ff161515151581526020016003820160029054906101000a900460ff161515151581526020016003820160039054906101000a900460ff161515151581526020016003820160049054906101000a900460ff1615151515815250509050806000015181602001518260400151836060015184608001518560a001518660c001518760e001518797509a509a509a509a509a509a509a509a505050509295985092959890939650565b82826112aa8282611710565b6112ff576040517f08c379a00000000000000000000000000000000000000000000000000000000081526004018080602001828103825260258152602001806134986025913960400191505060405180910390fd5b3373ffffffffffffffffffffffffffffffffffffffff1660066000848152602001908152602001600020600083815260200190815260200160002060009054906101000a900473ffffffffffffffffffffffffffffffffffffffff1673ffffffffffffffffffffffffffffffffffffffff16146113c7576040517f08c379a00000000000000000000000000000000000000000000000000000000081526004018080602001828103825260218152602001806133b76021913960400191505060405180910390fd5b82600073ffffffffffffffffffffffffffffffffffffffff168173ffffffffffffffffffffffffffffffffffffffff16141561146b576040517f08c379a00000000000000000000000000000000000000000000000000000000081526004018080602001828103825260208152602001807f436865636b4164647265737320697320746865207a65726f206164647265737381525060200191505060405180910390fd5b61147786863387612979565b505050505050565b611487611c07565b6114f9576040517f08c379a00000000000000000000000000000000000000000000000000000000081526004018080602001828103825260208152602001807f4f776e61626c653a2063616c6c6572206973206e6f7420746865206f776e657281525060200191505060405180910390fd5b6000611503611bde565b90508073ffffffffffffffffffffffffffffffffffffffff166108fc479081150290604051600060405180830381858888f1935050505015801561154b573d6000803e3d6000fd5b5050565b600061155a82611bcd565b6115af576040517f08c379a00000000000000000000000000000000000000000000000000000000081526004018080602001828103825260218152602001806133d86021913960400191505060405180910390fd5b6002600083815260200190815260200160002060009054906101000a900473ffffffffffffffffffffffffffffffffffffffff169050919050565b6000600160405180602001604052808481525090806001815401808255809150506001900390600052602060002001600090919091909150600082015181600001908051906020019061163e9291906132b1565b505050600061165b60018080549050612d4990919063ffffffff16565b9050336002600083815260200190815260200160002060006101000a81548173ffffffffffffffffffffffffffffffffffffffff021916908373ffffffffffffffffffffffffffffffffffffffff160217905550807f25b2eff8f9cbb97c6c73adf7d94f4f8956260becc65ab075709db7561914a2b160405160405180910390a280915050919050565b6005602052816000526040600020602052806000526040600020600091509150508060000154905081565b600061171b83611bcd565b801561173c5750816004600085815260200190815260200160002080549050115b905092915050565b61174c611c07565b6117be576040517f08c379a00000000000000000000000000000000000000000000000000000000081526004018080602001828103825260208152602001807f4f776e61626c653a2063616c6c6572206973206e6f7420746865206f776e657281525060200191505060405180910390fd5b600073ffffffffffffffffffffffffffffffffffffffff166000809054906101000a900473ffffffffffffffffffffffffffffffffffffffff1673ffffffffffffffffffffffffffffffffffffffff167f8be0079c531659141344cd1fd0a4f28419497f9722a3daafe3b4186f6b6457e060405160405180910390a360008060006101000a81548173ffffffffffffffffffffffffffffffffffffffff021916908373ffffffffffffffffffffffffffffffffffffffff160217905550565b8161188781611bcd565b6118f9576040517f08c379a00000000000000000000000000000000000000000000000000000000081526004018080602001828103825260158152602001807f4d61726b657420646f6573206e6f74206578697374000000000000000000000081525060200191505060405180910390fd5b3373ffffffffffffffffffffffffffffffffffffffff166002600083815260200190815260200160002060009054906101000a900473ffffffffffffffffffffffffffffffffffffffff1673ffffffffffffffffffffffffffffffffffffffff16146119cd576040517f08c379a00000000000000000000000000000000000000000000000000000000081526004018080602001828103825260178152602001807f43616c6c6572206973206e6f7420746865206f776e657200000000000000000081525060200191505060405180910390fd5b81600073ffffffffffffffffffffffffffffffffffffffff168173ffffffffffffffffffffffffffffffffffffffff161415611a71576040517f08c379a00000000000000000000000000000000000000000000000000000000081526004018080602001828103825260208152602001807f436865636b4164647265737320697320746865207a65726f206164647265737381525060200191505060405180910390fd5b8273ffffffffffffffffffffffffffffffffffffffff166002600086815260200190815260200160002060009054906101000a900473ffffffffffffffffffffffffffffffffffffffff1673ffffffffffffffffffffffffffffffffffffffff16857f2db5f9b069d085fba50688059d869a45ac805a9f56fe633ca94e0c306f25f30560405160405180910390a4826002600086815260200190815260200160002060006101000a81548173ffffffffffffffffffffffffffffffffffffffff021916908373ffffffffffffffffffffffffffffffffffffffff16021790555050505050565b60046020528160005260406000208181548110611b7057fe5b90600052602060002001600091509150508060000154905081565b60066020528160005260406000206020528060005260406000206000915091509054906101000a900473ffffffffffffffffffffffffffffffffffffffff1681565b600081600180549050119050919050565b60008060009054906101000a900473ffffffffffffffffffffffffffffffffffffffff16905090565b60008060009054906101000a900473ffffffffffffffffffffffffffffffffffffffff1673ffffffffffffffffffffffffffffffffffffffff16611c49612d93565b73ffffffffffffffffffffffffffffffffffffffff1614905090565b6000611c718383611710565b611cc6576040517f08c379a00000000000000000000000000000000000000000000000000000000081526004018080602001828103825260258152602001806134986025913960400191505060405180910390fd5b3373ffffffffffffffffffffffffffffffffffffffff1660066000858152602001908152602001600020600084815260200190815260200160002060009054906101000a900473ffffffffffffffffffffffffffffffffffffffff1673ffffffffffffffffffffffffffffffffffffffff1614905092915050565b60036020528160005260406000208181548110611d5a57fe5b906000526020600020906004020160009150915050806000018054600181600116156101000203166002900480601f016020809104026020016040519081016040528092919081815260200182805460018160011615610100020316600290048015611e075780601f10611ddc57610100808354040283529160200191611e07565b820191906000526020600020905b815481529060010190602001808311611dea57829003601f168201915b5050505050908060010154908060020154908060030160009054906101000a900460ff16908060030160019054906101000a900460ff16908060030160029054906101000a900460ff16908060030160039054906101000a900460ff16908060030160049054906101000a900460ff16905088565b600082611e8881611bcd565b611efa576040517f08c379a00000000000000000000000000000000000000000000000000000000081526004018080602001828103825260158152602001807f4d61726b657420646f6573206e6f74206578697374000000000000000000000081525060200191505060405180910390fd5b3373ffffffffffffffffffffffffffffffffffffffff166002600083815260200190815260200160002060009054906101000a900473ffffffffffffffffffffffffffffffffffffffff1673ffffffffffffffffffffffffffffffffffffffff1614611fce576040517f08c379a00000000000000000000000000000000000000000000000000000000081526004018080602001828103825260178152602001807f43616c6c6572206973206e6f7420746865206f776e657200000000000000000081525060200191505060405180910390fd5b8383611fda8282611032565b61202f576040517f08c379a000000000000000000000000000000000000000000000000000000000815260040180806020018281038252602a8152602001806133f9602a913960400191505060405180910390fd5b61203a868633612d9b565b935050505092915050565b6001818154811061205257fe5b90600052602060002001600091509050806000018054600181600116156101000203166002900480601f0160208091040260200160405190810160405280929190818152602001828054600181600116156101000203166002900480156120fa5780601f106120cf576101008083540402835291602001916120fa565b820191906000526020600020905b8154815290600101906020018083116120dd57829003601f168201915b5050505050905081565b600061210f82611bcd565b612164576040517f08c379a00000000000000000000000000000000000000000000000000000000081526004018080602001828103825260218152602001806133d86021913960400191505060405180910390fd5b3373ffffffffffffffffffffffffffffffffffffffff166002600084815260200190815260200160002060009054906101000a900473ffffffffffffffffffffffffffffffffffffffff1673ffffffffffffffffffffffffffffffffffffffff16149050919050565b60606121d882611bcd565b61222d576040517f08c379a00000000000000000000000000000000000000000000000000000000081526004018080602001828103825260218152602001806133d86021913960400191505060405180910390fd5b60006001838154811061223c57fe5b906000526020600020019050806000018054600181600116156101000203166002900480601f0160208091040260200160405190810160405280929190818152602001828054600181600116156101000203166002900480156122e05780601f106122b5576101008083540402835291602001916122e0565b820191906000526020600020905b8154815290600101906020018083116122c357829003601f168201915b5050505050915050919050565b6000886122f981611bcd565b61236b576040517f08c379a00000000000000000000000000000000000000000000000000000000081526004018080602001828103825260158152602001807f4d61726b657420646f6573206e6f74206578697374000000000000000000000081525060200191505060405180910390fd5b3373ffffffffffffffffffffffffffffffffffffffff166002600083815260200190815260200160002060009054906101000a900473ffffffffffffffffffffffffffffffffffffffff1673ffffffffffffffffffffffffffffffffffffffff161461243f576040517f08c379a00000000000000000000000000000000000000000000000000000000081526004018080602001828103825260178152602001807f43616c6c6572206973206e6f7420746865206f776e657200000000000000000081525060200191505060405180910390fd5b600360008b81526020019081526020016000206040518061010001604052808b8b8080601f016020809104026020016040519081016040528093929190818152602001838380828437600081840152601f19601f82011690508083019250505050505050815260200189815260200189815260200160008a1115158152602001881515815260200187151581526020018615158152602001851515815250908060018154018082558091505060019003906000526020600020906004020160009091909190915060008201518160000190805190602001906125229291906132b1565b50602082015181600101556040820151816002015560608201518160030160006101000a81548160ff02191690831515021790555060808201518160030160016101000a81548160ff02191690831515021790555060a08201518160030160026101000a81548160ff02191690831515021790555060c08201518160030160036101000a81548160ff02191690831515021790555060e08201518160030160046101000a81548160ff021916908315150217905550505060006126056001600360008e815260200190815260200160002080549050612d4990919063ffffffff16565b9050808b7f7934e0f5d948c4a79a3febe9190e48f7c9017e7655c1f47105f8478ef984102a60405160405180910390a3809250505098975050505050505050565b61264e611c07565b6126c0576040517f08c379a00000000000000000000000000000000000000000000000000000000081526004018080602001828103825260208152602001807f4f776e61626c653a2063616c6c6572206973206e6f7420746865206f776e657281525060200191505060405180910390fd5b6126c981612faa565b50565b600082826126da8282611710565b61272f576040517f08c379a00000000000000000000000000000000000000000000000000000000081526004018080602001828103825260258152602001806134986025913960400191505060405180910390fd5b612737613331565b60046000878152602001908152602001600020858154811061275557fe5b9060005260206000200160405180602001604052908160008201548152505090508060000151935050505092915050565b60008073ffffffffffffffffffffffffffffffffffffffff168273ffffffffffffffffffffffffffffffffffffffff16141561280d576040517f08c379a00000000000000000000000000000000000000000000000000000000081526004018080602001828103825260428152602001806134236042913960600191505060405180910390fd5b61281683611bcd565b61286b576040517f08c379a000000000000000000000000000000000000000000000000000000000815260040180806020018281038252602781526020018061336a6027913960400191505060405180910390fd5b6128c36005600085815260200190815260200160002060008473ffffffffffffffffffffffffffffffffffffffff1673ffffffffffffffffffffffffffffffffffffffff1681526020019081526020016000206130ee565b905092915050565b60006128d78383611710565b61292c576040517f08c379a000000000000000000000000000000000000000000000000000000000815260040180806020018281038252602a8152602001806133f9602a913960400191505060405180910390fd5b60066000848152602001908152602001600020600083815260200190815260200160002060009054906101000a900473ffffffffffffffffffffffffffffffffffffffff16905092915050565b80600073ffffffffffffffffffffffffffffffffffffffff168173ffffffffffffffffffffffffffffffffffffffff161415612a1d576040517f08c379a00000000000000000000000000000000000000000000000000000000081526004018080602001828103825260208152602001807f436865636b4164647265737320697320746865207a65726f206164647265737381525060200191505060405180910390fd5b8173ffffffffffffffffffffffffffffffffffffffff168373ffffffffffffffffffffffffffffffffffffffff161415612aa2576040517f08c379a00000000000000000000000000000000000000000000000000000000081526004018080602001828103825260338152602001806134656033913960400191505060405180910390fd5b612aac8585611710565b612b01576040517f08c379a00000000000000000000000000000000000000000000000000000000081526004018080602001828103825260258152602001806134986025913960400191505060405180910390fd5b8273ffffffffffffffffffffffffffffffffffffffff1660066000878152602001908152602001600020600086815260200190815260200160002060009054906101000a900473ffffffffffffffffffffffffffffffffffffffff1673ffffffffffffffffffffffffffffffffffffffff1614612bc9576040517f08c379a00000000000000000000000000000000000000000000000000000000081526004018080602001828103825260218152602001806133b76021913960400191505060405180910390fd5b612c216005600087815260200190815260200160002060008573ffffffffffffffffffffffffffffffffffffffff1673ffffffffffffffffffffffffffffffffffffffff1681526020019081526020016000206130fc565b612c796005600087815260200190815260200160002060008473ffffffffffffffffffffffffffffffffffffffff1673ffffffffffffffffffffffffffffffffffffffff16815260200190815260200160002061311f565b8160066000878152602001908152602001600020600086815260200190815260200160002060006101000a81548173ffffffffffffffffffffffffffffffffffffffff021916908373ffffffffffffffffffffffffffffffffffffffff1602179055508173ffffffffffffffffffffffffffffffffffffffff168373ffffffffffffffffffffffffffffffffffffffff16867f297028ce8af626c92b0bd8baa9fb2ab9a78677c4a12fac9d68113eb9d27208c7876040518082815260200191505060405180910390a45050505050565b6000612d8b83836040518060400160405280601e81526020017f536166654d6174683a207375627472616374696f6e206f766572666c6f770000815250613135565b905092915050565b600033905090565b600080600360008681526020019081526020016000208481548110612dbc57fe5b90600052602060002090600402019050612dd5816131f5565b612e2a576040517f08c379a00000000000000000000000000000000000000000000000000000000081526004018080602001828103825260348152602001806134bd6034913960400191505060405180910390fd5b60046000868152602001908152602001600020604051806020016040528086815250908060018154018082558091505060019003906000526020600020016000909190919091506000820151816000015550506000612ea960016004600089815260200190815260200160002080549050612d4990919063ffffffff16565b9050612f036005600088815260200190815260200160002060008673ffffffffffffffffffffffffffffffffffffffff1673ffffffffffffffffffffffffffffffffffffffff16815260200190815260200160002061311f565b8360066000888152602001908152602001600020600083815260200190815260200160002060006101000a81548173ffffffffffffffffffffffffffffffffffffffff021916908373ffffffffffffffffffffffffffffffffffffffff160217905550612f6f82613220565b8085877fe4c069d6d656e522b253bfc665628b0926e17c426d278d9025aa33d46a53802060405160405180910390a480925050509392505050565b600073ffffffffffffffffffffffffffffffffffffffff168173ffffffffffffffffffffffffffffffffffffffff161415613030576040517f08c379a00000000000000000000000000000000000000000000000000000000081526004018080602001828103825260268152602001806133916026913960400191505060405180910390fd5b8073ffffffffffffffffffffffffffffffffffffffff166000809054906101000a900473ffffffffffffffffffffffffffffffffffffffff1673ffffffffffffffffffffffffffffffffffffffff167f8be0079c531659141344cd1fd0a4f28419497f9722a3daafe3b4186f6b6457e060405160405180910390a3806000806101000a81548173ffffffffffffffffffffffffffffffffffffffff021916908373ffffffffffffffffffffffffffffffffffffffff16021790555050565b600081600001549050919050565b61311460018260000154612d4990919063ffffffff16565b816000018190555050565b6001816000016000828254019250508190555050565b60008383111582906131e2576040517f08c379a00000000000000000000000000000000000000000000000000000000081526004018080602001828103825283818151815260200191508051906020019080838360005b838110156131a757808201518184015260208101905061318c565b50505050905090810190601f1680156131d45780820380516001836020036101000a031916815260200191505b509250505060405180910390fd5b5060008385039050809150509392505050565b60008160030160009054906101000a900460ff161580613219575060008260010154115b9050919050565b8060030160009054906101000a900460ff168015613242575060008160010154115b1561325f5761325681600101546001612d49565b81600101819055505b50565b6040518061010001604052806060815260200160008152602001600081526020016000151581526020016000151581526020016000151581526020016000151581526020016000151581525090565b828054600181600116156101000203166002900490600052602060002090601f016020900481019282601f106132f257805160ff1916838001178555613320565b82800160010185558215613320579182015b8281111561331f578251825591602001919060010190613304565b5b50905061332d9190613344565b5090565b6040518060200160405280600081525090565b61336691905b8082111561336257600081600090555060010161334a565b5090565b9056fe4d61726b6574506f6f6c5f4974656d733a204d61726b657420646f6573206e6f742065786973744f776e61626c653a206e6577206f776e657220697320746865207a65726f20616464726573734d61726b6574506f6f6c5f4974656d733a204974206973206e6f74206f776e65724d61726b6574506f6f6c3a204d61726b657420646f6573206e6f742065786973744d61726b6574506f6f6c5f4974656d733a204974656d205479706520646f6573206e6f742065786973744d61726b6574506f6f6c5f4974656d733a20417474656d707420746f20636865636b207468652062616c616e636520617420746865207a65726f20616464726573734d61726b6574506f6f6c5f4974656d733a202766726f6d27206164647265737320657175616c2027746f2720616464726573734d61726b6574506f6f6c5f4974656d733a204974656d20646f6573206e6f742065786973744d61726b6574506f6f6c5f4974656d733a2063616e6e6f742063726561746520616e206974656d206f6620746869732074797065a2646970667358221220c7e951a6b734f282589ec98c9a4cc60ec46204e4d390d12b2a0e78272c8f6b5464736f6c63430006030033",
  "source": "pragma solidity >=0.6.0;\r\n\r\nimport \"@openzeppelin/contracts/drafts/Counters.sol\";\r\nimport \"../library/Items.sol\";\r\nimport \"./MarketPool.sol\";\r\n\r\ncontract MarketPool_Items is MarketPool {\r\n    using SafeMath for uint256;\r\n    using Counters for Counters.Counter;\r\n    using Items for Items.ItemType;\r\n    using Items for Items.Item;\r\n\r\n    event ItemTypeCreated(uint256 indexed marketId, uint256 indexed itemTypeId);\r\n    event ItemCreated(\r\n        uint256 indexed marketId,\r\n        uint256 indexed itemTypeId,\r\n        uint256 indexed itemId\r\n    );\r\n    event ItemOwnershipTransferred(\r\n        uint256 indexed marketId,\r\n        uint256 itemId,\r\n        address indexed previousOwner,\r\n        address indexed newOwner\r\n    );\r\n\r\n    // ID     \r\n    mapping(uint256 => Items.ItemType[]) public marketToItemTypes;\r\n\r\n    // ID    .    .\r\n    mapping(uint256 => Items.Item[]) public marketToItems;\r\n\r\n    // ID      -    \r\n    mapping(uint256 => mapping(address => Counters.Counter)) public marketToUsersToItemsCount;\r\n\r\n    // ID   ID    \r\n    mapping(uint256 => mapping(uint256 => address)) public marketToItemToOwner;\r\n\r\n    /**\r\n     * @notice Create ItemType for selected Market.\r\n     * @return id of the created ItemType\r\n     */\r\n    function createItemType(\r\n        uint256 marketId,\r\n        string calldata name,\r\n        uint256 totalSupply,\r\n        bool allowSale,\r\n        bool allowAuction,\r\n        bool allowRent,\r\n        bool allowLootbox\r\n    ) external onlyMarketOwner(marketId) returns (uint256) {\r\n        marketToItemTypes[marketId].push(\r\n            Items.ItemType(\r\n                name,\r\n                totalSupply,\r\n                totalSupply,\r\n                totalSupply > 0,\r\n                allowSale,\r\n                allowAuction,\r\n                allowRent,\r\n                allowLootbox\r\n            )\r\n        );\r\n        uint256 itemTypeId = marketToItemTypes[marketId].length.sub(1);\r\n        emit ItemTypeCreated(marketId, itemTypeId);\r\n        return itemTypeId;\r\n    }\r\n\r\n    /**\r\n     * @notice Can call only owner. Create Item for selected Market and Type. Owner of item will be owner of market\r\n     * @return id of the created item\r\n     */\r\n    function createItem(uint256 marketId, uint256 typeId)\r\n        public\r\n        onlyMarketOwner(marketId)\r\n        onlyItemTypeExist(marketId, typeId)\r\n        returns (uint256)\r\n    {\r\n        return _createItem(marketId, typeId, msg.sender);\r\n    }\r\n\r\n    /**\r\n     * @notice Can call only item owner. Change item owner to ('to')\r\n     */\r\n    function transferItemOwnership(uint256 marketId, uint256 itemId, address to)\r\n        public\r\n        onlyItemOwner(marketId, itemId)\r\n        notZeroAddress(to)\r\n    {\r\n        _transferItemOwnership(marketId, itemId, msg.sender, to);\r\n    }\r\n\r\n\r\n\r\n\r\n    /**\r\n     * @notice Return data about item type\r\n     */\r\n    function getItemTypeData(uint256 marketId, uint256 typeId)\r\n        public\r\n        view\r\n        onlyItemTypeExist(marketId, typeId)\r\n        returns (\r\n            string memory name,\r\n            uint256 remainingSupply,\r\n            uint256 totalSupply,\r\n            bool isFinal,\r\n            bool allowSale,\r\n            bool allowAuction,\r\n            bool allowRent,\r\n            bool allowLootbox\r\n        )\r\n    {\r\n        Items.ItemType memory itemType = marketToItemTypes[marketId][typeId];\r\n        return (\r\n            itemType.name,\r\n            itemType.remainingSupply,\r\n            itemType.totalSupply,\r\n            itemType.isFinal,\r\n            itemType.allowSale,\r\n            itemType.allowAuction,\r\n            itemType.allowRent,\r\n            itemType.allowLootbox\r\n        );\r\n    }\r\n\r\n    /**\r\n     * @notice Return data about item\r\n     */\r\n    function getItemData(uint256 marketId, uint256 itemId)\r\n        public\r\n        view\r\n        onlyItemExist(marketId, itemId)\r\n        returns (uint256 itemTypeId)\r\n    {\r\n        Items.Item memory item = marketToItems[marketId][itemId];\r\n        return (item.typeId);\r\n    }\r\n\r\n    function balanceOfItems(uint256 marketId, address itemsOwner)\r\n        public\r\n        view\r\n        returns (uint256)\r\n    {\r\n        require(itemsOwner != address(0), \"MarketPool_Items: Attempt to check the balance at the zero address\");\r\n        require(marketExist(marketId), \"MarketPool_Items: Market does not exist\");\r\n\r\n        return marketToUsersToItemsCount[marketId][itemsOwner].current();\r\n    }\r\n\r\n    function getItemOwner(uint256 marketId, uint256 itemId)\r\n        public\r\n        view\r\n        returns (address)\r\n    {\r\n        require(itemExist(marketId, itemId), \"MarketPool_Items: Item Type does not exist\");\r\n\r\n        return marketToItemToOwner[marketId][itemId];\r\n    }\r\n\r\n    function isItemOwner(uint256 marketId, uint256 itemId)\r\n        public\r\n        view\r\n        returns (bool)\r\n    {\r\n        require(itemExist(marketId, itemId), \"MarketPool_Items: Item does not exist\");\r\n\r\n        return marketToItemToOwner[marketId][itemId] == msg.sender;\r\n    }\r\n\r\n    function itemTypeExist(uint256 marketId, uint256 typeId)\r\n        public\r\n        view\r\n        returns (bool)\r\n    {\r\n        return\r\n            marketExist(marketId) &&\r\n            marketToItemTypes[marketId].length > typeId;\r\n    }\r\n\r\n    function itemExist(uint256 marketId, uint256 itemId)\r\n        public\r\n        view\r\n        returns (bool)\r\n    {\r\n        return marketExist(marketId) && marketToItems[marketId].length > itemId;\r\n    }\r\n\r\n\r\n\r\n\r\n    function _transferItemOwnership(\r\n        uint256 marketId,\r\n        uint256 itemId,\r\n        address from,\r\n        address to\r\n    ) internal notZeroAddress(to) {\r\n        require(from != to, \"MarketPool_Items: 'from' address equal 'to' address\");\r\n        require(itemExist(marketId, itemId), \"MarketPool_Items: Item does not exist\");\r\n        require(marketToItemToOwner[marketId][itemId] == from, \"MarketPool_Items: It is not owner\");\r\n\r\n        marketToUsersToItemsCount[marketId][from].decrement();\r\n        marketToUsersToItemsCount[marketId][to].increment();\r\n        marketToItemToOwner[marketId][itemId] = to;\r\n\r\n        emit ItemOwnershipTransferred(marketId, itemId, from, to);\r\n    }\r\n\r\n    /**\r\n     * @dev Create Item for selected Market and Type. Owner of item will be ('itemOwner')\r\n     * @return id of the created item\r\n     */\r\n    function _createItem(uint256 marketId, uint256 typeId, address newItemOwner)\r\n        internal\r\n        returns (uint256)\r\n    {\r\n        Items.ItemType storage itemType = marketToItemTypes[marketId][typeId];\r\n        require(\r\n            itemType.creatingPossible(),\r\n            \"MarketPool_Items: cannot create an item of this type\"\r\n        );\r\n\r\n        marketToItems[marketId].push(Items.Item(typeId));\r\n        uint256 itemId = marketToItems[marketId].length.sub(1);\r\n        marketToUsersToItemsCount[marketId][newItemOwner].increment();\r\n        marketToItemToOwner[marketId][itemId] = newItemOwner;\r\n\r\n        itemType.recordItemCreated();\r\n\r\n        emit ItemCreated(marketId, typeId, itemId);\r\n        return itemId;\r\n    }\r\n\r\n\r\n\r\n\r\n\r\n    modifier onlyItemTypeExist(uint256 marketId, uint256 itemTypeId) {\r\n        require(\r\n            itemTypeExist(marketId, itemTypeId),\r\n            \"MarketPool_Items: Item Type does not exist\"\r\n        );\r\n        _;\r\n    }\r\n\r\n    modifier onlyItemExist(uint256 marketId, uint256 itemId) {\r\n        require(\r\n            itemExist(marketId, itemId),\r\n            \"MarketPool_Items: Item does not exist\"\r\n        );\r\n        _;\r\n    }\r\n\r\n    modifier onlyItemOwner(uint256 marketId, uint256 itemId) {\r\n        require(\r\n            itemExist(marketId, itemId),\r\n            \"MarketPool_Items: Item does not exist\"\r\n        );\r\n        require(\r\n            marketToItemToOwner[marketId][itemId] == msg.sender,\r\n            \"MarketPool_Items: It is not owner\"\r\n        );\r\n        _;\r\n    }\r\n}\r\n",
  "sourcePath": "E:\\MeineArbeit\\Solidity\\MarketPool\\contracts\\MarketPool_Items.sol",
  "compiler": {
    "name": "solc",
    "version": "0.6.3+commit.8dda9521.Emscripten.clang"
  },
  "schemaVersion": "3.0.23",
  "updatedAt": "2020-03-14T14:11:23.031Z",
  "networkType": "ethereum",
  "devdoc": {
    "methods": {
      "createMarket(string)": {
        "params": {
          "name": "The name of marketplace"
        },
        "returns": {
          "_0": "id of the created market"
        }
      },
      "isOwner()": {
        "details": "Returns true if the caller is the current owner."
      },
      "owner()": {
        "details": "Returns the address of the current owner."
      },
      "renounceOwnership()": {
        "details": "Leaves the contract without owner. It will not be possible to call `onlyOwner` functions anymore. Can only be called by the current owner.     * NOTE: Renouncing ownership will leave the contract without an owner, thereby removing any functionality that is only available to the owner."
      },
      "transferOwnership(address)": {
        "details": "Transfers ownership of the contract to a new account (`newOwner`). Can only be called by the current owner."
      }
    }
  },
  "userdoc": {
    "methods": {
      "createItem(uint256,uint256)": {
        "notice": "Can call only owner. Create Item for selected Market and Type. Owner of item will be owner of market"
      },
      "createItemType(uint256,string,uint256,bool,bool,bool,bool)": {
        "notice": "Create ItemType for selected Market."
      },
      "createMarket(string)": {
        "notice": "Create new Market for sender."
      },
      "getItemData(uint256,uint256)": {
        "notice": "Return data about item"
      },
      "getItemTypeData(uint256,uint256)": {
        "notice": "Return data about item type"
      },
      "getMarketData(uint256)": {
        "notice": "Return all data of market by its id"
      },
      "getMarketOwner(uint256)": {
        "notice": "Return addres of market owner"
      },
      "isMarketOwner(uint256)": {
        "notice": "Chech if it is market owner "
      },
      "marketExist(uint256)": {
        "notice": "Check if market exist "
      },
      "renounceMarketOwnership(uint256)": {
        "notice": "Renouncing ownership will leave the contract without an market owner, thereby removing any functionality that is only available to the market owner (e.g. creating new Item Types)."
      },
      "transferItemOwnership(uint256,uint256,address)": {
        "notice": "Can call only item owner. Change item owner to ('to')"
      },
      "transferMarketOwnership(uint256,address)": {
        "notice": "Transfers ownership of the ('marketId') to a new account (`newOwner`)."
      }
    }
  }
}