{
  "contractName": "MarketPool",
  "abi": [
    {
      "anonymous": false,
      "inputs": [
        {
          "indexed": true,
          "internalType": "uint256",
          "name": "marketId",
          "type": "uint256"
        }
      ],
      "name": "MarketCreated",
      "type": "event"
    },
    {
      "anonymous": false,
      "inputs": [
        {
          "indexed": true,
          "internalType": "uint256",
          "name": "marketId",
          "type": "uint256"
        },
        {
          "indexed": true,
          "internalType": "address",
          "name": "previousOwner",
          "type": "address"
        },
        {
          "indexed": true,
          "internalType": "address",
          "name": "newOwner",
          "type": "address"
        }
      ],
      "name": "MarketOwnershipTransferred",
      "type": "event"
    },
    {
      "anonymous": false,
      "inputs": [
        {
          "indexed": true,
          "internalType": "address",
          "name": "previousOwner",
          "type": "address"
        },
        {
          "indexed": true,
          "internalType": "address",
          "name": "newOwner",
          "type": "address"
        }
      ],
      "name": "OwnershipTransferred",
      "type": "event"
    },
    {
      "stateMutability": "payable",
      "type": "fallback",
      "payable": true
    },
    {
      "inputs": [],
      "name": "isOwner",
      "outputs": [
        {
          "internalType": "bool",
          "name": "",
          "type": "bool"
        }
      ],
      "stateMutability": "view",
      "type": "function",
      "constant": true
    },
    {
      "inputs": [
        {
          "internalType": "uint256",
          "name": "",
          "type": "uint256"
        }
      ],
      "name": "markets",
      "outputs": [
        {
          "internalType": "string",
          "name": "name",
          "type": "string"
        }
      ],
      "stateMutability": "view",
      "type": "function",
      "constant": true
    },
    {
      "inputs": [],
      "name": "owner",
      "outputs": [
        {
          "internalType": "address",
          "name": "",
          "type": "address"
        }
      ],
      "stateMutability": "view",
      "type": "function",
      "constant": true
    },
    {
      "inputs": [],
      "name": "renounceOwnership",
      "outputs": [],
      "stateMutability": "nonpayable",
      "type": "function"
    },
    {
      "inputs": [
        {
          "internalType": "address",
          "name": "newOwner",
          "type": "address"
        }
      ],
      "name": "transferOwnership",
      "outputs": [],
      "stateMutability": "nonpayable",
      "type": "function"
    },
    {
      "stateMutability": "payable",
      "type": "receive",
      "payable": true
    },
    {
      "inputs": [],
      "name": "withdraw",
      "outputs": [],
      "stateMutability": "nonpayable",
      "type": "function"
    },
    {
      "inputs": [
        {
          "internalType": "string",
          "name": "name",
          "type": "string"
        }
      ],
      "name": "createMarket",
      "outputs": [
        {
          "internalType": "uint256",
          "name": "",
          "type": "uint256"
        }
      ],
      "stateMutability": "nonpayable",
      "type": "function"
    },
    {
      "inputs": [
        {
          "internalType": "uint256",
          "name": "marketId",
          "type": "uint256"
        }
      ],
      "name": "getMarketData",
      "outputs": [
        {
          "internalType": "string",
          "name": "name",
          "type": "string"
        }
      ],
      "stateMutability": "view",
      "type": "function",
      "constant": true
    },
    {
      "inputs": [
        {
          "internalType": "uint256",
          "name": "marketId",
          "type": "uint256"
        }
      ],
      "name": "renounceMarketOwnership",
      "outputs": [],
      "stateMutability": "nonpayable",
      "type": "function"
    },
    {
      "inputs": [
        {
          "internalType": "uint256",
          "name": "marketId",
          "type": "uint256"
        },
        {
          "internalType": "address",
          "name": "newOwner",
          "type": "address"
        }
      ],
      "name": "transferMarketOwnership",
      "outputs": [],
      "stateMutability": "nonpayable",
      "type": "function"
    },
    {
      "inputs": [
        {
          "internalType": "uint256",
          "name": "marketId",
          "type": "uint256"
        }
      ],
      "name": "getMarketOwner",
      "outputs": [
        {
          "internalType": "address",
          "name": "",
          "type": "address"
        }
      ],
      "stateMutability": "view",
      "type": "function",
      "constant": true
    },
    {
      "inputs": [
        {
          "internalType": "uint256",
          "name": "marketId",
          "type": "uint256"
        }
      ],
      "name": "isMarketOwner",
      "outputs": [
        {
          "internalType": "bool",
          "name": "",
          "type": "bool"
        }
      ],
      "stateMutability": "view",
      "type": "function",
      "constant": true
    },
    {
      "inputs": [
        {
          "internalType": "uint256",
          "name": "marketId",
          "type": "uint256"
        }
      ],
      "name": "marketExist",
      "outputs": [
        {
          "internalType": "bool",
          "name": "",
          "type": "bool"
        }
      ],
      "stateMutability": "view",
      "type": "function",
      "constant": true
    }
  ],
  "bytecode": "0x608060405260006100146100b760201b60201c565b9050806000806101000a81548173ffffffffffffffffffffffffffffffffffffffff021916908373ffffffffffffffffffffffffffffffffffffffff1602179055508073ffffffffffffffffffffffffffffffffffffffff16600073ffffffffffffffffffffffffffffffffffffffff167f8be0079c531659141344cd1fd0a4f28419497f9722a3daafe3b4186f6b6457e060405160405180910390a3506100bf565b600033905090565b6115bc806100ce6000396000f3fe6080604052600436106100c65760003560e01c80638be527021161007f578063b1283e7711610059578063b1283e77146103c3578063bb6b53bf14610477578063bfacba3d146104ca578063f2fde38b1461057e576100cd565b80638be52702146102ea5780638da5cb5b1461033d5780638f32d59b14610394576100cd565b806307309846146100cf5780633ccfd60b1461010a5780633d3690291461012157806354888f551461019c578063715018a6146102785780637cfc18181461028f576100cd565b366100cd57005b005b3480156100db57600080fd5b50610108600480360360208110156100f257600080fd5b81019080803590602001909291905050506105cf565b005b34801561011657600080fd5b5061011f610805565b005b34801561012d57600080fd5b5061015a6004803603602081101561014457600080fd5b81019080803590602001909291905050506108d5565b604051808273ffffffffffffffffffffffffffffffffffffffff1673ffffffffffffffffffffffffffffffffffffffff16815260200191505060405180910390f35b3480156101a857600080fd5b50610262600480360360208110156101bf57600080fd5b81019080803590602001906401000000008111156101dc57600080fd5b8201836020820111156101ee57600080fd5b8035906020019184600183028401116401000000008311171561021057600080fd5b91908080601f016020809104026020016040519081016040528093929190818152602001838380828437600081840152601f19601f820116905080830192505050505050509192919290505050610970565b6040518082815260200191505060405180910390f35b34801561028457600080fd5b5061028d610a6b565b005b34801561029b57600080fd5b506102e8600480360360408110156102b257600080fd5b8101908080359060200190929190803573ffffffffffffffffffffffffffffffffffffffff169060200190929190505050610ba4565b005b3480156102f657600080fd5b506103236004803603602081101561030d57600080fd5b8101908080359060200190929190505050610e7e565b604051808215151515815260200191505060405180910390f35b34801561034957600080fd5b50610352610e8f565b604051808273ffffffffffffffffffffffffffffffffffffffff1673ffffffffffffffffffffffffffffffffffffffff16815260200191505060405180910390f35b3480156103a057600080fd5b506103a9610eb8565b604051808215151515815260200191505060405180910390f35b3480156103cf57600080fd5b506103fc600480360360208110156103e657600080fd5b8101908080359060200190929190505050610f16565b6040518080602001828103825283818151815260200191508051906020019080838360005b8381101561043c578082015181840152602081019050610421565b50505050905090810190601f1680156104695780820380516001836020036101000a031916815260200191505b509250505060405180910390f35b34801561048357600080fd5b506104b06004803603602081101561049a57600080fd5b8101908080359060200190929190505050610fd5565b604051808215151515815260200191505060405180910390f35b3480156104d657600080fd5b50610503600480360360208110156104ed57600080fd5b810190808035906020019092919050505061109e565b6040518080602001828103825283818151815260200191508051906020019080838360005b83811015610543578082015181840152602081019050610528565b50505050905090810190601f1680156105705780820380516001836020036101000a031916815260200191505b509250505060405180910390f35b34801561058a57600080fd5b506105cd600480360360208110156105a157600080fd5b81019080803573ffffffffffffffffffffffffffffffffffffffff1690602001909291905050506111be565b005b806105d981610e7e565b61064b576040517f08c379a00000000000000000000000000000000000000000000000000000000081526004018080602001828103825260158152602001807f4d61726b657420646f6573206e6f74206578697374000000000000000000000081525060200191505060405180910390fd5b3373ffffffffffffffffffffffffffffffffffffffff166002600083815260200190815260200160002060009054906101000a900473ffffffffffffffffffffffffffffffffffffffff1673ffffffffffffffffffffffffffffffffffffffff161461071f576040517f08c379a00000000000000000000000000000000000000000000000000000000081526004018080602001828103825260178152602001807f43616c6c6572206973206e6f7420746865206f776e657200000000000000000081525060200191505060405180910390fd5b600073ffffffffffffffffffffffffffffffffffffffff166002600084815260200190815260200160002060009054906101000a900473ffffffffffffffffffffffffffffffffffffffff1673ffffffffffffffffffffffffffffffffffffffff16837f2db5f9b069d085fba50688059d869a45ac805a9f56fe633ca94e0c306f25f30560405160405180910390a460006002600084815260200190815260200160002060006101000a81548173ffffffffffffffffffffffffffffffffffffffff021916908373ffffffffffffffffffffffffffffffffffffffff1602179055505050565b61080d610eb8565b61087f576040517f08c379a00000000000000000000000000000000000000000000000000000000081526004018080602001828103825260208152602001807f4f776e61626c653a2063616c6c6572206973206e6f7420746865206f776e657281525060200191505060405180910390fd5b6000610889610e8f565b90508073ffffffffffffffffffffffffffffffffffffffff166108fc479081150290604051600060405180830381858888f193505050501580156108d1573d6000803e3d6000fd5b5050565b60006108e082610e7e565b610935576040517f08c379a00000000000000000000000000000000000000000000000000000000081526004018080602001828103825260218152602001806115666021913960400191505060405180910390fd5b6002600083815260200190815260200160002060009054906101000a900473ffffffffffffffffffffffffffffffffffffffff169050919050565b600060016040518060200160405280848152509080600181540180825580915050600190039060005260206000200160009091909190915060008201518160000190805190602001906109c492919061149a565b50505060006109e16001808054905061124490919063ffffffff16565b9050336002600083815260200190815260200160002060006101000a81548173ffffffffffffffffffffffffffffffffffffffff021916908373ffffffffffffffffffffffffffffffffffffffff160217905550807f25b2eff8f9cbb97c6c73adf7d94f4f8956260becc65ab075709db7561914a2b160405160405180910390a280915050919050565b610a73610eb8565b610ae5576040517f08c379a00000000000000000000000000000000000000000000000000000000081526004018080602001828103825260208152602001807f4f776e61626c653a2063616c6c6572206973206e6f7420746865206f776e657281525060200191505060405180910390fd5b600073ffffffffffffffffffffffffffffffffffffffff166000809054906101000a900473ffffffffffffffffffffffffffffffffffffffff1673ffffffffffffffffffffffffffffffffffffffff167f8be0079c531659141344cd1fd0a4f28419497f9722a3daafe3b4186f6b6457e060405160405180910390a360008060006101000a81548173ffffffffffffffffffffffffffffffffffffffff021916908373ffffffffffffffffffffffffffffffffffffffff160217905550565b81610bae81610e7e565b610c20576040517f08c379a00000000000000000000000000000000000000000000000000000000081526004018080602001828103825260158152602001807f4d61726b657420646f6573206e6f74206578697374000000000000000000000081525060200191505060405180910390fd5b3373ffffffffffffffffffffffffffffffffffffffff166002600083815260200190815260200160002060009054906101000a900473ffffffffffffffffffffffffffffffffffffffff1673ffffffffffffffffffffffffffffffffffffffff1614610cf4576040517f08c379a00000000000000000000000000000000000000000000000000000000081526004018080602001828103825260178152602001807f43616c6c6572206973206e6f7420746865206f776e657200000000000000000081525060200191505060405180910390fd5b81600073ffffffffffffffffffffffffffffffffffffffff168173ffffffffffffffffffffffffffffffffffffffff161415610d98576040517f08c379a00000000000000000000000000000000000000000000000000000000081526004018080602001828103825260208152602001807f436865636b4164647265737320697320746865207a65726f206164647265737381525060200191505060405180910390fd5b8273ffffffffffffffffffffffffffffffffffffffff166002600086815260200190815260200160002060009054906101000a900473ffffffffffffffffffffffffffffffffffffffff1673ffffffffffffffffffffffffffffffffffffffff16857f2db5f9b069d085fba50688059d869a45ac805a9f56fe633ca94e0c306f25f30560405160405180910390a4826002600086815260200190815260200160002060006101000a81548173ffffffffffffffffffffffffffffffffffffffff021916908373ffffffffffffffffffffffffffffffffffffffff16021790555050505050565b600081600180549050119050919050565b60008060009054906101000a900473ffffffffffffffffffffffffffffffffffffffff16905090565b60008060009054906101000a900473ffffffffffffffffffffffffffffffffffffffff1673ffffffffffffffffffffffffffffffffffffffff16610efa61128e565b73ffffffffffffffffffffffffffffffffffffffff1614905090565b60018181548110610f2357fe5b90600052602060002001600091509050806000018054600181600116156101000203166002900480601f016020809104026020016040519081016040528092919081815260200182805460018160011615610100020316600290048015610fcb5780601f10610fa057610100808354040283529160200191610fcb565b820191906000526020600020905b815481529060010190602001808311610fae57829003601f168201915b5050505050905081565b6000610fe082610e7e565b611035576040517f08c379a00000000000000000000000000000000000000000000000000000000081526004018080602001828103825260218152602001806115666021913960400191505060405180910390fd5b3373ffffffffffffffffffffffffffffffffffffffff166002600084815260200190815260200160002060009054906101000a900473ffffffffffffffffffffffffffffffffffffffff1673ffffffffffffffffffffffffffffffffffffffff16149050919050565b60606110a982610e7e565b6110fe576040517f08c379a00000000000000000000000000000000000000000000000000000000081526004018080602001828103825260218152602001806115666021913960400191505060405180910390fd5b60006001838154811061110d57fe5b906000526020600020019050806000018054600181600116156101000203166002900480601f0160208091040260200160405190810160405280929190818152602001828054600181600116156101000203166002900480156111b15780601f10611186576101008083540402835291602001916111b1565b820191906000526020600020905b81548152906001019060200180831161119457829003601f168201915b5050505050915050919050565b6111c6610eb8565b611238576040517f08c379a00000000000000000000000000000000000000000000000000000000081526004018080602001828103825260208152602001807f4f776e61626c653a2063616c6c6572206973206e6f7420746865206f776e657281525060200191505060405180910390fd5b61124181611296565b50565b600061128683836040518060400160405280601e81526020017f536166654d6174683a207375627472616374696f6e206f766572666c6f7700008152506113da565b905092915050565b600033905090565b600073ffffffffffffffffffffffffffffffffffffffff168173ffffffffffffffffffffffffffffffffffffffff16141561131c576040517f08c379a00000000000000000000000000000000000000000000000000000000081526004018080602001828103825260268152602001806115406026913960400191505060405180910390fd5b8073ffffffffffffffffffffffffffffffffffffffff166000809054906101000a900473ffffffffffffffffffffffffffffffffffffffff1673ffffffffffffffffffffffffffffffffffffffff167f8be0079c531659141344cd1fd0a4f28419497f9722a3daafe3b4186f6b6457e060405160405180910390a3806000806101000a81548173ffffffffffffffffffffffffffffffffffffffff021916908373ffffffffffffffffffffffffffffffffffffffff16021790555050565b6000838311158290611487576040517f08c379a00000000000000000000000000000000000000000000000000000000081526004018080602001828103825283818151815260200191508051906020019080838360005b8381101561144c578082015181840152602081019050611431565b50505050905090810190601f1680156114795780820380516001836020036101000a031916815260200191505b509250505060405180910390fd5b5060008385039050809150509392505050565b828054600181600116156101000203166002900490600052602060002090601f016020900481019282601f106114db57805160ff1916838001178555611509565b82800160010185558215611509579182015b828111156115085782518255916020019190600101906114ed565b5b509050611516919061151a565b5090565b61153c91905b80821115611538576000816000905550600101611520565b5090565b9056fe4f776e61626c653a206e6577206f776e657220697320746865207a65726f20616464726573734d61726b6574506f6f6c3a204d61726b657420646f6573206e6f74206578697374a26469706673582212208ece0a2fac9aa98ec084df90e9afbad3dd27a483c2d4cf05f51662012d19a46a64736f6c63430006030033",
  "source": "pragma solidity >=0.6.0;\r\n\r\nimport '@openzeppelin/contracts/math/SafeMath.sol';\r\nimport '@openzeppelin/contracts/ownership/Ownable.sol';\r\n\r\n/**\r\n * @author LordOfTheBees\r\n * @notice Workplace with Market\r\n */\r\ncontract MarketPool is Ownable {\r\n    using SafeMath for uint256;\r\n\r\n    event MarketCreated(uint256 indexed marketId);\r\n    event MarketOwnershipTransferred(uint256 indexed marketId, address indexed previousOwner, address indexed newOwner);\r\n\r\n    struct Market {\r\n        string name;\r\n    }\r\n\r\n    //Список созданных маркетов\r\n    Market[] public markets;\r\n\r\n    // ID магазина и их владельцы\r\n    mapping (uint256 => address) marketToOwner;\r\n\r\n\r\n\r\n    receive() external payable {\r\n    }\r\n    \r\n    fallback() external payable {\r\n    }\r\n\r\n    function withdraw() external onlyOwner {\r\n        address payable _owner = payable(owner());\r\n        _owner.transfer(address(this).balance);\r\n    }\r\n\r\n\r\n\r\n\r\n    /**\r\n     * @notice Create new Market for sender.\r\n     * @param name The name of marketplace\r\n     * @return id of the created market\r\n     */\r\n    function createMarket(string memory name) public returns (uint256) {\r\n        markets.push(Market(name));\r\n        uint256 id = markets.length.sub(1);\r\n        marketToOwner[id] = msg.sender;\r\n        emit MarketCreated(id);\r\n        return id;\r\n    }\r\n\r\n    /**\r\n     * @notice Return all data of market by its id\r\n     */\r\n    function getMarketData(uint256 marketId) public view returns (string memory name) {\r\n        require(marketExist(marketId), \"MarketPool: Market does not exist\");\r\n        Market storage marketData = markets[marketId];\r\n        return (marketData.name);\r\n    }\r\n\r\n    /**\r\n     * @notice Renouncing ownership will leave the contract without an market owner, thereby removing any functionality that is only available to the market owner (e.g. creating new Item Types).\r\n     */\r\n    function renounceMarketOwnership(uint256 marketId) public onlyMarketOwner(marketId) {\r\n        emit MarketOwnershipTransferred(marketId, marketToOwner[marketId], address(0));\r\n        marketToOwner[marketId] = address(0);\r\n    }\r\n\r\n    /**\r\n     * @notice Transfers ownership of the ('marketId') to a new account (`newOwner`).\r\n     */\r\n    function transferMarketOwnership(uint256 marketId, address newOwner) public onlyMarketOwner(marketId) notZeroAddress(newOwner) {\r\n        emit MarketOwnershipTransferred(marketId, marketToOwner[marketId], newOwner);\r\n        marketToOwner[marketId] = newOwner;\r\n    }\r\n    \r\n    /**\r\n     * @notice Return addres of market owner\r\n     */\r\n    function getMarketOwner(uint256 marketId) public view returns (address) {\r\n        require(marketExist(marketId), \"MarketPool: Market does not exist\");\r\n        return marketToOwner[marketId];\r\n    }\r\n    \r\n    /**\r\n     * @notice Chech if it is market owner \r\n     */\r\n    function isMarketOwner(uint256 marketId) public view returns (bool) {\r\n        require(marketExist(marketId), \"MarketPool: Market does not exist\");\r\n        return marketToOwner[marketId] == msg.sender;\r\n    }\r\n    \r\n    /**\r\n     * @notice Check if market exist \r\n     */\r\n    function marketExist(uint256 marketId) public view returns (bool) {\r\n        return markets.length > marketId;\r\n    }\r\n\r\n\r\n    modifier notZeroAddress(address checkAddress) {\r\n        require(checkAddress != address(0), \"CheckAddress is the zero address\");\r\n        _;\r\n    }\r\n\r\n    modifier onlyMarketOwner(uint256 marketId) {\r\n        require(marketExist(marketId), \"Market does not exist\");\r\n        require(marketToOwner[marketId] == msg.sender, \"Caller is not the owner\");\r\n        _;\r\n    }\r\n}\r\n",
  "sourcePath": "E:\\MeineArbeit\\Solidity\\MarketPool\\contracts\\MarketPool.sol",
  "compiler": {
    "name": "solc",
    "version": "0.6.3+commit.8dda9521.Emscripten.clang"
  },
  "schemaVersion": "3.0.23",
  "updatedAt": "2020-03-14T14:11:21.176Z",
  "networkType": "ethereum",
  "devdoc": {
    "author": "LordOfTheBees",
    "methods": {
      "createMarket(string)": {
        "params": {
          "name": "The name of marketplace"
        },
        "returns": {
          "_0": "id of the created market"
        }
      },
      "isOwner()": {
        "details": "Returns true if the caller is the current owner."
      },
      "owner()": {
        "details": "Returns the address of the current owner."
      },
      "renounceOwnership()": {
        "details": "Leaves the contract without owner. It will not be possible to call `onlyOwner` functions anymore. Can only be called by the current owner.     * NOTE: Renouncing ownership will leave the contract without an owner, thereby removing any functionality that is only available to the owner."
      },
      "transferOwnership(address)": {
        "details": "Transfers ownership of the contract to a new account (`newOwner`). Can only be called by the current owner."
      }
    }
  },
  "userdoc": {
    "methods": {
      "createMarket(string)": {
        "notice": "Create new Market for sender."
      },
      "getMarketData(uint256)": {
        "notice": "Return all data of market by its id"
      },
      "getMarketOwner(uint256)": {
        "notice": "Return addres of market owner"
      },
      "isMarketOwner(uint256)": {
        "notice": "Chech if it is market owner "
      },
      "marketExist(uint256)": {
        "notice": "Check if market exist "
      },
      "renounceMarketOwnership(uint256)": {
        "notice": "Renouncing ownership will leave the contract without an market owner, thereby removing any functionality that is only available to the market owner (e.g. creating new Item Types)."
      },
      "transferMarketOwnership(uint256,address)": {
        "notice": "Transfers ownership of the ('marketId') to a new account (`newOwner`)."
      }
    },
    "notice": "Workplace with Market"
  }
}