{
  "contractName": "MarketPool",
  "abi": [
    {
      "anonymous": false,
      "inputs": [
        {
          "indexed": true,
          "internalType": "uint256",
          "name": "marketId",
          "type": "uint256"
        }
      ],
      "name": "MarketCreated",
      "type": "event"
    },
    {
      "anonymous": false,
      "inputs": [
        {
          "indexed": true,
          "internalType": "uint256",
          "name": "marketId",
          "type": "uint256"
        },
        {
          "indexed": true,
          "internalType": "address",
          "name": "previousOwner",
          "type": "address"
        },
        {
          "indexed": true,
          "internalType": "address",
          "name": "newOwner",
          "type": "address"
        }
      ],
      "name": "MarketOwnershipTransferred",
      "type": "event"
    },
    {
      "anonymous": false,
      "inputs": [
        {
          "indexed": true,
          "internalType": "address",
          "name": "previousOwner",
          "type": "address"
        },
        {
          "indexed": true,
          "internalType": "address",
          "name": "newOwner",
          "type": "address"
        }
      ],
      "name": "OwnershipTransferred",
      "type": "event"
    },
    {
      "inputs": [],
      "name": "isOwner",
      "outputs": [
        {
          "internalType": "bool",
          "name": "",
          "type": "bool"
        }
      ],
      "stateMutability": "view",
      "type": "function",
      "constant": true
    },
    {
      "inputs": [
        {
          "internalType": "uint256",
          "name": "",
          "type": "uint256"
        }
      ],
      "name": "markets",
      "outputs": [
        {
          "internalType": "string",
          "name": "name",
          "type": "string"
        }
      ],
      "stateMutability": "view",
      "type": "function",
      "constant": true
    },
    {
      "inputs": [],
      "name": "owner",
      "outputs": [
        {
          "internalType": "address",
          "name": "",
          "type": "address"
        }
      ],
      "stateMutability": "view",
      "type": "function",
      "constant": true
    },
    {
      "inputs": [],
      "name": "renounceOwnership",
      "outputs": [],
      "stateMutability": "nonpayable",
      "type": "function"
    },
    {
      "inputs": [
        {
          "internalType": "address",
          "name": "newOwner",
          "type": "address"
        }
      ],
      "name": "transferOwnership",
      "outputs": [],
      "stateMutability": "nonpayable",
      "type": "function"
    },
    {
      "inputs": [
        {
          "internalType": "string",
          "name": "name",
          "type": "string"
        }
      ],
      "name": "createMarket",
      "outputs": [
        {
          "internalType": "uint256",
          "name": "",
          "type": "uint256"
        }
      ],
      "stateMutability": "nonpayable",
      "type": "function"
    },
    {
      "inputs": [
        {
          "internalType": "uint256",
          "name": "marketId",
          "type": "uint256"
        }
      ],
      "name": "renounceMarketOwnership",
      "outputs": [],
      "stateMutability": "nonpayable",
      "type": "function"
    },
    {
      "inputs": [
        {
          "internalType": "uint256",
          "name": "marketId",
          "type": "uint256"
        },
        {
          "internalType": "address",
          "name": "newOwner",
          "type": "address"
        }
      ],
      "name": "transferMarketOwnership",
      "outputs": [],
      "stateMutability": "nonpayable",
      "type": "function"
    },
    {
      "inputs": [
        {
          "internalType": "uint256",
          "name": "marketId",
          "type": "uint256"
        }
      ],
      "name": "getMarketData",
      "outputs": [
        {
          "internalType": "string",
          "name": "name",
          "type": "string"
        }
      ],
      "stateMutability": "view",
      "type": "function",
      "constant": true
    },
    {
      "inputs": [
        {
          "internalType": "uint256",
          "name": "marketId",
          "type": "uint256"
        }
      ],
      "name": "getMarketOwner",
      "outputs": [
        {
          "internalType": "address",
          "name": "",
          "type": "address"
        }
      ],
      "stateMutability": "view",
      "type": "function",
      "constant": true
    },
    {
      "inputs": [
        {
          "internalType": "uint256",
          "name": "marketId",
          "type": "uint256"
        }
      ],
      "name": "isMarketOwner",
      "outputs": [
        {
          "internalType": "bool",
          "name": "",
          "type": "bool"
        }
      ],
      "stateMutability": "view",
      "type": "function",
      "constant": true
    },
    {
      "inputs": [
        {
          "internalType": "uint256",
          "name": "marketId",
          "type": "uint256"
        }
      ],
      "name": "marketExist",
      "outputs": [
        {
          "internalType": "bool",
          "name": "",
          "type": "bool"
        }
      ],
      "stateMutability": "view",
      "type": "function",
      "constant": true
    }
  ],
  "bytecode": "0x608060405260006100146100b760201b60201c565b9050806000806101000a81548173ffffffffffffffffffffffffffffffffffffffff021916908373ffffffffffffffffffffffffffffffffffffffff1602179055508073ffffffffffffffffffffffffffffffffffffffff16600073ffffffffffffffffffffffffffffffffffffffff167f8be0079c531659141344cd1fd0a4f28419497f9722a3daafe3b4186f6b6457e060405160405180910390a3506100bf565b600033905090565b6113d9806100ce6000396000f3fe608060405234801561001057600080fd5b50600436106100b45760003560e01c80638da5cb5b116100715780638da5cb5b146102c25780638f32d59b1461030c578063b1283e771461032e578063bb6b53bf146103d5578063bfacba3d1461041b578063f2fde38b146104c2576100b4565b806307309846146100b95780633d369029146100e757806354888f5514610155578063715018a6146102245780637cfc18181461022e5780638be527021461027c575b600080fd5b6100e5600480360360208110156100cf57600080fd5b8101908080359060200190929190505050610506565b005b610113600480360360208110156100fd57600080fd5b8101908080359060200190929190505050610702565b604051808273ffffffffffffffffffffffffffffffffffffffff1673ffffffffffffffffffffffffffffffffffffffff16815260200191505060405180910390f35b61020e6004803603602081101561016b57600080fd5b810190808035906020019064010000000081111561018857600080fd5b82018360208201111561019a57600080fd5b803590602001918460018302840111640100000000831117156101bc57600080fd5b91908080601f016020809104026020016040519081016040528093929190818152602001838380828437600081840152601f19601f82011690508083019250505050505050919291929050505061079d565b6040518082815260200191505060405180910390f35b61022c610890565b005b61027a6004803603604081101561024457600080fd5b8101908080359060200190929190803573ffffffffffffffffffffffffffffffffffffffff1690602001909291905050506109c9565b005b6102a86004803603602081101561029257600080fd5b8101908080359060200190929190505050610c4c565b604051808215151515815260200191505060405180910390f35b6102ca610c5d565b604051808273ffffffffffffffffffffffffffffffffffffffff1673ffffffffffffffffffffffffffffffffffffffff16815260200191505060405180910390f35b610314610c86565b604051808215151515815260200191505060405180910390f35b61035a6004803603602081101561034457600080fd5b8101908080359060200190929190505050610ce4565b6040518080602001828103825283818151815260200191508051906020019080838360005b8381101561039a57808201518184015260208101905061037f565b50505050905090810190601f1680156103c75780820380516001836020036101000a031916815260200191505b509250505060405180910390f35b610401600480360360208110156103eb57600080fd5b8101908080359060200190929190505050610da3565b604051808215151515815260200191505060405180910390f35b6104476004803603602081101561043157600080fd5b8101908080359060200190929190505050610e6c565b6040518080602001828103825283818151815260200191508051906020019080838360005b8381101561048757808201518184015260208101905061046c565b50505050905090810190601f1680156104b45780820380516001836020036101000a031916815260200191505b509250505060405180910390f35b610504600480360360208110156104d857600080fd5b81019080803573ffffffffffffffffffffffffffffffffffffffff169060200190929190505050610f8c565b005b8061051081610c4c565b610565576040517f08c379a00000000000000000000000000000000000000000000000000000000081526004018080602001828103825260218152602001806113606021913960400191505060405180910390fd5b3373ffffffffffffffffffffffffffffffffffffffff166002600083815260200190815260200160002060009054906101000a900473ffffffffffffffffffffffffffffffffffffffff1673ffffffffffffffffffffffffffffffffffffffff161461061c576040517f08c379a00000000000000000000000000000000000000000000000000000000081526004018080602001828103825260238152602001806113816023913960400191505060405180910390fd5b600073ffffffffffffffffffffffffffffffffffffffff166002600084815260200190815260200160002060009054906101000a900473ffffffffffffffffffffffffffffffffffffffff1673ffffffffffffffffffffffffffffffffffffffff16837f2db5f9b069d085fba50688059d869a45ac805a9f56fe633ca94e0c306f25f30560405160405180910390a460006002600084815260200190815260200160002060006101000a81548173ffffffffffffffffffffffffffffffffffffffff021916908373ffffffffffffffffffffffffffffffffffffffff1602179055505050565b600061070d82610c4c565b610762576040517f08c379a00000000000000000000000000000000000000000000000000000000081526004018080602001828103825260218152602001806113606021913960400191505060405180910390fd5b6002600083815260200190815260200160002060009054906101000a900473ffffffffffffffffffffffffffffffffffffffff169050919050565b600060016040518060200160405280848152509080600181540180825580915050600190039060005260206000200160009091909190915060008201518160000190805190602001906107f1929190611268565b50505060006108066001805490506001611012565b9050336002600083815260200190815260200160002060006101000a81548173ffffffffffffffffffffffffffffffffffffffff021916908373ffffffffffffffffffffffffffffffffffffffff160217905550807f25b2eff8f9cbb97c6c73adf7d94f4f8956260becc65ab075709db7561914a2b160405160405180910390a280915050919050565b610898610c86565b61090a576040517f08c379a00000000000000000000000000000000000000000000000000000000081526004018080602001828103825260208152602001807f4f776e61626c653a2063616c6c6572206973206e6f7420746865206f776e657281525060200191505060405180910390fd5b600073ffffffffffffffffffffffffffffffffffffffff166000809054906101000a900473ffffffffffffffffffffffffffffffffffffffff1673ffffffffffffffffffffffffffffffffffffffff167f8be0079c531659141344cd1fd0a4f28419497f9722a3daafe3b4186f6b6457e060405160405180910390a360008060006101000a81548173ffffffffffffffffffffffffffffffffffffffff021916908373ffffffffffffffffffffffffffffffffffffffff160217905550565b816109d381610c4c565b610a28576040517f08c379a00000000000000000000000000000000000000000000000000000000081526004018080602001828103825260218152602001806113606021913960400191505060405180910390fd5b3373ffffffffffffffffffffffffffffffffffffffff166002600083815260200190815260200160002060009054906101000a900473ffffffffffffffffffffffffffffffffffffffff1673ffffffffffffffffffffffffffffffffffffffff1614610adf576040517f08c379a00000000000000000000000000000000000000000000000000000000081526004018080602001828103825260238152602001806113816023913960400191505060405180910390fd5b81600073ffffffffffffffffffffffffffffffffffffffff168173ffffffffffffffffffffffffffffffffffffffff161415610b66576040517f08c379a000000000000000000000000000000000000000000000000000000000815260040180806020018281038252602c815260200180611334602c913960400191505060405180910390fd5b8273ffffffffffffffffffffffffffffffffffffffff166002600086815260200190815260200160002060009054906101000a900473ffffffffffffffffffffffffffffffffffffffff1673ffffffffffffffffffffffffffffffffffffffff16857f2db5f9b069d085fba50688059d869a45ac805a9f56fe633ca94e0c306f25f30560405160405180910390a4826002600086815260200190815260200160002060006101000a81548173ffffffffffffffffffffffffffffffffffffffff021916908373ffffffffffffffffffffffffffffffffffffffff16021790555050505050565b600081600180549050119050919050565b60008060009054906101000a900473ffffffffffffffffffffffffffffffffffffffff16905090565b60008060009054906101000a900473ffffffffffffffffffffffffffffffffffffffff1673ffffffffffffffffffffffffffffffffffffffff16610cc861105c565b73ffffffffffffffffffffffffffffffffffffffff1614905090565b60018181548110610cf157fe5b90600052602060002001600091509050806000018054600181600116156101000203166002900480601f016020809104026020016040519081016040528092919081815260200182805460018160011615610100020316600290048015610d995780601f10610d6e57610100808354040283529160200191610d99565b820191906000526020600020905b815481529060010190602001808311610d7c57829003601f168201915b5050505050905081565b6000610dae82610c4c565b610e03576040517f08c379a00000000000000000000000000000000000000000000000000000000081526004018080602001828103825260218152602001806113606021913960400191505060405180910390fd5b3373ffffffffffffffffffffffffffffffffffffffff166002600084815260200190815260200160002060009054906101000a900473ffffffffffffffffffffffffffffffffffffffff1673ffffffffffffffffffffffffffffffffffffffff16149050919050565b6060610e7782610c4c565b610ecc576040517f08c379a00000000000000000000000000000000000000000000000000000000081526004018080602001828103825260218152602001806113606021913960400191505060405180910390fd5b600060018381548110610edb57fe5b906000526020600020019050806000018054600181600116156101000203166002900480601f016020809104026020016040519081016040528092919081815260200182805460018160011615610100020316600290048015610f7f5780601f10610f5457610100808354040283529160200191610f7f565b820191906000526020600020905b815481529060010190602001808311610f6257829003601f168201915b5050505050915050919050565b610f94610c86565b611006576040517f08c379a00000000000000000000000000000000000000000000000000000000081526004018080602001828103825260208152602001807f4f776e61626c653a2063616c6c6572206973206e6f7420746865206f776e657281525060200191505060405180910390fd5b61100f81611064565b50565b600061105483836040518060400160405280601e81526020017f536166654d6174683a207375627472616374696f6e206f766572666c6f7700008152506111a8565b905092915050565b600033905090565b600073ffffffffffffffffffffffffffffffffffffffff168173ffffffffffffffffffffffffffffffffffffffff1614156110ea576040517f08c379a000000000000000000000000000000000000000000000000000000000815260040180806020018281038252602681526020018061130e6026913960400191505060405180910390fd5b8073ffffffffffffffffffffffffffffffffffffffff166000809054906101000a900473ffffffffffffffffffffffffffffffffffffffff1673ffffffffffffffffffffffffffffffffffffffff167f8be0079c531659141344cd1fd0a4f28419497f9722a3daafe3b4186f6b6457e060405160405180910390a3806000806101000a81548173ffffffffffffffffffffffffffffffffffffffff021916908373ffffffffffffffffffffffffffffffffffffffff16021790555050565b6000838311158290611255576040517f08c379a00000000000000000000000000000000000000000000000000000000081526004018080602001828103825283818151815260200191508051906020019080838360005b8381101561121a5780820151818401526020810190506111ff565b50505050905090810190601f1680156112475780820380516001836020036101000a031916815260200191505b509250505060405180910390fd5b5060008385039050809150509392505050565b828054600181600116156101000203166002900490600052602060002090601f016020900481019282601f106112a957805160ff19168380011785556112d7565b828001600101855582156112d7579182015b828111156112d65782518255916020019190600101906112bb565b5b5090506112e491906112e8565b5090565b61130a91905b808211156113065760008160009055506001016112ee565b5090565b9056fe4f776e61626c653a206e6577206f776e657220697320746865207a65726f20616464726573734d61726b6574506f6f6c3a20436865636b4164647265737320697320746865207a65726f20616464726573734d61726b6574506f6f6c3a204d61726b657420646f6573206e6f742065786973744d61726b6574506f6f6c3a2043616c6c6572206973206e6f7420746865206f776e6572a264697066735822122092424995a9ba44a94a1de8fea3384c8f292c34db30ba84f3fd0934c40be6943964736f6c63430006030033",
  "source": "pragma solidity >=0.6.0;\r\n\r\nimport '@openzeppelin/contracts/math/SafeMath.sol';\r\nimport '@openzeppelin/contracts/ownership/Ownable.sol';\r\n\r\n/**\r\n * @author LordOfTheBees\r\n * @notice Workplace with Market\r\n */\r\ncontract MarketPool is Ownable {\r\n    using SafeMath for uint256;\r\n\r\n    event MarketCreated(uint256 indexed marketId);\r\n    event MarketOwnershipTransferred(uint256 indexed marketId, address indexed previousOwner, address indexed newOwner);\r\n\r\n    struct Market {\r\n        string name;\r\n    }\r\n\r\n    //Список созданных маркетов\r\n    Market[] public markets;\r\n\r\n    // ID магазина и их владельцы\r\n    mapping (uint256 => address) marketToOwner;\r\n\r\n\r\n    /**\r\n     * @notice Create new Market for sender.\r\n     * @param name The name of marketplace\r\n     * @return id of the created market\r\n     */\r\n    function createMarket(string memory name) public returns (uint256) {\r\n        markets.push(Market(name));\r\n        uint256 id = SafeMath.sub(markets.length, 1);\r\n        marketToOwner[id] = msg.sender;\r\n        emit MarketCreated(id);\r\n        return id;\r\n    }\r\n\r\n    /**\r\n     * @notice Renouncing ownership will leave the contract without an market owner, thereby removing any functionality that is only available to the market owner (e.g. creating new Item Types).\r\n     */\r\n    function renounceMarketOwnership(uint256 marketId) public onlyMarketOwner(marketId) {\r\n        emit MarketOwnershipTransferred(marketId, marketToOwner[marketId], address(0));\r\n        marketToOwner[marketId] = address(0);\r\n    }\r\n\r\n    /**\r\n     * @notice Transfers ownership of the ('marketId') to a new account (`newOwner`).\r\n     */\r\n    function transferMarketOwnership(uint256 marketId, address newOwner) public onlyMarketOwner(marketId) notZeroAddress(newOwner) {\r\n        emit MarketOwnershipTransferred(marketId, marketToOwner[marketId], newOwner);\r\n        marketToOwner[marketId] = newOwner;\r\n    }\r\n    \r\n    \r\n    /**\r\n     * @notice Return all data of market by its id\r\n     */\r\n    function getMarketData(uint256 marketId) public view returns (string memory name) {\r\n        require(marketExist(marketId), \"MarketPool: Market does not exist\");\r\n        Market storage marketData = markets[marketId];\r\n        return (marketData.name);\r\n    }\r\n    \r\n    /**\r\n     * @notice Return addres of market owner\r\n     */\r\n    function getMarketOwner(uint256 marketId) public view returns (address) {\r\n        require(marketExist(marketId), \"MarketPool: Market does not exist\");\r\n        return marketToOwner[marketId];\r\n    }\r\n    \r\n    /**\r\n     * @notice Chech if it is market owner \r\n     */\r\n    function isMarketOwner(uint256 marketId) public view returns (bool) {\r\n        require(marketExist(marketId), \"MarketPool: Market does not exist\");\r\n        return marketToOwner[marketId] == msg.sender;\r\n    }\r\n    \r\n    /**\r\n     * @notice Check if market exist \r\n     */\r\n    function marketExist(uint256 marketId) public view returns (bool) {\r\n        return markets.length > marketId;\r\n    }\r\n\r\n\r\n    modifier notZeroAddress(address checkAddress) {\r\n        require(checkAddress != address(0), \"MarketPool: CheckAddress is the zero address\");\r\n        _;\r\n    }\r\n\r\n    modifier onlyMarketOwner(uint256 marketId) {\r\n        require(marketExist(marketId), \"MarketPool: Market does not exist\");\r\n        require(marketToOwner[marketId] == msg.sender, \"MarketPool: Caller is not the owner\");\r\n        _;\r\n    }\r\n}\r\n",
  "sourcePath": "E:\\MeineArbeit\\Solidity\\MarketPool\\contracts\\MarketPool.sol",
  "compiler": {
    "name": "solc",
    "version": "0.6.3+commit.8dda9521.Emscripten.clang"
  },
  "schemaVersion": "3.0.23",
  "updatedAt": "2020-03-03T08:22:15.586Z",
  "networkType": "ethereum",
  "devdoc": {
    "author": "LordOfTheBees",
    "methods": {
      "createMarket(string)": {
        "params": {
          "name": "The name of marketplace"
        },
        "returns": {
          "_0": "id of the created market"
        }
      },
      "isOwner()": {
        "details": "Returns true if the caller is the current owner."
      },
      "owner()": {
        "details": "Returns the address of the current owner."
      },
      "renounceOwnership()": {
        "details": "Leaves the contract without owner. It will not be possible to call `onlyOwner` functions anymore. Can only be called by the current owner.     * NOTE: Renouncing ownership will leave the contract without an owner, thereby removing any functionality that is only available to the owner."
      },
      "transferOwnership(address)": {
        "details": "Transfers ownership of the contract to a new account (`newOwner`). Can only be called by the current owner."
      }
    }
  },
  "userdoc": {
    "methods": {
      "createMarket(string)": {
        "notice": "Create new Market for sender."
      },
      "getMarketData(uint256)": {
        "notice": "Return all data of market by its id"
      },
      "getMarketOwner(uint256)": {
        "notice": "Return addres of market owner"
      },
      "isMarketOwner(uint256)": {
        "notice": "Chech if it is market owner "
      },
      "marketExist(uint256)": {
        "notice": "Check if market exist "
      },
      "renounceMarketOwnership(uint256)": {
        "notice": "Renouncing ownership will leave the contract without an market owner, thereby removing any functionality that is only available to the market owner (e.g. creating new Item Types)."
      },
      "transferMarketOwnership(uint256,address)": {
        "notice": "Transfers ownership of the ('marketId') to a new account (`newOwner`)."
      }
    },
    "notice": "Workplace with Market"
  }
}