{
  "contractName": "MarketPool_SaleRelease",
  "abi": [
    {
      "anonymous": false,
      "inputs": [
        {
          "indexed": true,
          "internalType": "uint256",
          "name": "marketId",
          "type": "uint256"
        },
        {
          "indexed": true,
          "internalType": "uint256",
          "name": "itemId",
          "type": "uint256"
        }
      ],
      "name": "ItemCreated",
      "type": "event"
    },
    {
      "anonymous": false,
      "inputs": [
        {
          "indexed": true,
          "internalType": "uint256",
          "name": "marketId",
          "type": "uint256"
        },
        {
          "indexed": false,
          "internalType": "uint256",
          "name": "itemId",
          "type": "uint256"
        },
        {
          "indexed": true,
          "internalType": "address",
          "name": "previousOwner",
          "type": "address"
        },
        {
          "indexed": true,
          "internalType": "address",
          "name": "newOwner",
          "type": "address"
        }
      ],
      "name": "ItemOwnershipTransferred",
      "type": "event"
    },
    {
      "anonymous": false,
      "inputs": [
        {
          "indexed": true,
          "internalType": "uint256",
          "name": "marketId",
          "type": "uint256"
        },
        {
          "indexed": true,
          "internalType": "uint256",
          "name": "itemTypeId",
          "type": "uint256"
        }
      ],
      "name": "ItemTypeCreated",
      "type": "event"
    },
    {
      "anonymous": false,
      "inputs": [
        {
          "indexed": true,
          "internalType": "uint256",
          "name": "marketId",
          "type": "uint256"
        }
      ],
      "name": "MarketCreated",
      "type": "event"
    },
    {
      "anonymous": false,
      "inputs": [
        {
          "indexed": true,
          "internalType": "uint256",
          "name": "marketId",
          "type": "uint256"
        },
        {
          "indexed": true,
          "internalType": "address",
          "name": "previousOwner",
          "type": "address"
        },
        {
          "indexed": true,
          "internalType": "address",
          "name": "newOwner",
          "type": "address"
        }
      ],
      "name": "MarketOwnershipTransferred",
      "type": "event"
    },
    {
      "anonymous": false,
      "inputs": [
        {
          "indexed": true,
          "internalType": "address",
          "name": "previousOwner",
          "type": "address"
        },
        {
          "indexed": true,
          "internalType": "address",
          "name": "newOwner",
          "type": "address"
        }
      ],
      "name": "OwnershipTransferred",
      "type": "event"
    },
    {
      "inputs": [
        {
          "internalType": "address",
          "name": "itemsOwner",
          "type": "address"
        },
        {
          "internalType": "uint256",
          "name": "marketId",
          "type": "uint256"
        }
      ],
      "name": "balanceOfItemsOf",
      "outputs": [
        {
          "internalType": "uint256",
          "name": "",
          "type": "uint256"
        }
      ],
      "stateMutability": "view",
      "type": "function"
    },
    {
      "inputs": [
        {
          "internalType": "uint256",
          "name": "marketId",
          "type": "uint256"
        },
        {
          "internalType": "uint256",
          "name": "typeId",
          "type": "uint256"
        }
      ],
      "name": "createItem",
      "outputs": [
        {
          "internalType": "uint256",
          "name": "",
          "type": "uint256"
        }
      ],
      "stateMutability": "nonpayable",
      "type": "function"
    },
    {
      "inputs": [
        {
          "internalType": "uint256",
          "name": "marketId",
          "type": "uint256"
        },
        {
          "internalType": "string",
          "name": "name",
          "type": "string"
        },
        {
          "internalType": "uint256",
          "name": "totalSuply",
          "type": "uint256"
        },
        {
          "internalType": "bool",
          "name": "isFinal",
          "type": "bool"
        },
        {
          "internalType": "bool",
          "name": "allowSale",
          "type": "bool"
        },
        {
          "internalType": "bool",
          "name": "allowAuction",
          "type": "bool"
        },
        {
          "internalType": "bool",
          "name": "allowRent",
          "type": "bool"
        },
        {
          "internalType": "bool",
          "name": "allowLootbox",
          "type": "bool"
        }
      ],
      "name": "createItemType",
      "outputs": [
        {
          "internalType": "uint256",
          "name": "",
          "type": "uint256"
        }
      ],
      "stateMutability": "nonpayable",
      "type": "function"
    },
    {
      "inputs": [
        {
          "internalType": "string",
          "name": "name",
          "type": "string"
        }
      ],
      "name": "createMarket",
      "outputs": [
        {
          "internalType": "uint256",
          "name": "",
          "type": "uint256"
        }
      ],
      "stateMutability": "nonpayable",
      "type": "function"
    },
    {
      "inputs": [
        {
          "internalType": "uint256",
          "name": "marketId",
          "type": "uint256"
        },
        {
          "internalType": "uint256",
          "name": "itemId",
          "type": "uint256"
        }
      ],
      "name": "getItemOwner",
      "outputs": [
        {
          "internalType": "address",
          "name": "",
          "type": "address"
        }
      ],
      "stateMutability": "view",
      "type": "function"
    },
    {
      "inputs": [
        {
          "internalType": "uint256",
          "name": "marketId",
          "type": "uint256"
        }
      ],
      "name": "getMarketData",
      "outputs": [
        {
          "internalType": "string",
          "name": "name",
          "type": "string"
        }
      ],
      "stateMutability": "view",
      "type": "function"
    },
    {
      "inputs": [
        {
          "internalType": "uint256",
          "name": "marketId",
          "type": "uint256"
        }
      ],
      "name": "getMarketOwner",
      "outputs": [
        {
          "internalType": "address",
          "name": "",
          "type": "address"
        }
      ],
      "stateMutability": "view",
      "type": "function"
    },
    {
      "inputs": [
        {
          "internalType": "uint256",
          "name": "marketId",
          "type": "uint256"
        },
        {
          "internalType": "uint256",
          "name": "itemId",
          "type": "uint256"
        }
      ],
      "name": "isItemOwner",
      "outputs": [
        {
          "internalType": "bool",
          "name": "",
          "type": "bool"
        }
      ],
      "stateMutability": "view",
      "type": "function"
    },
    {
      "inputs": [
        {
          "internalType": "uint256",
          "name": "marketId",
          "type": "uint256"
        }
      ],
      "name": "isMarketOwner",
      "outputs": [
        {
          "internalType": "bool",
          "name": "",
          "type": "bool"
        }
      ],
      "stateMutability": "view",
      "type": "function"
    },
    {
      "inputs": [],
      "name": "isOwner",
      "outputs": [
        {
          "internalType": "bool",
          "name": "",
          "type": "bool"
        }
      ],
      "stateMutability": "view",
      "type": "function"
    },
    {
      "inputs": [
        {
          "internalType": "uint256",
          "name": "marketId",
          "type": "uint256"
        },
        {
          "internalType": "uint256",
          "name": "itemId",
          "type": "uint256"
        }
      ],
      "name": "itemExist",
      "outputs": [
        {
          "internalType": "bool",
          "name": "",
          "type": "bool"
        }
      ],
      "stateMutability": "view",
      "type": "function"
    },
    {
      "inputs": [
        {
          "internalType": "uint256",
          "name": "marketId",
          "type": "uint256"
        },
        {
          "internalType": "uint256",
          "name": "typeId",
          "type": "uint256"
        }
      ],
      "name": "itemTypeExist",
      "outputs": [
        {
          "internalType": "bool",
          "name": "",
          "type": "bool"
        }
      ],
      "stateMutability": "view",
      "type": "function"
    },
    {
      "inputs": [
        {
          "internalType": "uint256",
          "name": "marketId",
          "type": "uint256"
        }
      ],
      "name": "marketExist",
      "outputs": [
        {
          "internalType": "bool",
          "name": "",
          "type": "bool"
        }
      ],
      "stateMutability": "view",
      "type": "function"
    },
    {
      "inputs": [
        {
          "internalType": "uint256",
          "name": "",
          "type": "uint256"
        },
        {
          "internalType": "uint256",
          "name": "",
          "type": "uint256"
        }
      ],
      "name": "marketToItemTypes",
      "outputs": [
        {
          "internalType": "string",
          "name": "name",
          "type": "string"
        },
        {
          "internalType": "uint256",
          "name": "remainingSuply",
          "type": "uint256"
        },
        {
          "internalType": "uint256",
          "name": "totalSuply",
          "type": "uint256"
        },
        {
          "internalType": "bool",
          "name": "isFinal",
          "type": "bool"
        },
        {
          "internalType": "bool",
          "name": "allowSale",
          "type": "bool"
        },
        {
          "internalType": "bool",
          "name": "allowAuction",
          "type": "bool"
        },
        {
          "internalType": "bool",
          "name": "allowRent",
          "type": "bool"
        },
        {
          "internalType": "bool",
          "name": "allowLootbox",
          "type": "bool"
        }
      ],
      "stateMutability": "view",
      "type": "function"
    },
    {
      "inputs": [
        {
          "internalType": "uint256",
          "name": "",
          "type": "uint256"
        },
        {
          "internalType": "uint256",
          "name": "",
          "type": "uint256"
        }
      ],
      "name": "marketToItems",
      "outputs": [
        {
          "internalType": "uint256",
          "name": "typeId",
          "type": "uint256"
        }
      ],
      "stateMutability": "view",
      "type": "function"
    },
    {
      "inputs": [
        {
          "internalType": "uint256",
          "name": "",
          "type": "uint256"
        }
      ],
      "name": "markets",
      "outputs": [
        {
          "internalType": "string",
          "name": "name",
          "type": "string"
        }
      ],
      "stateMutability": "view",
      "type": "function"
    },
    {
      "inputs": [],
      "name": "owner",
      "outputs": [
        {
          "internalType": "address",
          "name": "",
          "type": "address"
        }
      ],
      "stateMutability": "view",
      "type": "function"
    },
    {
      "inputs": [
        {
          "internalType": "uint256",
          "name": "marketId",
          "type": "uint256"
        }
      ],
      "name": "renounceMarketOwnership",
      "outputs": [],
      "stateMutability": "nonpayable",
      "type": "function"
    },
    {
      "inputs": [],
      "name": "renounceOwnership",
      "outputs": [],
      "stateMutability": "nonpayable",
      "type": "function"
    },
    {
      "inputs": [
        {
          "internalType": "address",
          "name": "to",
          "type": "address"
        },
        {
          "internalType": "uint256",
          "name": "marketId",
          "type": "uint256"
        },
        {
          "internalType": "uint256",
          "name": "itemId",
          "type": "uint256"
        }
      ],
      "name": "transferItem",
      "outputs": [],
      "stateMutability": "nonpayable",
      "type": "function"
    },
    {
      "inputs": [
        {
          "internalType": "uint256",
          "name": "marketId",
          "type": "uint256"
        },
        {
          "internalType": "address",
          "name": "newOwner",
          "type": "address"
        }
      ],
      "name": "transferMarketOwnership",
      "outputs": [],
      "stateMutability": "nonpayable",
      "type": "function"
    },
    {
      "inputs": [
        {
          "internalType": "address",
          "name": "newOwner",
          "type": "address"
        }
      ],
      "name": "transferOwnership",
      "outputs": [],
      "stateMutability": "nonpayable",
      "type": "function"
    }
  ],
  "bytecode": "0x608060405260006100146100b760201b60201c565b9050806000806101000a81548173ffffffffffffffffffffffffffffffffffffffff021916908373ffffffffffffffffffffffffffffffffffffffff1602179055508073ffffffffffffffffffffffffffffffffffffffff16600073ffffffffffffffffffffffffffffffffffffffff167f8be0079c531659141344cd1fd0a4f28419497f9722a3daafe3b4186f6b6457e060405160405180910390a3506100bf565b600033905090565b612ae8806100ce6000396000f3fe608060405234801561001057600080fd5b50600436106101425760003560e01c80638f32d59b116100b8578063bb6b53bf1161007c578063bb6b53bf146107bf578063bfacba3d14610805578063d7f53673146108ac578063f2fde38b1461090e578063f3ecc26a14610952578063fcc08cd4146109aa57610142565b80638f32d59b14610564578063a84fc48514610586578063ad661efe146105d6578063adae08dd146106cc578063b1283e771461071857610142565b80636e7c17051161010a5780636e7c1705146103e0578063715018a6146104305780637cfc18181461043a5780638a4021bd146104885780638be52702146104d45780638da5cb5b1461051a57610142565b8063073098461461014757806316090962146101755780632bf8b30e146101c55780633d369029146102a357806354888f5514610311575b600080fd5b6101736004803603602081101561015d57600080fd5b8101908080359060200190929190505050610a22565b005b6101ab6004803603604081101561018b57600080fd5b810190808035906020019092919080359060200190929190505050610c1e565b604051808215151515815260200191505060405180910390f35b61028d60048036036101008110156101dc57600080fd5b81019080803590602001909291908035906020019064010000000081111561020357600080fd5b82018360208201111561021557600080fd5b8035906020019184600183028401116401000000008311171561023757600080fd5b909192939192939080359060200190929190803515159060200190929190803515159060200190929190803515159060200190929190803515159060200190929190803515159060200190929190505050610c52565b6040518082815260200191505060405180910390f35b6102cf600480360360208110156102b957600080fd5b8101908080359060200190929190505050610f66565b604051808273ffffffffffffffffffffffffffffffffffffffff1673ffffffffffffffffffffffffffffffffffffffff16815260200191505060405180910390f35b6103ca6004803603602081101561032757600080fd5b810190808035906020019064010000000081111561034457600080fd5b82018360208201111561035657600080fd5b8035906020019184600183028401116401000000008311171561037857600080fd5b91908080601f016020809104026020016040519081016040528093929190818152602001838380828437600081840152601f19601f820116905080830192505050505050509192919290505050611001565b6040518082815260200191505060405180910390f35b610416600480360360408110156103f657600080fd5b8101908080359060200190929190803590602001909291905050506110f4565b604051808215151515815260200191505060405180910390f35b610438611128565b005b6104866004803603604081101561045057600080fd5b8101908080359060200190929190803573ffffffffffffffffffffffffffffffffffffffff169060200190929190505050611261565b005b6104be6004803603604081101561049e57600080fd5b8101908080359060200190929190803590602001909291905050506114e4565b6040518082815260200191505060405180910390f35b610500600480360360208110156104ea57600080fd5b8101908080359060200190929190505050611518565b604051808215151515815260200191505060405180910390f35b610522611529565b604051808273ffffffffffffffffffffffffffffffffffffffff1673ffffffffffffffffffffffffffffffffffffffff16815260200191505060405180910390f35b61056c611552565b604051808215151515815260200191505060405180910390f35b6105bc6004803603604081101561059c57600080fd5b8101908080359060200190929190803590602001909291905050506115b0565b604051808215151515815260200191505060405180910390f35b61060c600480360360408110156105ec57600080fd5b81019080803590602001909291908035906020019092919050505061168c565b6040518080602001898152602001888152602001871515151581526020018615151515815260200185151515158152602001841515151581526020018315151515815260200182810382528a818151815260200191508051906020019080838360005b8381101561068a57808201518184015260208101905061066f565b50505050905090810190601f1680156106b75780820380516001836020036101000a031916815260200191505b50995050505050505050505060405180910390f35b610702600480360360408110156106e257600080fd5b8101908080359060200190929190803590602001909291905050506117c7565b6040518082815260200191505060405180910390f35b6107446004803603602081101561072e57600080fd5b81019080803590602001909291905050506118f3565b6040518080602001828103825283818151815260200191508051906020019080838360005b83811015610784578082015181840152602081019050610769565b50505050905090810190601f1680156107b15780820380516001836020036101000a031916815260200191505b509250505060405180910390f35b6107eb600480360360208110156107d557600080fd5b81019080803590602001909291905050506119b2565b604051808215151515815260200191505060405180910390f35b6108316004803603602081101561081b57600080fd5b8101908080359060200190929190505050611a7b565b6040518080602001828103825283818151815260200191508051906020019080838360005b83811015610871578082015181840152602081019050610856565b50505050905090810190601f16801561089e5780820380516001836020036101000a031916815260200191505b509250505060405180910390f35b6108f8600480360360408110156108c257600080fd5b81019080803573ffffffffffffffffffffffffffffffffffffffff16906020019092919080359060200190929190505050611b9b565b6040518082815260200191505060405180910390f35b6109506004803603602081101561092457600080fd5b81019080803573ffffffffffffffffffffffffffffffffffffffff169060200190929190505050611ce0565b005b6109a86004803603606081101561096857600080fd5b81019080803573ffffffffffffffffffffffffffffffffffffffff1690602001909291908035906020019092919080359060200190929190505050611d66565b005b6109e0600480360360408110156109c057600080fd5b810190808035906020019092919080359060200190929190505050611ea2565b604051808273ffffffffffffffffffffffffffffffffffffffff1673ffffffffffffffffffffffffffffffffffffffff16815260200191505060405180910390f35b80610a2c81611518565b610a81576040517f08c379a000000000000000000000000000000000000000000000000000000000815260040180806020018281038252602181526020018061294b6021913960400191505060405180910390fd5b3373ffffffffffffffffffffffffffffffffffffffff166002600083815260200190815260200160002060009054906101000a900473ffffffffffffffffffffffffffffffffffffffff1673ffffffffffffffffffffffffffffffffffffffff1614610b38576040517f08c379a0000000000000000000000000000000000000000000000000000000008152600401808060200182810382526023815260200180612a906023913960400191505060405180910390fd5b600073ffffffffffffffffffffffffffffffffffffffff166002600084815260200190815260200160002060009054906101000a900473ffffffffffffffffffffffffffffffffffffffff1673ffffffffffffffffffffffffffffffffffffffff16837f2db5f9b069d085fba50688059d869a45ac805a9f56fe633ca94e0c306f25f30560405160405180910390a460006002600084815260200190815260200160002060006101000a81548173ffffffffffffffffffffffffffffffffffffffff021916908373ffffffffffffffffffffffffffffffffffffffff1602179055505050565b6000610c2983611518565b8015610c4a5750816003600085815260200190815260200160002080549050115b905092915050565b600089610c5e81611518565b610cb3576040517f08c379a000000000000000000000000000000000000000000000000000000000815260040180806020018281038252602181526020018061294b6021913960400191505060405180910390fd5b3373ffffffffffffffffffffffffffffffffffffffff166002600083815260200190815260200160002060009054906101000a900473ffffffffffffffffffffffffffffffffffffffff1673ffffffffffffffffffffffffffffffffffffffff1614610d6a576040517f08c379a0000000000000000000000000000000000000000000000000000000008152600401808060200182810382526023815260200180612a906023913960400191505060405180910390fd5b600360008c81526020019081526020016000206040518061010001604052808c8c8080601f016020809104026020016040519081016040528093929190818152602001838380828437600081840152601f19601f8201169050808301925050505050505081526020018a81526020018a8152602001891515815260200188151581526020018715158152602001861515815260200185151581525090806001815401808255809150506001900390600052602060002090600402016000909190919091506000820151816000019080519060200190610e4a9291906127c7565b50602082015181600101556040820151816002015560608201518160030160006101000a81548160ff02191690831515021790555060808201518160030160016101000a81548160ff02191690831515021790555060a08201518160030160026101000a81548160ff02191690831515021790555060c08201518160030160036101000a81548160ff02191690831515021790555060e08201518160030160046101000a81548160ff02191690831515021790555050506000610f24600360008e8152602001908152602001600020805490506001611f50565b9050808c7f7934e0f5d948c4a79a3febe9190e48f7c9017e7655c1f47105f8478ef984102a60405160405180910390a380925050509998505050505050505050565b6000610f7182611518565b610fc6576040517f08c379a000000000000000000000000000000000000000000000000000000000815260040180806020018281038252602181526020018061294b6021913960400191505060405180910390fd5b6002600083815260200190815260200160002060009054906101000a900473ffffffffffffffffffffffffffffffffffffffff169050919050565b600060016040518060200160405280848152509080600181540180825580915050600190039060005260206000200160009091909190915060008201518160000190805190602001906110559291906127c7565b505050600061106a6001805490506001611f50565b9050336002600083815260200190815260200160002060006101000a81548173ffffffffffffffffffffffffffffffffffffffff021916908373ffffffffffffffffffffffffffffffffffffffff160217905550807f25b2eff8f9cbb97c6c73adf7d94f4f8956260becc65ab075709db7561914a2b160405160405180910390a280915050919050565b60006110ff83611518565b80156111205750816004600085815260200190815260200160002080549050115b905092915050565b611130611552565b6111a2576040517f08c379a00000000000000000000000000000000000000000000000000000000081526004018080602001828103825260208152602001807f4f776e61626c653a2063616c6c6572206973206e6f7420746865206f776e657281525060200191505060405180910390fd5b600073ffffffffffffffffffffffffffffffffffffffff166000809054906101000a900473ffffffffffffffffffffffffffffffffffffffff1673ffffffffffffffffffffffffffffffffffffffff167f8be0079c531659141344cd1fd0a4f28419497f9722a3daafe3b4186f6b6457e060405160405180910390a360008060006101000a81548173ffffffffffffffffffffffffffffffffffffffff021916908373ffffffffffffffffffffffffffffffffffffffff160217905550565b8161126b81611518565b6112c0576040517f08c379a000000000000000000000000000000000000000000000000000000000815260040180806020018281038252602181526020018061294b6021913960400191505060405180910390fd5b3373ffffffffffffffffffffffffffffffffffffffff166002600083815260200190815260200160002060009054906101000a900473ffffffffffffffffffffffffffffffffffffffff1673ffffffffffffffffffffffffffffffffffffffff1614611377576040517f08c379a0000000000000000000000000000000000000000000000000000000008152600401808060200182810382526023815260200180612a906023913960400191505060405180910390fd5b81600073ffffffffffffffffffffffffffffffffffffffff168173ffffffffffffffffffffffffffffffffffffffff1614156113fe576040517f08c379a000000000000000000000000000000000000000000000000000000000815260040180806020018281038252602c8152602001806128ba602c913960400191505060405180910390fd5b8273ffffffffffffffffffffffffffffffffffffffff166002600086815260200190815260200160002060009054906101000a900473ffffffffffffffffffffffffffffffffffffffff1673ffffffffffffffffffffffffffffffffffffffff16857f2db5f9b069d085fba50688059d869a45ac805a9f56fe633ca94e0c306f25f30560405160405180910390a4826002600086815260200190815260200160002060006101000a81548173ffffffffffffffffffffffffffffffffffffffff021916908373ffffffffffffffffffffffffffffffffffffffff16021790555050505050565b600460205281600052604060002081815481106114fd57fe5b90600052602060002001600091509150508060000154905081565b600081600180549050119050919050565b60008060009054906101000a900473ffffffffffffffffffffffffffffffffffffffff16905090565b60008060009054906101000a900473ffffffffffffffffffffffffffffffffffffffff1673ffffffffffffffffffffffffffffffffffffffff16611594611f9a565b73ffffffffffffffffffffffffffffffffffffffff1614905090565b60006115bc83836110f4565b611611576040517f08c379a0000000000000000000000000000000000000000000000000000000008152600401808060200182810382526025815260200180612a3e6025913960400191505060405180910390fd5b3373ffffffffffffffffffffffffffffffffffffffff1660066000858152602001908152602001600020600084815260200190815260200160002060009054906101000a900473ffffffffffffffffffffffffffffffffffffffff1673ffffffffffffffffffffffffffffffffffffffff1614905092915050565b600360205281600052604060002081815481106116a557fe5b906000526020600020906004020160009150915050806000018054600181600116156101000203166002900480601f0160208091040260200160405190810160405280929190818152602001828054600181600116156101000203166002900480156117525780601f1061172757610100808354040283529160200191611752565b820191906000526020600020905b81548152906001019060200180831161173557829003601f168201915b5050505050908060010154908060020154908060030160009054906101000a900460ff16908060030160019054906101000a900460ff16908060030160029054906101000a900460ff16908060030160039054906101000a900460ff16908060030160049054906101000a900460ff16905088565b6000826117d381611518565b611828576040517f08c379a000000000000000000000000000000000000000000000000000000000815260040180806020018281038252602181526020018061294b6021913960400191505060405180910390fd5b3373ffffffffffffffffffffffffffffffffffffffff166002600083815260200190815260200160002060009054906101000a900473ffffffffffffffffffffffffffffffffffffffff1673ffffffffffffffffffffffffffffffffffffffff16146118df576040517f08c379a0000000000000000000000000000000000000000000000000000000008152600401808060200182810382526023815260200180612a906023913960400191505060405180910390fd5b6118ea848433611fa2565b91505092915050565b6001818154811061190057fe5b90600052602060002001600091509050806000018054600181600116156101000203166002900480601f0160208091040260200160405190810160405280929190818152602001828054600181600116156101000203166002900480156119a85780601f1061197d576101008083540402835291602001916119a8565b820191906000526020600020905b81548152906001019060200180831161198b57829003601f168201915b5050505050905081565b60006119bd82611518565b611a12576040517f08c379a000000000000000000000000000000000000000000000000000000000815260040180806020018281038252602181526020018061294b6021913960400191505060405180910390fd5b3373ffffffffffffffffffffffffffffffffffffffff166002600084815260200190815260200160002060009054906101000a900473ffffffffffffffffffffffffffffffffffffffff1673ffffffffffffffffffffffffffffffffffffffff16149050919050565b6060611a8682611518565b611adb576040517f08c379a000000000000000000000000000000000000000000000000000000000815260040180806020018281038252602181526020018061294b6021913960400191505060405180910390fd5b600060018381548110611aea57fe5b906000526020600020019050806000018054600181600116156101000203166002900480601f016020809104026020016040519081016040528092919081815260200182805460018160011615610100020316600290048015611b8e5780601f10611b6357610100808354040283529160200191611b8e565b820191906000526020600020905b815481529060010190602001808311611b7157829003601f168201915b5050505050915050919050565b60008073ffffffffffffffffffffffffffffffffffffffff168373ffffffffffffffffffffffffffffffffffffffff161415611c22576040517f08c379a00000000000000000000000000000000000000000000000000000000081526004018080602001828103825260428152602001806129c66042913960600191505060405180910390fd5b611c2b82611518565b611c80576040517f08c379a000000000000000000000000000000000000000000000000000000000815260040180806020018281038252602781526020018061286d6027913960400191505060405180910390fd5b611cd86005600084815260200190815260200160002060003373ffffffffffffffffffffffffffffffffffffffff1673ffffffffffffffffffffffffffffffffffffffff16815260200190815260200160002061228d565b905092915050565b611ce8611552565b611d5a576040517f08c379a00000000000000000000000000000000000000000000000000000000081526004018080602001828103825260208152602001807f4f776e61626c653a2063616c6c6572206973206e6f7420746865206f776e657281525060200191505060405180910390fd5b611d638161229b565b50565b8181611d7282826110f4565b611dc7576040517f08c379a0000000000000000000000000000000000000000000000000000000008152600401808060200182810382526025815260200180612a3e6025913960400191505060405180910390fd5b3373ffffffffffffffffffffffffffffffffffffffff1660066000848152602001908152602001600020600083815260200190815260200160002060009054906101000a900473ffffffffffffffffffffffffffffffffffffffff1673ffffffffffffffffffffffffffffffffffffffff1614611e8f576040517f08c379a00000000000000000000000000000000000000000000000000000000081526004018080602001828103825260218152602001806128e66021913960400191505060405180910390fd5b611e9b338686866123df565b5050505050565b6000611eae83836110f4565b611f03576040517f08c379a000000000000000000000000000000000000000000000000000000000815260040180806020018281038252602a81526020018061299c602a913960400191505060405180910390fd5b60066000848152602001908152602001600020600083815260200190815260200160002060009054906101000a900473ffffffffffffffffffffffffffffffffffffffff16905092915050565b6000611f9283836040518060400160405280601e81526020017f536166654d6174683a207375627472616374696f6e206f766572666c6f770000815250612671565b905092915050565b600033905090565b6000611fae8484610c1e565b612003576040517f08c379a000000000000000000000000000000000000000000000000000000000815260040180806020018281038252602a81526020018061299c602a913960400191505060405180910390fd5b600073ffffffffffffffffffffffffffffffffffffffff168273ffffffffffffffffffffffffffffffffffffffff161415612089576040517f08c379a000000000000000000000000000000000000000000000000000000000815260040180806020018281038252603081526020018061296c6030913960400191505060405180910390fd5b60006003600086815260200190815260200160002084815481106120a957fe5b906000526020600020906004020190506120c281612731565b612117576040517f08c379a000000000000000000000000000000000000000000000000000000000815260040180806020018281038252602d815260200180612a63602d913960400191505060405180910390fd5b6004600086815260200190815260200160002060405180602001604052808681525090806001815401808255809150506001900390600052602060002001600090919091909150600082015181600001555050600061218d60046000888152602001908152602001600020805490506001611f50565b90506121e76005600088815260200190815260200160002060008673ffffffffffffffffffffffffffffffffffffffff1673ffffffffffffffffffffffffffffffffffffffff16815260200190815260200160002061275c565b8360066000888152602001908152602001600020600083815260200190815260200160002060006101000a81548173ffffffffffffffffffffffffffffffffffffffff021916908373ffffffffffffffffffffffffffffffffffffffff16021790555061225382612772565b80867f591fb83da607b2c6982a1348c1689d04071f4851678881f0a7dd64331770cf5c60405160405180910390a380925050509392505050565b600081600001549050919050565b600073ffffffffffffffffffffffffffffffffffffffff168173ffffffffffffffffffffffffffffffffffffffff161415612321576040517f08c379a00000000000000000000000000000000000000000000000000000000081526004018080602001828103825260268152602001806128946026913960400191505060405180910390fd5b8073ffffffffffffffffffffffffffffffffffffffff166000809054906101000a900473ffffffffffffffffffffffffffffffffffffffff1673ffffffffffffffffffffffffffffffffffffffff167f8be0079c531659141344cd1fd0a4f28419497f9722a3daafe3b4186f6b6457e060405160405180910390a3806000806101000a81548173ffffffffffffffffffffffffffffffffffffffff021916908373ffffffffffffffffffffffffffffffffffffffff16021790555050565b8373ffffffffffffffffffffffffffffffffffffffff166124008383611ea2565b73ffffffffffffffffffffffffffffffffffffffff161461246c576040517f08c379a0000000000000000000000000000000000000000000000000000000008152600401808060200182810382526036815260200180612a086036913960400191505060405180910390fd5b600073ffffffffffffffffffffffffffffffffffffffff168373ffffffffffffffffffffffffffffffffffffffff1614156124f2576040517f08c379a00000000000000000000000000000000000000000000000000000000081526004018080602001828103825260448152602001806129076044913960600191505060405180910390fd5b61254a6005600084815260200190815260200160002060008673ffffffffffffffffffffffffffffffffffffffff1673ffffffffffffffffffffffffffffffffffffffff1681526020019081526020016000206127a4565b6125a26005600084815260200190815260200160002060008573ffffffffffffffffffffffffffffffffffffffff1673ffffffffffffffffffffffffffffffffffffffff16815260200190815260200160002061275c565b8260066000848152602001908152602001600020600083815260200190815260200160002060006101000a81548173ffffffffffffffffffffffffffffffffffffffff021916908373ffffffffffffffffffffffffffffffffffffffff1602179055508273ffffffffffffffffffffffffffffffffffffffff168473ffffffffffffffffffffffffffffffffffffffff16837f297028ce8af626c92b0bd8baa9fb2ab9a78677c4a12fac9d68113eb9d27208c7846040518082815260200191505060405180910390a450505050565b600083831115829061271e576040517f08c379a00000000000000000000000000000000000000000000000000000000081526004018080602001828103825283818151815260200191508051906020019080838360005b838110156126e35780820151818401526020810190506126c8565b50505050905090810190601f1680156127105780820380516001836020036101000a031916815260200191505b509250505060405180910390fd5b5060008385039050809150509392505050565b60008160030160009054906101000a900460ff168015612755575060008260010154145b9050919050565b6001816000016000828254019250508190555050565b8060030160009054906101000a900460ff16156127a15761279881600101546001611f50565b81600101819055505b50565b6127bc60018260000154611f5090919063ffffffff16565b816000018190555050565b828054600181600116156101000203166002900490600052602060002090601f016020900481019282601f1061280857805160ff1916838001178555612836565b82800160010185558215612836579182015b8281111561283557825182559160200191906001019061281a565b5b5090506128439190612847565b5090565b61286991905b8082111561286557600081600090555060010161284d565b5090565b9056fe4d61726b6574506f6f6c5f4974656d733a204d61726b657420646f6573206e6f742065786973744f776e61626c653a206e6577206f776e657220697320746865207a65726f20616464726573734d61726b6574506f6f6c3a20436865636b4164647265737320697320746865207a65726f20616464726573734d61726b6574506f6f6c5f4974656d733a204974206973206e6f74206f776e65724d61726b6574506f6f6c5f4974656d733a20417474656d707420746f2065737461626c6973682061206e6577206f776e65722061732061207a65726f20616464726573734d61726b6574506f6f6c3a204d61726b657420646f6573206e6f742065786973744d61726b6574506f6f6c5f4974656d733a204974656d204f776e657220697320746865207a65726f20616464726573734d61726b6574506f6f6c5f4974656d733a204974656d205479706520646f6573206e6f742065786973744d61726b6574506f6f6c5f4974656d733a20417474656d707420746f20636865636b207468652062616c616e636520617420746865207a65726f20616464726573734d61726b6574506f6f6c5f4974656d733a206974656d4f776e6572206973206e6f7420746865207265616c206974656d206f776e65724d61726b6574506f6f6c5f4974656d733a204974656d20646f6573206e6f742065786973744d61726b6574506f6f6c5f4974656d733a204974656d73206f662074686973207479706520617265206f7665724d61726b6574506f6f6c3a2043616c6c6572206973206e6f7420746865206f776e6572a264697066735822122036d0bbc244e351ce730c3d9f4c2ae11c823c101b1230b636af8a420f65f7ce9264736f6c63430006030033",
  "source": "pragma solidity >=0.6.0;\r\n\r\nimport \"./MarketPool_Items.sol\";\r\n\r\ncontract MarketPool_SaleRelease is MarketPool_Items {\r\n    using SafeMath for uint256;\r\n    \r\n    \r\n    \r\n}",
  "sourcePath": "E:\\MeineArbeit\\Solidity\\MarketPool\\contracts\\MarketPool_SaleRelease.sol",
  "compiler": {
    "name": "solc",
    "version": "0.6.3+commit.8dda9521.Emscripten.clang"
  },
  "schemaVersion": "3.0.23",
  "updatedAt": "2020-03-03T08:22:08.480Z",
  "devdoc": {
    "methods": {
      "createMarket(string)": {
        "params": {
          "name": "The name of marketplace"
        },
        "returns": {
          "_0": "id of the created market"
        }
      },
      "isOwner()": {
        "details": "Returns true if the caller is the current owner."
      },
      "owner()": {
        "details": "Returns the address of the current owner."
      },
      "renounceOwnership()": {
        "details": "Leaves the contract without owner. It will not be possible to call `onlyOwner` functions anymore. Can only be called by the current owner.     * NOTE: Renouncing ownership will leave the contract without an owner, thereby removing any functionality that is only available to the owner."
      },
      "transferOwnership(address)": {
        "details": "Transfers ownership of the contract to a new account (`newOwner`). Can only be called by the current owner."
      }
    }
  },
  "userdoc": {
    "methods": {
      "createItem(uint256,uint256)": {
        "notice": "Can call only owner. Create Item for selected Market and Type. Owner of item will be owner of market "
      },
      "createItemType(uint256,string,uint256,bool,bool,bool,bool,bool)": {
        "notice": "Create ItemType for selected Market."
      },
      "createMarket(string)": {
        "notice": "Create new Market for sender."
      },
      "getMarketData(uint256)": {
        "notice": "Return all data of market by its id"
      },
      "getMarketOwner(uint256)": {
        "notice": "Return addres of market owner"
      },
      "isMarketOwner(uint256)": {
        "notice": "Chech if it is market owner "
      },
      "marketExist(uint256)": {
        "notice": "Check if market exist "
      },
      "renounceMarketOwnership(uint256)": {
        "notice": "Renouncing ownership will leave the contract without an market owner, thereby removing any functionality that is only available to the market owner (e.g. creating new Item Types)."
      },
      "transferItem(address,uint256,uint256)": {
        "notice": "Can call only item owner. Change item owner to ('to')"
      },
      "transferMarketOwnership(uint256,address)": {
        "notice": "Transfers ownership of the ('marketId') to a new account (`newOwner`)."
      }
    }
  }
}