{
  "contractName": "MarketPool_ItemRelease_Sale",
  "abi": [
    {
      "anonymous": false,
      "inputs": [
        {
          "indexed": true,
          "internalType": "uint256",
          "name": "marketId",
          "type": "uint256"
        },
        {
          "indexed": true,
          "internalType": "uint256",
          "name": "itemTypeId",
          "type": "uint256"
        },
        {
          "indexed": true,
          "internalType": "uint256",
          "name": "itemId",
          "type": "uint256"
        }
      ],
      "name": "ItemCreated",
      "type": "event"
    },
    {
      "anonymous": false,
      "inputs": [
        {
          "indexed": true,
          "internalType": "uint256",
          "name": "marketId",
          "type": "uint256"
        },
        {
          "indexed": false,
          "internalType": "uint256",
          "name": "itemId",
          "type": "uint256"
        },
        {
          "indexed": true,
          "internalType": "address",
          "name": "previousOwner",
          "type": "address"
        },
        {
          "indexed": true,
          "internalType": "address",
          "name": "newOwner",
          "type": "address"
        }
      ],
      "name": "ItemOwnershipTransferred",
      "type": "event"
    },
    {
      "anonymous": false,
      "inputs": [
        {
          "indexed": true,
          "internalType": "uint256",
          "name": "marketId",
          "type": "uint256"
        },
        {
          "indexed": true,
          "internalType": "uint256",
          "name": "itemTypeId",
          "type": "uint256"
        }
      ],
      "name": "ItemTypeCreated",
      "type": "event"
    },
    {
      "anonymous": false,
      "inputs": [
        {
          "indexed": true,
          "internalType": "uint256",
          "name": "marketId",
          "type": "uint256"
        },
        {
          "indexed": true,
          "internalType": "address",
          "name": "owner",
          "type": "address"
        }
      ],
      "name": "MarketCreated",
      "type": "event"
    },
    {
      "anonymous": false,
      "inputs": [
        {
          "indexed": true,
          "internalType": "uint256",
          "name": "marketId",
          "type": "uint256"
        },
        {
          "indexed": true,
          "internalType": "address",
          "name": "previousOwner",
          "type": "address"
        },
        {
          "indexed": true,
          "internalType": "address",
          "name": "newOwner",
          "type": "address"
        }
      ],
      "name": "MarketOwnershipTransferred",
      "type": "event"
    },
    {
      "anonymous": false,
      "inputs": [
        {
          "indexed": true,
          "internalType": "address",
          "name": "previousOwner",
          "type": "address"
        },
        {
          "indexed": true,
          "internalType": "address",
          "name": "newOwner",
          "type": "address"
        }
      ],
      "name": "OwnershipTransferred",
      "type": "event"
    },
    {
      "anonymous": false,
      "inputs": [
        {
          "indexed": true,
          "internalType": "uint256",
          "name": "marketId",
          "type": "uint256"
        },
        {
          "indexed": true,
          "internalType": "uint256",
          "name": "saleReleaseInnerId",
          "type": "uint256"
        },
        {
          "indexed": false,
          "internalType": "uint256[]",
          "name": "itemIdArray",
          "type": "uint256[]"
        }
      ],
      "name": "SaleReleaseBought",
      "type": "event"
    },
    {
      "anonymous": false,
      "inputs": [
        {
          "indexed": true,
          "internalType": "uint256",
          "name": "marketId",
          "type": "uint256"
        },
        {
          "indexed": true,
          "internalType": "uint256",
          "name": "saleReleaseInnerId",
          "type": "uint256"
        }
      ],
      "name": "SaleReleaseCreated",
      "type": "event"
    },
    {
      "anonymous": false,
      "inputs": [
        {
          "indexed": true,
          "internalType": "uint256",
          "name": "marketId",
          "type": "uint256"
        },
        {
          "indexed": true,
          "internalType": "uint256",
          "name": "saleReleaseInnerId",
          "type": "uint256"
        }
      ],
      "name": "SaleReleaseRemoved",
      "type": "event"
    },
    {
      "anonymous": false,
      "inputs": [
        {
          "indexed": true,
          "internalType": "uint256",
          "name": "marketId",
          "type": "uint256"
        },
        {
          "indexed": true,
          "internalType": "uint256",
          "name": "saleReleaseInnerId",
          "type": "uint256"
        }
      ],
      "name": "SaleReleaseUpdated",
      "type": "event"
    },
    {
      "stateMutability": "payable",
      "type": "fallback"
    },
    {
      "inputs": [
        {
          "internalType": "uint256",
          "name": "marketId",
          "type": "uint256"
        },
        {
          "internalType": "address",
          "name": "itemsOwner",
          "type": "address"
        }
      ],
      "name": "balanceOfItems",
      "outputs": [
        {
          "internalType": "uint256",
          "name": "",
          "type": "uint256"
        }
      ],
      "stateMutability": "view",
      "type": "function"
    },
    {
      "inputs": [
        {
          "internalType": "uint256",
          "name": "marketId",
          "type": "uint256"
        },
        {
          "internalType": "uint256",
          "name": "typeId",
          "type": "uint256"
        }
      ],
      "name": "createItem",
      "outputs": [
        {
          "internalType": "uint256",
          "name": "",
          "type": "uint256"
        }
      ],
      "stateMutability": "nonpayable",
      "type": "function"
    },
    {
      "inputs": [
        {
          "internalType": "uint256",
          "name": "marketId",
          "type": "uint256"
        },
        {
          "internalType": "string",
          "name": "name",
          "type": "string"
        },
        {
          "internalType": "uint256",
          "name": "totalSupply",
          "type": "uint256"
        },
        {
          "internalType": "bool",
          "name": "allowSale",
          "type": "bool"
        },
        {
          "internalType": "bool",
          "name": "allowAuction",
          "type": "bool"
        },
        {
          "internalType": "bool",
          "name": "allowRent",
          "type": "bool"
        },
        {
          "internalType": "bool",
          "name": "allowLootbox",
          "type": "bool"
        }
      ],
      "name": "createItemType",
      "outputs": [
        {
          "internalType": "uint256",
          "name": "",
          "type": "uint256"
        }
      ],
      "stateMutability": "nonpayable",
      "type": "function"
    },
    {
      "inputs": [
        {
          "internalType": "string",
          "name": "name",
          "type": "string"
        }
      ],
      "name": "createMarket",
      "outputs": [
        {
          "internalType": "uint256",
          "name": "",
          "type": "uint256"
        }
      ],
      "stateMutability": "nonpayable",
      "type": "function"
    },
    {
      "inputs": [
        {
          "internalType": "uint256",
          "name": "marketId",
          "type": "uint256"
        },
        {
          "internalType": "uint256",
          "name": "itemId",
          "type": "uint256"
        }
      ],
      "name": "getItemData",
      "outputs": [
        {
          "internalType": "uint256",
          "name": "itemTypeId",
          "type": "uint256"
        }
      ],
      "stateMutability": "view",
      "type": "function"
    },
    {
      "inputs": [
        {
          "internalType": "uint256",
          "name": "marketId",
          "type": "uint256"
        },
        {
          "internalType": "uint256",
          "name": "itemId",
          "type": "uint256"
        }
      ],
      "name": "getItemOwner",
      "outputs": [
        {
          "internalType": "address",
          "name": "",
          "type": "address"
        }
      ],
      "stateMutability": "view",
      "type": "function"
    },
    {
      "inputs": [
        {
          "internalType": "uint256",
          "name": "marketId",
          "type": "uint256"
        },
        {
          "internalType": "uint256",
          "name": "typeId",
          "type": "uint256"
        }
      ],
      "name": "getItemTypeData",
      "outputs": [
        {
          "internalType": "string",
          "name": "name",
          "type": "string"
        },
        {
          "internalType": "uint256",
          "name": "remainingSupply",
          "type": "uint256"
        },
        {
          "internalType": "uint256",
          "name": "totalSupply",
          "type": "uint256"
        },
        {
          "internalType": "bool",
          "name": "isFinal",
          "type": "bool"
        },
        {
          "internalType": "bool",
          "name": "allowSale",
          "type": "bool"
        },
        {
          "internalType": "bool",
          "name": "allowAuction",
          "type": "bool"
        },
        {
          "internalType": "bool",
          "name": "allowRent",
          "type": "bool"
        },
        {
          "internalType": "bool",
          "name": "allowLootbox",
          "type": "bool"
        }
      ],
      "stateMutability": "view",
      "type": "function"
    },
    {
      "inputs": [
        {
          "internalType": "address",
          "name": "owner",
          "type": "address"
        }
      ],
      "name": "getMarketCounts",
      "outputs": [
        {
          "internalType": "uint256",
          "name": "",
          "type": "uint256"
        }
      ],
      "stateMutability": "view",
      "type": "function"
    },
    {
      "inputs": [
        {
          "internalType": "uint256",
          "name": "marketId",
          "type": "uint256"
        }
      ],
      "name": "getMarketData",
      "outputs": [
        {
          "internalType": "string",
          "name": "name",
          "type": "string"
        }
      ],
      "stateMutability": "view",
      "type": "function"
    },
    {
      "inputs": [
        {
          "internalType": "uint256",
          "name": "marketId",
          "type": "uint256"
        }
      ],
      "name": "getMarketOwner",
      "outputs": [
        {
          "internalType": "address",
          "name": "",
          "type": "address"
        }
      ],
      "stateMutability": "view",
      "type": "function"
    },
    {
      "inputs": [
        {
          "internalType": "uint256",
          "name": "marketId",
          "type": "uint256"
        },
        {
          "internalType": "uint256",
          "name": "itemId",
          "type": "uint256"
        }
      ],
      "name": "isItemOwner",
      "outputs": [
        {
          "internalType": "bool",
          "name": "",
          "type": "bool"
        }
      ],
      "stateMutability": "view",
      "type": "function"
    },
    {
      "inputs": [
        {
          "internalType": "uint256",
          "name": "marketId",
          "type": "uint256"
        }
      ],
      "name": "isMarketOwner",
      "outputs": [
        {
          "internalType": "bool",
          "name": "",
          "type": "bool"
        }
      ],
      "stateMutability": "view",
      "type": "function"
    },
    {
      "inputs": [],
      "name": "isOwner",
      "outputs": [
        {
          "internalType": "bool",
          "name": "",
          "type": "bool"
        }
      ],
      "stateMutability": "view",
      "type": "function"
    },
    {
      "inputs": [
        {
          "internalType": "uint256",
          "name": "marketId",
          "type": "uint256"
        },
        {
          "internalType": "uint256",
          "name": "itemId",
          "type": "uint256"
        }
      ],
      "name": "itemExist",
      "outputs": [
        {
          "internalType": "bool",
          "name": "",
          "type": "bool"
        }
      ],
      "stateMutability": "view",
      "type": "function"
    },
    {
      "inputs": [
        {
          "internalType": "uint256",
          "name": "marketId",
          "type": "uint256"
        },
        {
          "internalType": "uint256",
          "name": "typeId",
          "type": "uint256"
        }
      ],
      "name": "itemTypeExist",
      "outputs": [
        {
          "internalType": "bool",
          "name": "",
          "type": "bool"
        }
      ],
      "stateMutability": "view",
      "type": "function"
    },
    {
      "inputs": [
        {
          "internalType": "uint256",
          "name": "marketId",
          "type": "uint256"
        }
      ],
      "name": "marketExist",
      "outputs": [
        {
          "internalType": "bool",
          "name": "",
          "type": "bool"
        }
      ],
      "stateMutability": "view",
      "type": "function"
    },
    {
      "inputs": [
        {
          "internalType": "uint256",
          "name": "",
          "type": "uint256"
        },
        {
          "internalType": "uint256",
          "name": "",
          "type": "uint256"
        }
      ],
      "name": "marketToItemToOwner",
      "outputs": [
        {
          "internalType": "address",
          "name": "",
          "type": "address"
        }
      ],
      "stateMutability": "view",
      "type": "function"
    },
    {
      "inputs": [
        {
          "internalType": "uint256",
          "name": "",
          "type": "uint256"
        },
        {
          "internalType": "uint256",
          "name": "",
          "type": "uint256"
        }
      ],
      "name": "marketToItemTypes",
      "outputs": [
        {
          "internalType": "string",
          "name": "name",
          "type": "string"
        },
        {
          "internalType": "uint256",
          "name": "remainingSupply",
          "type": "uint256"
        },
        {
          "internalType": "uint256",
          "name": "totalSupply",
          "type": "uint256"
        },
        {
          "internalType": "bool",
          "name": "isFinal",
          "type": "bool"
        },
        {
          "internalType": "bool",
          "name": "allowSale",
          "type": "bool"
        },
        {
          "internalType": "bool",
          "name": "allowAuction",
          "type": "bool"
        },
        {
          "internalType": "bool",
          "name": "allowRent",
          "type": "bool"
        },
        {
          "internalType": "bool",
          "name": "allowLootbox",
          "type": "bool"
        }
      ],
      "stateMutability": "view",
      "type": "function"
    },
    {
      "inputs": [
        {
          "internalType": "uint256",
          "name": "",
          "type": "uint256"
        },
        {
          "internalType": "uint256",
          "name": "",
          "type": "uint256"
        }
      ],
      "name": "marketToItems",
      "outputs": [
        {
          "internalType": "uint256",
          "name": "typeId",
          "type": "uint256"
        }
      ],
      "stateMutability": "view",
      "type": "function"
    },
    {
      "inputs": [
        {
          "internalType": "uint256",
          "name": "",
          "type": "uint256"
        },
        {
          "internalType": "address",
          "name": "",
          "type": "address"
        }
      ],
      "name": "marketToUsersToItemsCount",
      "outputs": [
        {
          "internalType": "uint256",
          "name": "_value",
          "type": "uint256"
        }
      ],
      "stateMutability": "view",
      "type": "function"
    },
    {
      "inputs": [
        {
          "internalType": "uint256",
          "name": "",
          "type": "uint256"
        }
      ],
      "name": "markets",
      "outputs": [
        {
          "internalType": "string",
          "name": "name",
          "type": "string"
        }
      ],
      "stateMutability": "view",
      "type": "function"
    },
    {
      "inputs": [],
      "name": "owner",
      "outputs": [
        {
          "internalType": "address",
          "name": "",
          "type": "address"
        }
      ],
      "stateMutability": "view",
      "type": "function"
    },
    {
      "inputs": [
        {
          "internalType": "uint256",
          "name": "marketId",
          "type": "uint256"
        }
      ],
      "name": "renounceMarketOwnership",
      "outputs": [],
      "stateMutability": "nonpayable",
      "type": "function"
    },
    {
      "inputs": [],
      "name": "renounceOwnership",
      "outputs": [],
      "stateMutability": "nonpayable",
      "type": "function"
    },
    {
      "inputs": [
        {
          "internalType": "uint256",
          "name": "marketId",
          "type": "uint256"
        },
        {
          "internalType": "uint256",
          "name": "itemId",
          "type": "uint256"
        },
        {
          "internalType": "address",
          "name": "to",
          "type": "address"
        }
      ],
      "name": "transferItemOwnership",
      "outputs": [],
      "stateMutability": "nonpayable",
      "type": "function"
    },
    {
      "inputs": [
        {
          "internalType": "uint256",
          "name": "marketId",
          "type": "uint256"
        },
        {
          "internalType": "address",
          "name": "newOwner",
          "type": "address"
        }
      ],
      "name": "transferMarketOwnership",
      "outputs": [],
      "stateMutability": "nonpayable",
      "type": "function"
    },
    {
      "inputs": [
        {
          "internalType": "address",
          "name": "newOwner",
          "type": "address"
        }
      ],
      "name": "transferOwnership",
      "outputs": [],
      "stateMutability": "nonpayable",
      "type": "function"
    },
    {
      "inputs": [],
      "name": "withdraw",
      "outputs": [],
      "stateMutability": "nonpayable",
      "type": "function"
    },
    {
      "stateMutability": "payable",
      "type": "receive"
    },
    {
      "inputs": [
        {
          "internalType": "uint256",
          "name": "marketId",
          "type": "uint256"
        },
        {
          "internalType": "uint256[]",
          "name": "itemTypeIdArray",
          "type": "uint256[]"
        },
        {
          "internalType": "uint256",
          "name": "totalSupply",
          "type": "uint256"
        },
        {
          "internalType": "uint256",
          "name": "priceInWei",
          "type": "uint256"
        },
        {
          "internalType": "bool",
          "name": "enable",
          "type": "bool"
        }
      ],
      "name": "createSaleRelease",
      "outputs": [],
      "stateMutability": "nonpayable",
      "type": "function"
    },
    {
      "inputs": [
        {
          "internalType": "uint256",
          "name": "marketId",
          "type": "uint256"
        },
        {
          "internalType": "uint256",
          "name": "saleReleaseInnerId",
          "type": "uint256"
        }
      ],
      "name": "removeSaleRelease",
      "outputs": [],
      "stateMutability": "nonpayable",
      "type": "function"
    },
    {
      "inputs": [
        {
          "internalType": "uint256",
          "name": "marketId",
          "type": "uint256"
        },
        {
          "internalType": "uint256",
          "name": "saleReleaseInnerId",
          "type": "uint256"
        },
        {
          "internalType": "uint256",
          "name": "totalSupply",
          "type": "uint256"
        },
        {
          "internalType": "uint256",
          "name": "priceInWei",
          "type": "uint256"
        },
        {
          "internalType": "bool",
          "name": "enable",
          "type": "bool"
        }
      ],
      "name": "updateSaleRelease",
      "outputs": [],
      "stateMutability": "nonpayable",
      "type": "function"
    },
    {
      "inputs": [
        {
          "internalType": "uint256",
          "name": "marketId",
          "type": "uint256"
        },
        {
          "internalType": "uint256",
          "name": "itemTypeId",
          "type": "uint256"
        }
      ],
      "name": "getSaleReleaseArrayForItemType",
      "outputs": [
        {
          "internalType": "uint256[]",
          "name": "",
          "type": "uint256[]"
        }
      ],
      "stateMutability": "view",
      "type": "function"
    }
  ],
  "bytecode": "0x60806040526040518060200160405250600062000021620000c560201b60201c565b9050806000806101000a81548173ffffffffffffffffffffffffffffffffffffffff021916908373ffffffffffffffffffffffffffffffffffffffff1602179055508073ffffffffffffffffffffffffffffffffffffffff16600073ffffffffffffffffffffffffffffffffffffffff167f8be0079c531659141344cd1fd0a4f28419497f9722a3daafe3b4186f6b6457e060405160405180910390a350620000cd565b600033905090565b61565980620000dd6000396000f3fe6080604052600436106101e75760003560e01c80638bce7c3011610102578063b1283e7711610095578063f2fde38b11610064578063f2fde38b14610efe578063f373f04814610f4f578063fc3ff78014610fa8578063fcc08cd414611017576101ee565b8063b1283e7714610c65578063bb6b53bf14610d19578063bfacba3d14610d6c578063cf30f56f14610e20576101ee565b8063a4a12e74116100d1578063a4a12e7414610a47578063a84fc48514610aac578063ad661efe14610b09578063adae08dd14610c0c576101ee565b80638bce7c30146108e95780638be527021461096e5780638da5cb5b146109c15780638f32d59b14610a18576101ee565b80634bafae4f1161017a5780636e7c1705116101495780636e7c1705146107c1578063715018a61461081e5780637cfc1818146108355780638a4021bd14610890576101ee565b80634bafae4f146105cc5780634e16ff681461061157806354888f551461067657806363a2441114610752576101ee565b8063380cb76e116101b6578063380cb76e146103d25780633b64a7b7146104d55780633ccfd60b1461053a5780633d36902914610551576101ee565b806307309846146101f0578063160909621461022b57806324416b1714610288578063320c4f9814610338576101ee565b366101ee57005b005b3480156101fc57600080fd5b506102296004803603602081101561021357600080fd5b810190808035906020019092919050505061109c565b005b34801561023757600080fd5b5061026e6004803603604081101561024e57600080fd5b810190808035906020019092919080359060200190929190505050611319565b604051808215151515815260200191505060405180910390f35b34801561029457600080fd5b50610336600480360360a08110156102ab57600080fd5b8101908080359060200190929190803590602001906401000000008111156102d257600080fd5b8201836020820111156102e457600080fd5b8035906020019184602083028401116401000000008311171561030657600080fd5b9091929391929390803590602001909291908035906020019092919080351515906020019092919050505061134d565b005b34801561034457600080fd5b5061037b6004803603604081101561035b57600080fd5b8101908080359060200190929190803590602001909291905050506115c4565b6040518080602001828103825283818151815260200191508051906020019060200280838360005b838110156103be5780820151818401526020810190506103a3565b505050509050019250505060405180910390f35b3480156103de57600080fd5b50610415600480360360408110156103f557600080fd5b810190808035906020019092919080359060200190929190505050611647565b6040518080602001898152602001888152602001871515151581526020018615151515815260200185151515158152602001841515151581526020018315151515815260200182810382528a818151815260200191508051906020019080838360005b83811015610493578082015181840152602081019050610478565b50505050905090810190601f1680156104c05780820380516001836020036101000a031916815260200191505b50995050505050505050505060405180910390f35b3480156104e157600080fd5b50610538600480360360608110156104f857600080fd5b810190808035906020019092919080359060200190929190803573ffffffffffffffffffffffffffffffffffffffff16906020019092919050505061187f565b005b34801561054657600080fd5b5061054f611a60565b005b34801561055d57600080fd5b5061058a6004803603602081101561057457600080fd5b8101908080359060200190929190505050611b30565b604051808273ffffffffffffffffffffffffffffffffffffffff1673ffffffffffffffffffffffffffffffffffffffff16815260200191505060405180910390f35b3480156105d857600080fd5b5061060f600480360360408110156105ef57600080fd5b810190808035906020019092919080359060200190929190505050611bcd565b005b34801561061d57600080fd5b50610674600480360360a081101561063457600080fd5b8101908080359060200190929190803590602001909291908035906020019092919080359060200190929190803515159060200190929190505050611d66565b005b34801561068257600080fd5b5061073c6004803603602081101561069957600080fd5b81019080803590602001906401000000008111156106b657600080fd5b8201836020820111156106c857600080fd5b803590602001918460018302840111640100000000831117156106ea57600080fd5b91908080601f016020809104026020016040519081016040528093929190818152602001838380828437600081840152601f19601f820116905080830192505050505050509192919290505050611f08565b6040518082815260200191505060405180910390f35b34801561075e57600080fd5b506107ab6004803603604081101561077557600080fd5b8101908080359060200190929190803573ffffffffffffffffffffffffffffffffffffffff169060200190929190505050612061565b6040518082815260200191505060405180910390f35b3480156107cd57600080fd5b50610804600480360360408110156107e457600080fd5b81019080803590602001909291908035906020019092919050505061208c565b604051808215151515815260200191505060405180910390f35b34801561082a57600080fd5b506108336120c0565b005b34801561084157600080fd5b5061088e6004803603604081101561085857600080fd5b8101908080359060200190929190803573ffffffffffffffffffffffffffffffffffffffff1690602001909291905050506121f9565b005b34801561089c57600080fd5b506108d3600480360360408110156108b357600080fd5b810190808035906020019092919080359060200190929190505050612561565b6040518082815260200191505060405180910390f35b3480156108f557600080fd5b5061092c6004803603604081101561090c57600080fd5b810190808035906020019092919080359060200190929190505050612595565b604051808273ffffffffffffffffffffffffffffffffffffffff1673ffffffffffffffffffffffffffffffffffffffff16815260200191505060405180910390f35b34801561097a57600080fd5b506109a76004803603602081101561099157600080fd5b81019080803590602001909291905050506125d7565b604051808215151515815260200191505060405180910390f35b3480156109cd57600080fd5b506109d66125e8565b604051808273ffffffffffffffffffffffffffffffffffffffff1673ffffffffffffffffffffffffffffffffffffffff16815260200191505060405180910390f35b348015610a2457600080fd5b50610a2d612611565b604051808215151515815260200191505060405180910390f35b348015610a5357600080fd5b50610a9660048036036020811015610a6a57600080fd5b81019080803573ffffffffffffffffffffffffffffffffffffffff16906020019092919050505061266f565b6040518082815260200191505060405180910390f35b348015610ab857600080fd5b50610aef60048036036040811015610acf57600080fd5b8101908080359060200190929190803590602001909291905050506126bf565b604051808215151515815260200191505060405180910390f35b348015610b1557600080fd5b50610b4c60048036036040811015610b2c57600080fd5b81019080803590602001909291908035906020019092919050505061279b565b6040518080602001898152602001888152602001871515151581526020018615151515815260200185151515158152602001841515151581526020018315151515815260200182810382528a818151815260200191508051906020019080838360005b83811015610bca578082015181840152602081019050610baf565b50505050905090810190601f168015610bf75780820380516001836020036101000a031916815260200191505b50995050505050505050505060405180910390f35b348015610c1857600080fd5b50610c4f60048036036040811015610c2f57600080fd5b8101908080359060200190929190803590602001909291905050506128d6565b6040518082815260200191505060405180910390f35b348015610c7157600080fd5b50610c9e60048036036020811015610c8857600080fd5b8101908080359060200190929190505050612a9f565b6040518080602001828103825283818151815260200191508051906020019080838360005b83811015610cde578082015181840152602081019050610cc3565b50505050905090810190601f168015610d0b5780820380516001836020036101000a031916815260200191505b509250505060405180910390f35b348015610d2557600080fd5b50610d5260048036036020811015610d3c57600080fd5b8101908080359060200190929190505050612b5e565b604051808215151515815260200191505060405180910390f35b348015610d7857600080fd5b50610da560048036036020811015610d8f57600080fd5b8101908080359060200190929190505050612c29565b6040518080602001828103825283818151815260200191508051906020019080838360005b83811015610de5578082015181840152602081019050610dca565b50505050905090810190601f168015610e125780820380516001836020036101000a031916815260200191505b509250505060405180910390f35b348015610e2c57600080fd5b50610ee8600480360360e0811015610e4357600080fd5b810190808035906020019092919080359060200190640100000000811115610e6a57600080fd5b820183602082011115610e7c57600080fd5b80359060200191846001830284011164010000000083111715610e9e57600080fd5b909192939192939080359060200190929190803515159060200190929190803515159060200190929190803515159060200190929190803515159060200190929190505050612d4b565b6040518082815260200191505060405180910390f35b348015610f0a57600080fd5b50610f4d60048036036020811015610f2157600080fd5b81019080803573ffffffffffffffffffffffffffffffffffffffff1690602001909291905050506130a4565b005b348015610f5b57600080fd5b50610f9260048036036040811015610f7257600080fd5b81019080803590602001909291908035906020019092919050505061312a565b6040518082815260200191505060405180910390f35b348015610fb457600080fd5b5061100160048036036040811015610fcb57600080fd5b8101908080359060200190929190803573ffffffffffffffffffffffffffffffffffffffff1690602001909291905050506131e4565b6040518082815260200191505060405180910390f35b34801561102357600080fd5b5061105a6004803603604081101561103a57600080fd5b810190808035906020019092919080359060200190929190505050613329565b604051808273ffffffffffffffffffffffffffffffffffffffff1673ffffffffffffffffffffffffffffffffffffffff16815260200191505060405180910390f35b806110a6816125d7565b611118576040517f08c379a00000000000000000000000000000000000000000000000000000000081526004018080602001828103825260158152602001807f4d61726b657420646f6573206e6f74206578697374000000000000000000000081525060200191505060405180910390fd5b3373ffffffffffffffffffffffffffffffffffffffff166002600083815260200190815260200160002060009054906101000a900473ffffffffffffffffffffffffffffffffffffffff1673ffffffffffffffffffffffffffffffffffffffff16146111ec576040517f08c379a00000000000000000000000000000000000000000000000000000000081526004018080602001828103825260178152602001807f43616c6c6572206973206e6f7420746865206f776e657200000000000000000081525060200191505060405180910390fd5b600073ffffffffffffffffffffffffffffffffffffffff166002600084815260200190815260200160002060009054906101000a900473ffffffffffffffffffffffffffffffffffffffff1673ffffffffffffffffffffffffffffffffffffffff16837f2db5f9b069d085fba50688059d869a45ac805a9f56fe633ca94e0c306f25f30560405160405180910390a46112c2600360003373ffffffffffffffffffffffffffffffffffffffff1673ffffffffffffffffffffffffffffffffffffffff1681526020019081526020016000206133d7565b60006002600084815260200190815260200160002060006101000a81548173ffffffffffffffffffffffffffffffffffffffff021916908373ffffffffffffffffffffffffffffffffffffffff1602179055505050565b6000611324836125d7565b80156113455750816004600085815260200190815260200160002080549050115b905092915050565b85611357816125d7565b6113c9576040517f08c379a00000000000000000000000000000000000000000000000000000000081526004018080602001828103825260158152602001807f4d61726b657420646f6573206e6f74206578697374000000000000000000000081525060200191505060405180910390fd5b3373ffffffffffffffffffffffffffffffffffffffff166002600083815260200190815260200160002060009054906101000a900473ffffffffffffffffffffffffffffffffffffffff1673ffffffffffffffffffffffffffffffffffffffff161461149d576040517f08c379a00000000000000000000000000000000000000000000000000000000081526004018080602001828103825260178152602001807f43616c6c6572206973206e6f7420746865206f776e657200000000000000000081525060200191505060405180910390fd5b60008090505b8686905081101561152a576114ca888888848181106114be57fe5b90506020020135611319565b61151f576040517f08c379a00000000000000000000000000000000000000000000000000000000081526004018080602001828103825260248152602001806154b46024913960400191505060405180910390fd5b8060010190506114a3565b50600061158a88888880806020026020016040519081016040528093929190818152602001838360200280828437600081840152601f19601f8201169050808301925050505050505087878760086133fa9095949392919063ffffffff16565b905080887f10dc4d4676f6c21b9013aadb922c721c1e8443eced07fccbf1dc97cbca7ff72e60405160405180910390a35050505050505050565b606082826115d28282611319565b611627576040517f08c379a000000000000000000000000000000000000000000000000000000000815260040180806020018281038252602a8152602001806154d8602a913960400191505060405180910390fd5b61163d858560086136649092919063ffffffff16565b9250505092915050565b6060600080600080600080600089896116608282611319565b6116b5576040517f08c379a000000000000000000000000000000000000000000000000000000000815260040180806020018281038252602a8152602001806154d8602a913960400191505060405180910390fd5b6116bd615280565b600460008e81526020019081526020016000208c815481106116db57fe5b906000526020600020906004020160405180610100016040529081600082018054600181600116156101000203166002900480601f01602080910402602001604051908101604052809291908181526020018280546001816001161561010002031660029004801561178e5780601f106117635761010080835404028352916020019161178e565b820191906000526020600020905b81548152906001019060200180831161177157829003601f168201915b5050505050815260200160018201548152602001600282015481526020016003820160009054906101000a900460ff161515151581526020016003820160019054906101000a900460ff161515151581526020016003820160029054906101000a900460ff161515151581526020016003820160039054906101000a900460ff161515151581526020016003820160049054906101000a900460ff1615151515815250509050806000015181602001518260400151836060015184608001518560a001518660c001518760e001518797509a509a509a509a509a509a509a509a505050509295985092959890939650565b828261188b828261208c565b6118e0576040517f08c379a00000000000000000000000000000000000000000000000000000000081526004018080602001828103825260258152602001806155cb6025913960400191505060405180910390fd5b3373ffffffffffffffffffffffffffffffffffffffff1660076000848152602001908152602001600020600083815260200190815260200160002060009054906101000a900473ffffffffffffffffffffffffffffffffffffffff1673ffffffffffffffffffffffffffffffffffffffff16146119a8576040517f08c379a00000000000000000000000000000000000000000000000000000000081526004018080602001828103825260218152602001806154726021913960400191505060405180910390fd5b82600073ffffffffffffffffffffffffffffffffffffffff168173ffffffffffffffffffffffffffffffffffffffff161415611a4c576040517f08c379a00000000000000000000000000000000000000000000000000000000081526004018080602001828103825260208152602001807f436865636b4164647265737320697320746865207a65726f206164647265737381525060200191505060405180910390fd5b611a588686338761395d565b505050505050565b611a68612611565b611ada576040517f08c379a00000000000000000000000000000000000000000000000000000000081526004018080602001828103825260208152602001807f4f776e61626c653a2063616c6c6572206973206e6f7420746865206f776e657281525060200191505060405180910390fd5b6000611ae46125e8565b90508073ffffffffffffffffffffffffffffffffffffffff166108fc479081150290604051600060405180830381858888f19350505050158015611b2c573d6000803e3d6000fd5b5050565b600081611b3c816125d7565b611b91576040517f08c379a00000000000000000000000000000000000000000000000000000000081526004018080602001828103825260218152602001806154936021913960400191505060405180910390fd5b6002600084815260200190815260200160002060009054906101000a900473ffffffffffffffffffffffffffffffffffffffff16915050919050565b81611bd7816125d7565b611c49576040517f08c379a00000000000000000000000000000000000000000000000000000000081526004018080602001828103825260158152602001807f4d61726b657420646f6573206e6f74206578697374000000000000000000000081525060200191505060405180910390fd5b3373ffffffffffffffffffffffffffffffffffffffff166002600083815260200190815260200160002060009054906101000a900473ffffffffffffffffffffffffffffffffffffffff1673ffffffffffffffffffffffffffffffffffffffff1614611d1d576040517f08c379a00000000000000000000000000000000000000000000000000000000081526004018080602001828103825260178152602001807f43616c6c6572206973206e6f7420746865206f776e657200000000000000000081525060200191505060405180910390fd5b611d3383836008613d2d9092919063ffffffff16565b81837f2f762ee004b9ff8b61a844362a6d15a0ffa899daa02d97928b211ec2df9c4b7d60405160405180910390a3505050565b84611d70816125d7565b611de2576040517f08c379a00000000000000000000000000000000000000000000000000000000081526004018080602001828103825260158152602001807f4d61726b657420646f6573206e6f74206578697374000000000000000000000081525060200191505060405180910390fd5b3373ffffffffffffffffffffffffffffffffffffffff166002600083815260200190815260200160002060009054906101000a900473ffffffffffffffffffffffffffffffffffffffff1673ffffffffffffffffffffffffffffffffffffffff1614611eb6576040517f08c379a00000000000000000000000000000000000000000000000000000000081526004018080602001828103825260178152602001807f43616c6c6572206973206e6f7420746865206f776e657200000000000000000081525060200191505060405180910390fd5b611ed2868686868660086140519095949392919063ffffffff16565b84867fa1cb4c20d9583e1afc1bd5adb628dc27a5fafbdbafb83723a7e5a6eebb18650060405160405180910390a3505050505050565b60006001604051806020016040528084815250908060018154018082558091505060019003906000526020600020016000909190919091506000820151816000019080519060200190611f5c9291906152cf565b5050506000611f79600180805490506141f790919063ffffffff16565b9050336002600083815260200190815260200160002060006101000a81548173ffffffffffffffffffffffffffffffffffffffff021916908373ffffffffffffffffffffffffffffffffffffffff160217905550612014600360003373ffffffffffffffffffffffffffffffffffffffff1673ffffffffffffffffffffffffffffffffffffffff168152602001908152602001600020614241565b3373ffffffffffffffffffffffffffffffffffffffff16817fd301e501188d220cc44d05fa5ee3c14454746932c7d6598933e7fddc78bea7f060405160405180910390a380915050919050565b6006602052816000526040600020602052806000526040600020600091509150508060000154905081565b6000612097836125d7565b80156120b85750816005600085815260200190815260200160002080549050115b905092915050565b6120c8612611565b61213a576040517f08c379a00000000000000000000000000000000000000000000000000000000081526004018080602001828103825260208152602001807f4f776e61626c653a2063616c6c6572206973206e6f7420746865206f776e657281525060200191505060405180910390fd5b600073ffffffffffffffffffffffffffffffffffffffff166000809054906101000a900473ffffffffffffffffffffffffffffffffffffffff1673ffffffffffffffffffffffffffffffffffffffff167f8be0079c531659141344cd1fd0a4f28419497f9722a3daafe3b4186f6b6457e060405160405180910390a360008060006101000a81548173ffffffffffffffffffffffffffffffffffffffff021916908373ffffffffffffffffffffffffffffffffffffffff160217905550565b81612203816125d7565b612275576040517f08c379a00000000000000000000000000000000000000000000000000000000081526004018080602001828103825260158152602001807f4d61726b657420646f6573206e6f74206578697374000000000000000000000081525060200191505060405180910390fd5b3373ffffffffffffffffffffffffffffffffffffffff166002600083815260200190815260200160002060009054906101000a900473ffffffffffffffffffffffffffffffffffffffff1673ffffffffffffffffffffffffffffffffffffffff1614612349576040517f08c379a00000000000000000000000000000000000000000000000000000000081526004018080602001828103825260178152602001807f43616c6c6572206973206e6f7420746865206f776e657200000000000000000081525060200191505060405180910390fd5b81600073ffffffffffffffffffffffffffffffffffffffff168173ffffffffffffffffffffffffffffffffffffffff1614156123ed576040517f08c379a00000000000000000000000000000000000000000000000000000000081526004018080602001828103825260208152602001807f436865636b4164647265737320697320746865207a65726f206164647265737381525060200191505060405180910390fd5b8273ffffffffffffffffffffffffffffffffffffffff166002600086815260200190815260200160002060009054906101000a900473ffffffffffffffffffffffffffffffffffffffff1673ffffffffffffffffffffffffffffffffffffffff16857f2db5f9b069d085fba50688059d869a45ac805a9f56fe633ca94e0c306f25f30560405160405180910390a4826002600086815260200190815260200160002060006101000a81548173ffffffffffffffffffffffffffffffffffffffff021916908373ffffffffffffffffffffffffffffffffffffffff160217905550612514600360003373ffffffffffffffffffffffffffffffffffffffff1673ffffffffffffffffffffffffffffffffffffffff1681526020019081526020016000206133d7565b61255b600360008573ffffffffffffffffffffffffffffffffffffffff1673ffffffffffffffffffffffffffffffffffffffff168152602001908152602001600020614241565b50505050565b6005602052816000526040600020818154811061257a57fe5b90600052602060002001600091509150508060000154905081565b60076020528160005260406000206020528060005260406000206000915091509054906101000a900473ffffffffffffffffffffffffffffffffffffffff1681565b600081600180549050119050919050565b60008060009054906101000a900473ffffffffffffffffffffffffffffffffffffffff16905090565b60008060009054906101000a900473ffffffffffffffffffffffffffffffffffffffff1673ffffffffffffffffffffffffffffffffffffffff16612653614257565b73ffffffffffffffffffffffffffffffffffffffff1614905090565b60006126b8600360008473ffffffffffffffffffffffffffffffffffffffff1673ffffffffffffffffffffffffffffffffffffffff16815260200190815260200160002061425f565b9050919050565b60006126cb838361208c565b612720576040517f08c379a00000000000000000000000000000000000000000000000000000000081526004018080602001828103825260258152602001806155cb6025913960400191505060405180910390fd5b3373ffffffffffffffffffffffffffffffffffffffff1660076000858152602001908152602001600020600084815260200190815260200160002060009054906101000a900473ffffffffffffffffffffffffffffffffffffffff1673ffffffffffffffffffffffffffffffffffffffff1614905092915050565b600460205281600052604060002081815481106127b457fe5b906000526020600020906004020160009150915050806000018054600181600116156101000203166002900480601f0160208091040260200160405190810160405280929190818152602001828054600181600116156101000203166002900480156128615780601f1061283657610100808354040283529160200191612861565b820191906000526020600020905b81548152906001019060200180831161284457829003601f168201915b5050505050908060010154908060020154908060030160009054906101000a900460ff16908060030160019054906101000a900460ff16908060030160029054906101000a900460ff16908060030160039054906101000a900460ff16908060030160049054906101000a900460ff16905088565b6000826128e2816125d7565b612954576040517f08c379a00000000000000000000000000000000000000000000000000000000081526004018080602001828103825260158152602001807f4d61726b657420646f6573206e6f74206578697374000000000000000000000081525060200191505060405180910390fd5b3373ffffffffffffffffffffffffffffffffffffffff166002600083815260200190815260200160002060009054906101000a900473ffffffffffffffffffffffffffffffffffffffff1673ffffffffffffffffffffffffffffffffffffffff1614612a28576040517f08c379a00000000000000000000000000000000000000000000000000000000081526004018080602001828103825260178152602001807f43616c6c6572206973206e6f7420746865206f776e657200000000000000000081525060200191505060405180910390fd5b8383612a348282611319565b612a89576040517f08c379a000000000000000000000000000000000000000000000000000000000815260040180806020018281038252602a8152602001806154d8602a913960400191505060405180910390fd5b612a9486863361426d565b935050505092915050565b60018181548110612aac57fe5b90600052602060002001600091509050806000018054600181600116156101000203166002900480601f016020809104026020016040519081016040528092919081815260200182805460018160011615610100020316600290048015612b545780601f10612b2957610100808354040283529160200191612b54565b820191906000526020600020905b815481529060010190602001808311612b3757829003601f168201915b5050505050905081565b600081612b6a816125d7565b612bbf576040517f08c379a00000000000000000000000000000000000000000000000000000000081526004018080602001828103825260218152602001806154936021913960400191505060405180910390fd5b3373ffffffffffffffffffffffffffffffffffffffff166002600085815260200190815260200160002060009054906101000a900473ffffffffffffffffffffffffffffffffffffffff1673ffffffffffffffffffffffffffffffffffffffff1614915050919050565b606081612c35816125d7565b612c8a576040517f08c379a00000000000000000000000000000000000000000000000000000000081526004018080602001828103825260218152602001806154936021913960400191505060405180910390fd5b600060018481548110612c9957fe5b906000526020600020019050806000018054600181600116156101000203166002900480601f016020809104026020016040519081016040528092919081815260200182805460018160011615610100020316600290048015612d3d5780601f10612d1257610100808354040283529160200191612d3d565b820191906000526020600020905b815481529060010190602001808311612d2057829003601f168201915b505050505092505050919050565b600088612d57816125d7565b612dc9576040517f08c379a00000000000000000000000000000000000000000000000000000000081526004018080602001828103825260158152602001807f4d61726b657420646f6573206e6f74206578697374000000000000000000000081525060200191505060405180910390fd5b3373ffffffffffffffffffffffffffffffffffffffff166002600083815260200190815260200160002060009054906101000a900473ffffffffffffffffffffffffffffffffffffffff1673ffffffffffffffffffffffffffffffffffffffff1614612e9d576040517f08c379a00000000000000000000000000000000000000000000000000000000081526004018080602001828103825260178152602001807f43616c6c6572206973206e6f7420746865206f776e657200000000000000000081525060200191505060405180910390fd5b600460008b81526020019081526020016000206040518061010001604052808b8b8080601f016020809104026020016040519081016040528093929190818152602001838380828437600081840152601f19601f82011690508083019250505050505050815260200189815260200189815260200160008a111515815260200188151581526020018715158152602001861515815260200185151581525090806001815401808255809150506001900390600052602060002090600402016000909190919091506000820151816000019080519060200190612f809291906152cf565b50602082015181600101556040820151816002015560608201518160030160006101000a81548160ff02191690831515021790555060808201518160030160016101000a81548160ff02191690831515021790555060a08201518160030160026101000a81548160ff02191690831515021790555060c08201518160030160036101000a81548160ff02191690831515021790555060e08201518160030160046101000a81548160ff021916908315150217905550505060006130636001600460008e8152602001908152602001600020805490506141f790919063ffffffff16565b9050808b7f7934e0f5d948c4a79a3febe9190e48f7c9017e7655c1f47105f8478ef984102a60405160405180910390a3809250505098975050505050505050565b6130ac612611565b61311e576040517f08c379a00000000000000000000000000000000000000000000000000000000081526004018080602001828103825260208152602001807f4f776e61626c653a2063616c6c6572206973206e6f7420746865206f776e657281525060200191505060405180910390fd5b6131278161447c565b50565b60008282613138828261208c565b61318d576040517f08c379a00000000000000000000000000000000000000000000000000000000081526004018080602001828103825260258152602001806155cb6025913960400191505060405180910390fd5b61319561534f565b6005600087815260200190815260200160002085815481106131b357fe5b9060005260206000200160405180602001604052908160008201548152505090508060000151935050505092915050565b60008073ffffffffffffffffffffffffffffffffffffffff168273ffffffffffffffffffffffffffffffffffffffff16141561326b576040517f08c379a00000000000000000000000000000000000000000000000000000000081526004018080602001828103825260428152602001806155026042913960600191505060405180910390fd5b613274836125d7565b6132c9576040517f08c379a00000000000000000000000000000000000000000000000000000000081526004018080602001828103825260278152602001806154256027913960400191505060405180910390fd5b6133216006600085815260200190815260200160002060008473ffffffffffffffffffffffffffffffffffffffff1673ffffffffffffffffffffffffffffffffffffffff16815260200190815260200160002061425f565b905092915050565b6000613335838361208c565b61338a576040517f08c379a000000000000000000000000000000000000000000000000000000000815260040180806020018281038252602a8152602001806154d8602a913960400191505060405180910390fd5b60076000848152602001908152602001600020600083815260200190815260200160002060009054906101000a900473ffffffffffffffffffffffffffffffffffffffff16905092915050565b6133ef600182600001546141f790919063ffffffff16565b816000018190555050565b600080855111613455576040517f08c379a000000000000000000000000000000000000000000000000000000000815260040180806020018281038252602d81526020018061556b602d913960400191505060405180910390fd5b6000808511905060006134f96040518061012001604052808a8152602001878152602001888152602001888152602001600081526020018415158152602001861515815260200189815260200189516040519080825280602002602001820160405280156134d25781602001602082028036833780820191505090505b508152508a60010160008b81526020019081526020016000206145c090919063ffffffff16565b9050809150506000808a60010160008b815260200190815260200160002073__SaleReleaseDataList___________________63eb504c879091856040518363ffffffff1660e01b8152600401808381526020018281526020019250505060006040518083038186803b15801561356f57600080fd5b505af4158015613583573d6000803e3d6000fd5b505050506040513d6000823e3d601f19601f8201168201806040525060208110156135ad57600080fd5b8101908080519060200190929190505050905082816004018190555060008090505b895181101561365257613623848d60000160008e815260200190815260200160002060008d85815181106135ff57fe5b6020026020010151815260200190815260200160002061467c90919063ffffffff16565b9050809350508282600701828154811061363957fe5b90600052602060002001819055508060010190506135cf565b50829450505050509695505050505050565b606060008460000160008581526020019081526020016000206000848152602001908152602001600020905060008173__ListUint256___________________________632214c5a790916040518263ffffffff1660e01b81526004018082815260200191505060206040518083038186803b1580156136e357600080fd5b505af41580156136f7573d6000803e3d6000fd5b505050506040513d602081101561370d57600080fd5b810190808051906020019092919050505090506060816040519080825280602002602001820160405280156137515781602001602082028036833780820191505090505b50905060008373__ListUint256___________________________6316708469909160006040518363ffffffff1660e01b8152600401808381526020018281526020019250505060206040518083038186803b1580156137b057600080fd5b505af41580156137c4573d6000803e3d6000fd5b505050506040513d60208110156137da57600080fd5b8101908080519060200190929190505050905060008090505b8381101561394e5760008573__ListUint256___________________________637b323b839091856040518363ffffffff1660e01b8152600401808381526020018281526020019250505060206040518083038186803b15801561385657600080fd5b505af415801561386a573d6000803e3d6000fd5b505050506040513d602081101561388057600080fd5b81019080805190602001909291905050509050808483815181106138a057fe5b6020026020010181815250508573__ListUint256___________________________63167084699091856040518363ffffffff1660e01b8152600401808381526020018281526020019250505060206040518083038186803b15801561390557600080fd5b505af4158015613919573d6000803e3d6000fd5b505050506040513d602081101561392f57600080fd5b81019080805190602001909291905050509250508060010190506137f3565b50819450505050509392505050565b80600073ffffffffffffffffffffffffffffffffffffffff168173ffffffffffffffffffffffffffffffffffffffff161415613a01576040517f08c379a00000000000000000000000000000000000000000000000000000000081526004018080602001828103825260208152602001807f436865636b4164647265737320697320746865207a65726f206164647265737381525060200191505060405180910390fd5b8173ffffffffffffffffffffffffffffffffffffffff168373ffffffffffffffffffffffffffffffffffffffff161415613a86576040517f08c379a00000000000000000000000000000000000000000000000000000000081526004018080602001828103825260338152602001806155986033913960400191505060405180910390fd5b613a90858561208c565b613ae5576040517f08c379a00000000000000000000000000000000000000000000000000000000081526004018080602001828103825260258152602001806155cb6025913960400191505060405180910390fd5b8273ffffffffffffffffffffffffffffffffffffffff1660076000878152602001908152602001600020600086815260200190815260200160002060009054906101000a900473ffffffffffffffffffffffffffffffffffffffff1673ffffffffffffffffffffffffffffffffffffffff1614613bad576040517f08c379a00000000000000000000000000000000000000000000000000000000081526004018080602001828103825260218152602001806154726021913960400191505060405180910390fd5b613c056006600087815260200190815260200160002060008573ffffffffffffffffffffffffffffffffffffffff1673ffffffffffffffffffffffffffffffffffffffff1681526020019081526020016000206133d7565b613c5d6006600087815260200190815260200160002060008473ffffffffffffffffffffffffffffffffffffffff1673ffffffffffffffffffffffffffffffffffffffff168152602001908152602001600020614241565b8160076000878152602001908152602001600020600086815260200190815260200160002060006101000a81548173ffffffffffffffffffffffffffffffffffffffff021916908373ffffffffffffffffffffffffffffffffffffffff1602179055508173ffffffffffffffffffffffffffffffffffffffff168373ffffffffffffffffffffffffffffffffffffffff16867f297028ce8af626c92b0bd8baa9fb2ab9a78677c4a12fac9d68113eb9d27208c7876040518082815260200191505060405180910390a45050505050565b8282826001613d3e84848484614738565b613db0576040517f08c379a000000000000000000000000000000000000000000000000000000000815260040180806020018281038252601b8152602001807f53616c6552656c6561736520646f6573206e6f7420657869737473000000000081525060200191505060405180910390fd5b613db8615362565b87600101600088815260200190815260200160002073__SaleReleaseDataList___________________63eb504c879091886040518363ffffffff1660e01b8152600401808381526020018281526020019250505060006040518083038186803b158015613e2557600080fd5b505af4158015613e39573d6000803e3d6000fd5b505050506040513d6000823e3d601f19601f820116820180604052506020811015613e6357600080fd5b81019080805190602001909291905050506040518061012001604052908160008201548152602001600182015481526020016002820154815260200160038201548152602001600482015481526020016005820160009054906101000a900460ff161515151581526020016005820160019054906101000a900460ff1615151515815260200160068201805480602002602001604051908101604052809291908181526020018280548015613f3757602002820191906000526020600020905b815481526020019060010190808311613f23575b5050505050815260200160078201805480602002602001604051908101604052809291908181526020018280548015613f8f57602002820191906000526020600020905b815481526020019060010190808311613f7b575b505050505081525050905060008090505b8160e001515181101561401f576140148261010001518281518110613fc157fe5b60200260200101518a60000160008b815260200190815260200160002060008560e001518581518110613ff057fe5b6020026020010151815260200190815260200160002061489b90919063ffffffff16565b806001019050613fa0565b50614047868960010160008a8152602001908152602001600020614a0f90919063ffffffff16565b5050505050505050565b858585600161406284848484614738565b6140d4576040517f08c379a000000000000000000000000000000000000000000000000000000000815260040180806020018281038252601b8152602001807f53616c6552656c6561736520646f6573206e6f7420657869737473000000000081525060200191505060405180910390fd5b60008a60010160008b815260200190815260200160002073__SaleReleaseDataList___________________63eb504c8790918b6040518363ffffffff1660e01b8152600401808381526020018281526020019250505060006040518083038186803b15801561414357600080fd5b505af4158015614157573d6000803e3d6000fd5b505050506040513d6000823e3d601f19601f82011682018060405250602081101561418157600080fd5b81019080805190602001909291905050509050868160010181905550878160020181905550878160030181905550600088118160050160006101000a81548160ff021916908315150217905550858160050160016101000a81548160ff0219169083151502179055505050505050505050505050565b600061423983836040518060400160405280601e81526020017f536166654d6174683a207375627472616374696f6e206f766572666c6f770000815250614b83565b905092915050565b6001816000016000828254019250508190555050565b600033905090565b600081600001549050919050565b60008060046000868152602001908152602001600020848154811061428e57fe5b906000526020600020906004020190506142a781614c43565b6142fc576040517f08c379a00000000000000000000000000000000000000000000000000000000081526004018080602001828103825260348152602001806155f06034913960400191505060405180910390fd5b6005600086815260200190815260200160002060405180602001604052808681525090806001815401808255809150506001900390600052602060002001600090919091909150600082015181600001555050600061437b600160056000898152602001908152602001600020805490506141f790919063ffffffff16565b90506143d56006600088815260200190815260200160002060008673ffffffffffffffffffffffffffffffffffffffff1673ffffffffffffffffffffffffffffffffffffffff168152602001908152602001600020614241565b8360076000888152602001908152602001600020600083815260200190815260200160002060006101000a81548173ffffffffffffffffffffffffffffffffffffffff021916908373ffffffffffffffffffffffffffffffffffffffff16021790555061444182614c6e565b8085877fe4c069d6d656e522b253bfc665628b0926e17c426d278d9025aa33d46a53802060405160405180910390a480925050509392505050565b600073ffffffffffffffffffffffffffffffffffffffff168173ffffffffffffffffffffffffffffffffffffffff161415614502576040517f08c379a000000000000000000000000000000000000000000000000000000000815260040180806020018281038252602681526020018061544c6026913960400191505060405180910390fd5b8073ffffffffffffffffffffffffffffffffffffffff166000809054906101000a900473ffffffffffffffffffffffffffffffffffffffff1673ffffffffffffffffffffffffffffffffffffffff167f8be0079c531659141344cd1fd0a4f28419497f9722a3daafe3b4186f6b6457e060405160405180910390a3806000806101000a81548173ffffffffffffffffffffffffffffffffffffffff021916908373ffffffffffffffffffffffffffffffffffffffff16021790555050565b60008060006145cf8585614cb0565b90506145da85614f01565b6145ec57808560000181905550614648565b8085600601600087600101548152602001908152602001600020600801600060011515151581526020019081526020016000208190555061464785600601600083815260200190815260200160002086600101546000614f11565b5b60006146568660040161425f565b905081866001018190555061466d86600401614241565b80829350935050509250929050565b600080600061468b8585614f53565b905061469685615048565b6146a857808560000181905550614704565b8085600601600087600101548152602001908152602001600020600101600060011515151581526020019081526020016000208190555061470385600601600083815260200190815260200160002086600101546000615058565b5b60006147128660040161425f565b905081866001018190555061472986600401614241565b80829350935050509250929050565b600081156147ef5784600101600085815260200190815260200160002073__SaleReleaseDataList___________________630474423a9091856040518363ffffffff1660e01b8152600401808381526020018281526020019250505060206040518083038186803b1580156147ad57600080fd5b505af41580156147c1573d6000803e3d6000fd5b505050506040513d60208110156147d757600080fd5b81019080805190602001909291905050509050614893565b8285600101600086815260200190815260200160002073__SaleReleaseDataList___________________635efcbf8290916040518263ffffffff1660e01b81526004018082815260200191505060206040518083038186803b15801561485557600080fd5b505af4158015614869573d6000803e3d6000fd5b505050506040513d602081101561487f57600080fd5b810190808051906020019092919050505050505b949350505050565b60008260060160008381526020019081526020016000206001016000600115151515815260200190815260200160002054905060008360060160008481526020019081526020016000206001016000801515151581526020019081526020016000205490508360010154831415614916578084600101819055505b83600001548314156149305781846000018190555061499f565b8184600601600083815260200190815260200160002060010160006001151515158152602001908152602001600020819055506000821461499e5780846006016000848152602001908152602001600020600101600080151515158152602001908152602001600020819055505b5b8284600501600086600201548152602001908152602001600020819055506149d56001856002015461509a90919063ffffffff16565b84600201819055506149fd846006016000858152602001908152602001600020600080615058565b614a09846004016133d7565b50505050565b60008260060160008381526020019081526020016000206008016000600115151515815260200190815260200160002054905060008360060160008481526020019081526020016000206008016000801515151581526020019081526020016000205490508360010154831415614a8a578084600101819055505b8360000154831415614aa457818460000181905550614b13565b81846006016000838152602001908152602001600020600801600060011515151581526020019081526020016000208190555060008214614b125780846006016000848152602001908152602001600020600801600080151515158152602001908152602001600020819055505b5b828460050160008660020154815260200190815260200160002081905550614b496001856002015461509a90919063ffffffff16565b8460020181905550614b71846006016000858152602001908152602001600020600080614f11565b614b7d846004016133d7565b50505050565b6000838311158290614c30576040517f08c379a00000000000000000000000000000000000000000000000000000000081526004018080602001828103825283818151815260200191508051906020019080838360005b83811015614bf5578082015181840152602081019050614bda565b50505050905090810190601f168015614c225780820380516001836020036101000a031916815260200191505b509250505060405180910390fd5b5060008385039050809150509392505050565b60008160030160009054906101000a900460ff161580614c67575060008260010154115b9050919050565b8060030160009054906101000a900460ff168015614c90575060008160010154115b15614cad57614ca4816001015460016141f7565b81600101819055505b50565b6000614cbb83615122565b6000809050600084600201541115614df05783600501600060018660020154038152602001908152602001600020549050614d04600185600201546141f790919063ffffffff16565b8460020181905550604051806020016040528084815250846006016000838152602001908152602001600020600082015181600001600082015181600001556020820151816001015560408201518160020155606082015181600301556080820151816004015560a08201518160050160006101000a81548160ff02191690831515021790555060c08201518160050160016101000a81548160ff02191690831515021790555060e0820151816006019080519060200190614dc79291906153b2565b50610100820151816007019080519060200190614de59291906153b2565b505050905050614ef7565b83600301549050614e0f6001856003015461509a90919063ffffffff16565b8460030181905550604051806020016040528084815250846006016000838152602001908152602001600020600082015181600001600082015181600001556020820151816001015560408201518160020155606082015181600301556080820151816004015560a08201518160050160006101000a81548160ff02191690831515021790555060c08201518160050160016101000a81548160ff02191690831515021790555060e0820151816006019080519060200190614ed29291906153b2565b50610100820151816007019080519060200190614ef09291906153b2565b5050509050505b8091505092915050565b6000808260000154119050919050565b80836008016000600115151515815260200190815260200160002081905550818360080160008015151515815260200190815260200160002081905550505050565b6000614f5e836151d1565b6000809050600084600201541115614fe55783600501600060018660020154038152602001908152602001600020549050614fa7600185600201546141f790919063ffffffff16565b84600201819055506040518060200160405280848152508460060160008381526020019081526020016000206000820151816000015590505061503e565b836003015490506150046001856003015461509a90919063ffffffff16565b8460030181905550604051806020016040528084815250846006016000838152602001908152602001600020600082015181600001559050505b8091505092915050565b6000808260000154119050919050565b80836001016000600115151515815260200190815260200160002081905550818360010160008015151515815260200190815260200160002081905550505050565b600080828401905083811015615118576040517f08c379a000000000000000000000000000000000000000000000000000000000815260040180806020018281038252601b8152602001807f536166654d6174683a206164646974696f6e206f766572666c6f77000000000081525060200191505060405180910390fd5b8091505092915050565b6000816003015414156151ce5760008160000154148015615147575060008160020154145b8015615157575060008160010154145b801561516e5750600061516c8260040161425f565b145b6151c3576040517f08c379a00000000000000000000000000000000000000000000000000000000081526004018080602001828103825260278152602001806155446027913960400191505060405180910390fd5b600181600301819055505b50565b60008160030154141561527d57600081600001541480156151f6575060008160020154145b8015615206575060008160010154145b801561521d5750600061521b8260040161425f565b145b615272576040517f08c379a00000000000000000000000000000000000000000000000000000000081526004018080602001828103825260278152602001806155446027913960400191505060405180910390fd5b600181600301819055505b50565b6040518061010001604052806060815260200160008152602001600081526020016000151581526020016000151581526020016000151581526020016000151581526020016000151581525090565b828054600181600116156101000203166002900490600052602060002090601f016020900481019282601f1061531057805160ff191683800117855561533e565b8280016001018555821561533e579182015b8281111561533d578251825591602001919060010190615322565b5b50905061534b91906153ff565b5090565b6040518060200160405280600081525090565b604051806101200160405280600081526020016000815260200160008152602001600081526020016000815260200160001515815260200160001515815260200160608152602001606081525090565b8280548282559060005260206000209081019282156153ee579160200282015b828111156153ed5782518255916020019190600101906153d2565b5b5090506153fb91906153ff565b5090565b61542191905b8082111561541d576000816000905550600101615405565b5090565b9056fe4d61726b6574506f6f6c5f4974656d733a204d61726b657420646f6573206e6f742065786973744f776e61626c653a206e6577206f776e657220697320746865207a65726f20616464726573734d61726b6574506f6f6c5f4974656d733a204974206973206e6f74206f776e65724d61726b6574506f6f6c3a204d61726b657420646f6573206e6f742065786973744f6e65206f6620746865206974656d207479706520646f6573206e6f74206578697374734d61726b6574506f6f6c5f4974656d733a204974656d205479706520646f6573206e6f742065786973744d61726b6574506f6f6c5f4974656d733a20417474656d707420746f20636865636b207468652062616c616e636520617420746865207a65726f2061646472657373496e7465726e616c206572726f722077697468204c69737420496d706c656d656e746174696f6e43616e6e6f74206372656174652053616c652052656c6561736520776974686f7574206974656d2074797065734d61726b6574506f6f6c5f4974656d733a202766726f6d27206164647265737320657175616c2027746f2720616464726573734d61726b6574506f6f6c5f4974656d733a204974656d20646f6573206e6f742065786973744d61726b6574506f6f6c5f4974656d733a2063616e6e6f742063726561746520616e206974656d206f6620746869732074797065a26469706673582212201a466c591adfbfbf99064534ad4ce89a8561278d8db234ae6c687f714ce400a364736f6c63430006030033",
  "source": "pragma solidity >=0.6.0;\r\n\r\n\r\nimport \"../library/Release/Sale/SaleReleasePosition.sol\";\r\nimport \"../library/Release/Sale/ItemRelease_Sale.sol\";\r\nimport \"./MarketPool_Items.sol\";\r\n\r\ncontract MarketPool_ItemRelease_Sale is MarketPool_Items {\r\n    using ItemRelease_Sale for ItemRelease_Sale.Instance;\r\n    using SaleReleasePosition for SaleReleasePosition.Data;\r\n\r\n    event SaleReleaseCreated(uint256 indexed marketId, uint256 indexed saleReleaseInnerId);\r\n    event SaleReleaseRemoved(uint256 indexed marketId, uint256 indexed saleReleaseInnerId);\r\n    event SaleReleaseUpdated(uint256 indexed marketId, uint256 indexed saleReleaseInnerId);\r\n    event SaleReleaseBought(uint256 indexed marketId, uint256 indexed saleReleaseInnerId, uint256[] itemIdArray);\r\n\r\n    ItemRelease_Sale.Instance private instance = ItemRelease_Sale.Instance();\r\n\r\n\r\n\r\n    /**\r\n     * @notice Create new Sale Data for Release Items\r\n     */\r\n    function createSaleRelease(\r\n        uint256 marketId,\r\n        uint256[] calldata itemTypeIdArray,\r\n        uint256 totalSupply,\r\n        uint256 priceInWei,\r\n        bool enable)\r\n        external\r\n        onlyMarketOwner(marketId)\r\n    {\r\n        for(uint i = 0; i < itemTypeIdArray.length; ++i){\r\n            require(itemTypeExist(marketId, itemTypeIdArray[i]), \"One of the item type does not exists\");\r\n        }\r\n        uint256 innerId = instance.createSaleRelease(marketId, itemTypeIdArray, totalSupply, priceInWei, enable);\r\n        emit SaleReleaseCreated(marketId, innerId);\r\n    }\r\n\r\n    function removeSaleRelease(uint256 marketId, uint256 saleReleaseInnerId)\r\n        external\r\n        onlyMarketOwner(marketId)\r\n    {\r\n        instance.removeSaleRelease(marketId, saleReleaseInnerId);\r\n        emit SaleReleaseRemoved(marketId, saleReleaseInnerId);\r\n    }\r\n\r\n    function updateSaleRelease(\r\n        uint256 marketId,\r\n        uint256 saleReleaseInnerId,\r\n        uint256 totalSupply,\r\n        uint256 priceInWei,\r\n        bool enable)\r\n        external\r\n        onlyMarketOwner(marketId)\r\n    {\r\n        instance.updateSaleRelease(marketId, saleReleaseInnerId, totalSupply, priceInWei, enable);\r\n        emit SaleReleaseUpdated(marketId, saleReleaseInnerId);\r\n    }\r\n\r\n\r\n    /*function buySaleRelease(uint256 marketId, uint256 saleReleaseInnerId, address itemOwner)\r\n        external\r\n        payable\r\n    {\r\n        SaleReleasePosition.Data storage data = instance.getSaleReleaseByInnerId(marketId, saleReleaseInnerId);\r\n        require(data.enable, \"Current sale realease is disabled\");\r\n        require(msg.value >= data.priceInWei, \"Not enough eth for buy this item\");\r\n        require(data.realeasePossible(), \"Release this item type is impossible\");\r\n        data.recordItemRelease();\r\n\r\n        uint256[] memory itemIdArray = new uint256[](data.itemTypeIdArray.length);\r\n\r\n        payable(marketToOwner[marketId]).transfer(data.priceInWei);\r\n        if (msg.value > data.priceInWei) payable(msg.sender).transfer(msg.value - data.priceInWei);\r\n\r\n        for(uint256 i = 0; i < data.itemTypeIdArray.length; ++i) {\r\n            itemIdArray[i] = _createItem(marketId, data.itemTypeIdArray[i], itemOwner);\r\n        }\r\n        emit SaleReleaseBought(marketId, saleReleaseInnerId, itemIdArray);\r\n    }*/\r\n\r\n\r\n    /**\r\n     * @notice Return data about Sale Release for selected item type\r\n     */\r\n    /*function getSaleReleaseByNormalId(uint256 marketIdToFound, uint256 saleReleaseId)\r\n        public\r\n        view\r\n        returns(\r\n            uint256 marketId,\r\n            uint256 priceInWei,\r\n            uint256 remainingSupply,\r\n            uint256 totalSupply,\r\n            uint256 innerId,\r\n\r\n            bool isFinal,\r\n            bool enable,\r\n            uint256[] memory itemTypeIdArray\r\n        )\r\n    {\r\n\t\treturn instance.getSaleReleaseDataByNormalId(marketIdToFound, saleReleaseId);\r\n    }*/\r\n\r\n\r\n    /**\r\n     * @notice Return array of inner id's SaleReleases by itemTypeId\r\n     */\r\n    function getSaleReleaseArrayForItemType(uint256 marketId, uint256 itemTypeId)\r\n        external\r\n        view\r\n        onlyItemTypeExist(marketId, itemTypeId)\r\n        returns (uint256[] memory)\r\n    {\r\n        return instance.getSaleReleaseArrayForItemType(marketId, itemTypeId);\r\n    }\r\n}",
  "sourcePath": "E:\\MeineArbeit\\Solidity\\market-pool\\contracts\\MarketPool_ItemRelease_Sale.sol",
  "compiler": {
    "name": "solc",
    "version": "0.6.3+commit.8dda9521.Emscripten.clang"
  },
  "schemaVersion": "3.0.23",
  "updatedAt": "2020-04-23T07:34:11.782Z",
  "devdoc": {
    "methods": {
      "createMarket(string)": {
        "params": {
          "name": "The name of marketplace"
        },
        "returns": {
          "_0": "id of the created market"
        }
      },
      "isOwner()": {
        "details": "Returns true if the caller is the current owner."
      },
      "owner()": {
        "details": "Returns the address of the current owner."
      },
      "renounceOwnership()": {
        "details": "Leaves the contract without owner. It will not be possible to call `onlyOwner` functions anymore. Can only be called by the current owner.     * NOTE: Renouncing ownership will leave the contract without an owner, thereby removing any functionality that is only available to the owner."
      },
      "transferOwnership(address)": {
        "details": "Transfers ownership of the contract to a new account (`newOwner`). Can only be called by the current owner."
      }
    }
  },
  "userdoc": {
    "methods": {
      "createItem(uint256,uint256)": {
        "notice": "Can call only owner. Create Item for selected Market and Type. Owner of item will be owner of market"
      },
      "createItemType(uint256,string,uint256,bool,bool,bool,bool)": {
        "notice": "Create ItemType for selected Market."
      },
      "createMarket(string)": {
        "notice": "Create new Market for sender."
      },
      "createSaleRelease(uint256,uint256[],uint256,uint256,bool)": {
        "notice": "Create new Sale Data for Release Items"
      },
      "getItemData(uint256,uint256)": {
        "notice": "Return data about item"
      },
      "getItemTypeData(uint256,uint256)": {
        "notice": "Return data about item type"
      },
      "getMarketData(uint256)": {
        "notice": "Return all data of market by its id"
      },
      "getMarketOwner(uint256)": {
        "notice": "Return addres of market owner"
      },
      "getSaleReleaseArrayForItemType(uint256,uint256)": {
        "notice": "Return array of inner id's SaleReleases by itemTypeId"
      },
      "isMarketOwner(uint256)": {
        "notice": "Chech if it is market owner "
      },
      "marketExist(uint256)": {
        "notice": "Check if market exist "
      },
      "renounceMarketOwnership(uint256)": {
        "notice": "Renouncing ownership will leave the contract without an market owner, thereby removing any functionality that is only available to the market owner (e.g. creating new Item Types)."
      },
      "transferItemOwnership(uint256,uint256,address)": {
        "notice": "Can call only item owner. Change item owner to ('to')"
      },
      "transferMarketOwnership(uint256,address)": {
        "notice": "Transfers ownership of the ('marketId') to a new account (`newOwner`)."
      }
    }
  }
}